:020000040007F3
:10800000487E0020DD830700E5830700E783070043
:10801000E9830700EB830700ED8307000000000001
:10802000000000000000000000000000C9830700FD
:10803000F183070000000000F3830700F5830700C9
:10804000F7830700F7830700F7830700F78307002C
:10805000F7830700F7830700F7830700F78307001C
:10806000F7830700F7830700F7830700F78307000C
:10807000F7830700F7830700F7830700F7830700FC
:108080001D880700F7830700F7830700F7830700C1
:10809000F7830700F7830700FD840700F7830700D5
:1080A000F7830700F7830700F7830700F7830700CC
:1080B000F7830700F78307000000000000000000BE
:1080C000F7830700F7830700F7830700F7830700AC
:1080D00089840700F7830700F7830700000000008A
:1080E0000000000000000000000000000000000090
:1080F0000000000000000000000000000000000080
:10810000000000000000000000000000000000006F
:10811000000000000000000000000000000000005F
:10812000000000000000000000000000000000004F
:10813000000000000000000000000000000000003F
:10814000000000000000000000000000000000002F
:10815000000000000000000000000000000000001F
:10816000000000000000000000000000000000000F
:1081700000000000000000000000000000000000FF
:1081800000000000000000000000000000000000EF
:1081900000000000000000000000000000000000DF
:1081A00000000000000000000000000000000000CF
:1081B00000000000000000000000000000000000BF
:1081C00000000000000000000000000000000000AF
:1081D000000000000000000000000000000000009F
:1081E000000000000000000000000000000000008F
:1081F000000000000000000000000000000000007F
:10820000DFF80CD000F02EF900480047058C07007D
:10821000487E002080F308888E46104730B450E82E
:10822000012F93B2C48923448489A34228BF1B1B16
:108230000489A34202BFBFF32F8F002007E0C3EAE7
:10824000020340E80134002CE9D14FF001000A603C
:1082500030BC704750E8012FC2EA024240E80121D9
:108260000029F7D1704730B450E8022F1FFAA2F36B
:10827000C488A34202BFBFF32F8F00200DE0C48942
:1082800023448489A34228BF1B1BC2EA034340E85E
:108290000234002CE8D14FF001000A6030BC704776
:1082A00050E8022FC2EA224240E802210029F7D119
:1082B0007047034653E8022FD988B2EB324F4FF094
:1082C000000017BF92B241EA014142EA014104E0D5
:1082D0005A68B2EB324F08BF012043E80212002A6D
:1082E000E8D1704730B4044654E8000F0D4644E826
:1082F0000053002BF8D1156030BC704730B40446F1
:1083000054E8000F40EA010544E80053002BF7D180
:10831000156030BC704730B4044654E8000F00EAE2
:10832000010544E80053002BF7D1156030BC7047BD
:1083300030B4044654E8000F80EA010544E80053D5
:10834000002BF7D1156030BC704730B4044654E8B8
:10835000000F00EB010544E80053002BF7D1156036
:1083600030BC704730B4044654E8000FA0EB010560
:1083700044E80053002BF7D1156030BC704770B44F
:1083800004464FF0000054E8006F0D68AE4207BF8E
:1083900044E80023012044E800630E60002B1CBF6A
:1083A0000020F0E770BC704730B4044654E8000F7A
:1083B00088422CBF451A054644E80053002BF5D1EE
:1083C000156030BC704700001EF0040F0CBFEFF3C7
:1083D0000880EFF3098001F01FB8000006488047CD
:1083E00006480047FEE7FEE7FEE7FEE7FEE7FEE79A
:1083F000FEE7FEE7FEE7FEE70185070001820700D2
:1084000040EA01039B0703D009E008C9121F08C016
:10841000042AFAD203E011F8013B00F8013B521E96
:10842000F9D27047D2B201E000F8012B491EFBD20D
:1084300070470022F6E710B513460A46044619466F
:10844000FFF7F0FF204610BD30B50446002003467C
:1084500000E05B1C934203D2E05CCD5C401BF8D093
:1084600030BD0000064C074D06E0E06840F0010317
:1084700094E8070098471034AC42F6D3FFF7C4FEE7
:10848000C89A0700E89A07002DE9F041194E4FF409
:108490008271D6F8040130B11748C268521CC2601C
:1084A000304600F0B3FE00254FF4A07707EB8501BE
:1084B0008AB23046B258BAB189B200F0A7FE0E486F
:1084C000103000EB0514204601F0C8F9616819B1BD
:1084D000204601F049F907E0A16811B1204601F0FA
:1084E00043F9206800B180476D1C022DDED3BDE842
:1084F000F081000000400240C457002000F020BF7F
:10850000F0B5B5480023021D0178101D01254FF07C
:10851000805406290BD11678360708D10678C6F3A1
:108520000316032E06D0042E04D0052E02D00629F1
:1085300007D00EE0B4F82463A84FC6F304263E60CB
:1085400002E01678360704D10678C6F30316032E28
:1085500002D0062904D00FE0A24FA14E7E670EE0A4
:108560001678360708D10678C6F30316032E06D010
:10857000042E04D0052E02D0062907D00EE0D4F830
:108580004462994FC6F342363E6002E016783607E1
:1085900004D10678C6F30316032E02D0062906D0AE
:1085A00011E0924E376827F0807737600EE016783A
:1085B000360708D10678C6F30316032E06D0042E1C
:1085C00004D0052E02D006290AD011E04FF08046D3
:1085D000C6F80C31C6F81031834E361F336002E006
:1085E0001678360704D10678C6F30316032E02D098
:1085F000062905D00CE07C4F032664373E600AE074
:108600001678360704D10678C6F30316032E02D077
:1086100006290DD014E0764F05263E60744E78365C
:108620003560734E083633603F263F1D3E6002E0E2
:108630001678360704D10678C6F30316052E02D045
:10864000062957D062E06B4E36686B4F3E60694E2C
:10865000361D36683F1D3E60664E083636683F1D43
:108660003E60644E0C3636683F1D3E60614E1036EB
:1086700036683F1D3E605F4E143636683F1D3E60D3
:108680005C4E183636685C4F20373E60594E1C36BB
:1086900036683F1D3E60574E203636683F1D3E60AF
:1086A000544E243636683F1D3E60524E283636689A
:1086B0003F1D3E604F4E2C3636683F1D3E604D4E8E
:1086C000303636684C4F40373E604A4E3436366856
:1086D0003F1D3E60474E383636683F1D3E60454E72
:1086E0003C3636683F1D3E60424E403636683F1D80
:1086F0003E6002E01678360708D10678C6F3031606
:10870000032E06D0042E04D0052E02D0062907D051
:1087100019E0D4F85812394A01F04F01116002E013
:10872000117809070FD10078C0F30310032803D094
:10873000042801D0052806D131480168C90702D0B4
:108740006FF001010160D4F83001062808D1D4F897
:108750003401062804D12B48016841F4806101608E
:1087600022487438016841F470010160BFF34F8FF3
:10877000BFF36F8F4FF01021D1F80002002803DB08
:10878000D1F80402002822DA1F4A15601F48046845
:10879000002CFCD01524C1F800420568002DFCD047
:1087A000C1F8044201680029FCD013600168002967
:1087B000FCD0BFF34F8F0D48F0380168144A01F424
:1087C000E06111430160BFF34F8F00BFFDE7124925
:1087D00010480860F0BD0000E00F00F04035014097
:1087E0000DF0ADBA00C007403C050040FCED00E0D4
:1087F000105600400404001020C50040E40E004064
:10880000000400403C17004004E5014000E4014042
:108810000400FA050090D0030C580020034808B566
:10882000002101600068009008BD000000010140C7
:1088300002E008C8121F08C1002AFAD17047704729
:10884000002001E001C1121F002AFBD17047000087
:108850000121202803DA81400548014003E0402837
:1088600002DA2038814009B10120704700207047AA
:10887000FC06FFBD800701D0002070470120704733
:10888000C3688B4206D811440069491E814201D851
:10889000012070470020704770B5134CA66C656AC4
:1088A00000F01AFB216B08446A1A3144814200D15E
:1088B0000022082300F02CF9060013D100F00CFB75
:1088C0000022294600F054F8A16A814204D1012116
:1088D000A561C4E9070104E00020206300F0A6FBC5
:1088E0000326304670BD0000DC5A002000F0CAFDAF
:1088F00000F0C8FD30B5EFF3108172B60D4A9468F0
:10890000012324B10370002900D162B630BD936009
:108910004FF0E023D3F88051074C25401560C3F891
:108920008041D3F8844154605A17C3F8842100224F
:108930000270E8E7385C0020FC06FFBD0B498A683E
:10894000002A11D000280FD1EFF3108072B60B6807
:108950004FF0E022C2F800314B68C2F80431002227
:108960008A60002800D162B670470000385C0020A1
:10897000F0B54FF0FF3622B11268D24300230A4D02
:108980000DE03246FAE7C45C62400824D70700D005
:1089900037462F4087EA5202641EF7D15B1C8B4298
:1089A000F1D3D043F0BD00002083B8ED10B50446EC
:1089B0000068401C07D0204600F050FE216881422C
:1089C00001D1012010BD002010BD4169002901D056
:1089D000C0680847704700002DE9FC4180461F46EB
:1089E00015460E4600240D4800F072F938B11120EA
:1089F000BDE8FC8106EB043000F0CEFB641CAC4209
:108A0000F8D1064800F061F9CDE90057334600225D
:108A10000221404600F02AF80020E9E7FC57002038
:108A20002DE9F843104D0F4680461E469146694693
:108A3000286800F01EF9040014D01C21FFF7F9FC8F
:108A400001202071C4F81490380BC4F80080C4E9E8
:108A500002606946286800F02DF900F087FD0020CB
:108A6000BDE8F8830420FBE7F49907002DE9F04303
:108A700087B00446DDE90E8980681D4616460F461C
:108A800000280BD018216846FFF7D3FC02A88DF808
:108A9000007080E86003A1686846884707B0BDE8B9
:108AA000F08330B50446006887B00D468068002822
:108AB0001FD018216846FFF7BCFC0195A0680590FF
:108AC000207910B1012810D107E001208DF80000B5
:108AD00020690290E068039005E002208DF8000014
:108AE000E06800030290606904902068816868462D
:108AF000884707B030BD0000014901200870704769
:108B0000B85700200149012008707047C057002065
:108B10002DE9F04781461D4616468846494502D153
:108B20000020BDE8F087A8EB0900040B06F6FF70F3
:108B30004FF0000A070B00F0ABF9A5422AD22C46F1
:108B400028E0A74202D8BA46354601E0A2462503EE
:108B500000225146484600F0DDF90028E1D1681EA8
:108B600000F003002A1A002341464846D21C00F0B8
:108B7000E7F90028D5D10948A7EB0A07761B016B56
:108B8000A94429440163A844002000F04FFA5FEA99
:108B9000000AC6D1002ED4D15046C2E7DC5A0020CC
:108BA0000149416000207047C899070010B50B4982
:108BB00041600B4800F08CF868B900F0D3FB08491D
:108BC0001C234FF4EE7208740448A1F5EE71001FE7
:108BD000006800F03BF8002010BD0000F899070085
:108BE000305E002002480068002800D00120704755
:108BF000FC5700200248007A002800D0012070476E
:108C0000305E002010B500224FF48051104600F075
:108C1000BBF850B908480022C0F5FC2100F0B4F8B8
:108C200018B9002000F002F908B100F02BFC00F0A8
:108C30005DF8002010BD00000080070010B5FFF7B0
:108C400038FB08B1002010BD112010BD10B531B1A6
:108C5000B2FBF3F403FB14241CB1092010BD0E2059
:108C600010BD01600021416081608281C38108469E
:108C700010BD70B50C460546FFF7D0FA002802D0AB
:108C800021882868084470BD10B50A8849888A423E
:108C900003D1FFF705FB012010BD002010BD70B50A
:108CA0000C460546FFF7DFFA002802D061882868E5
:108CB000084470BD10B50A8849888A4203D1FFF77D
:108CC000C9FA012010BD002010BD002100F003B83A
:108CD000012100F006B808B56A46FFF71CFB0098B2
:108CE00008BD08B56A46FFF709FB08BD10B54FF08F
:108CF000E0224FF0FF314FF48054C2F88011C2F8E7
:108D0000801200F029F92046BDE81040AFF3008042
:108D100070B505461A4888B0C0F5FC21002200F065
:108D200033F8EFF30580D5E90045C005C00D4FF0DD
:108D3000FF364FF0000181F3148881F3108881F32E
:108D4000118881F3138812D020220E496846FFF75C
:108D500057FB203C2022694620460695FFF750FB32
:108D6000B21F31462046FFF755FA08B070BD08B073
:108D70002A4631462046BDE87040FFF74BBA000056
:108D800000800700A8990700F0B50A0502D1B0F5E8
:108D9000FE2F01D90720F0BD134D000B491E124FC5
:108DA00001222E1D103700EB113407F1040C17E0DF
:108DB0004309C3F1000100EB411E02FA0EF106D097
:108DC000012B06D0022B06D0032B08D105E0296029
:108DD00005E0316003E0396001E0CCF80010401C90
:108DE000A042E5D90020F0BD0006004010B50C4CB3
:108DF000E06A2434012801D0002010BDFFF74CFDAB
:108E000048B9204600F07CF8064900200870064862
:108E100000F00CF908B1032010BD012010BD0000C6
:108E2000DC5A0020C0570020058B070070B5104C9D
:108E30006060002000F09EF880B9FFF7D7FF0025A2
:108E400048B1012802D0022808D104E02570094861
:108E500000F08AF802E000F085F808B1032070BD48
:108E60002570054800F080F8FFF740FFF6E70000A6
:108E7000B8570020AD950700F98A0700034A9368A8
:108E80000A4601469860184600F0DABCC457002034
:108E900070B50E4D2878002817D100F0EBFA0126A6
:108EA00090B10B480468A4F54864962C00DA962427
:108EB00000F0F6FC07492046FFF7E0FF4FF0E02105
:108EC0004FF48030C1F800012E7070BDF4570020BF
:108ED00004050140DD9807004FF44050074A4168FF
:108EE000914207D18068411EC1F30B01401A00F680
:108EF000FF7070474FF4805070470000DBE5B151C0
:108F000000210160416081600148016370470000F9
:108F1000DC5A002013460A460146014800F096B884
:108F20001058002008B1034900E00349002203481B
:108F300000F0A2B8049A0700D49907001058002046
:108F400008B5009313460A460146024800F004F9AA
:108F500008BD0000105800204FF480504104086004
:108F60000020704700207047014900F06DBB0000F1
:108F700000F007002DE9F047FFF7D4FFD0BB1E48F3
:108F8000FFF714FD1D4E04463068FFF70FFD054640
:108F90002C424FF4AE7811D0174F58213A46042096
:108FA00000F062FB81463A46474641465C2000F0AD
:108FB0005BFB19EA000F01D13A460AE03CB1424698
:108FC0000D490F48FFF71CFA0020BDE8F0872DB1CE
:108FD00042460B483168FFF713FA06E0414608485D
:108FE000FFF727FA064901204860002000F00AF840
:108FF0000028EAD00320E8E700F00700F857002037
:10900000DC5A002010B50446064800F027FB05494D
:109010002246A1F52E730860BDE81040024800F01A
:1090200033BB0000DC5A002000F0070070B5054695
:109030000020FFF7E7FF040003D10349284600F0B2
:1090400003FB204670BD0000DC5A00202DE9F041F2
:109050000446406815461E4602680F466A4320468D
:10906000FFF70EFC206833462A46D0F810C0394678
:109070002046BDE8F041604701600B681146184783
:10908000044801214174007A08B100207047012092
:1090900070470000305E0020012801D0032808D16D
:1090A0000449002201284A7400D00020087400F00E
:1090B0000FBA7047305E002070B50146022801D01B
:1090C000032943D1224C207A00283FD0012831D0F7
:1090D00002282FD11F4800230229006802D003294B
:1090E00028D119E0E360027912B1012A22D10BE004
:1090F000D0E90565721B142A00D314222A44826128
:109100004569AA420ED015E00169491C0161426916
:1091100091420FD1237213E0E268521CE260082AE8
:1091200008D9E360237202290AD00D21FFF7B9FCA8
:1091300000F0C4F9607C28B1BDE8704000F018B9B7
:109140000021F3E7BDE8704000F0C2B970BD000037
:10915000305E0020005800202DE9F84304461D46EB
:1091600016460F460846DDF82080FFF783FB3046A1
:10917000FFF780FB2A4639462046FFF781FBCDF8F2
:10918000008020682B463246D0F80CC03946204675
:10919000E047BDE8F8830000094902220A60BFF3F6
:1091A0006F8FBFF34F8F0A1D106006480268002AB8
:1091B000FCD000200860BFF36F8FBFF34F8F704764
:1091C00004E5014000E4014070B50E4C012323602A
:1091D000BFF36F8FBFF34F8F00230B4D08E000BF2D
:1091E00051F8236040F823602E68002EFCD05B1CF1
:1091F0009342F5D300202060BFF36F8FBFF34F8FF2
:1092000070BD000004E5014000E4014008B5002203
:1092100042504058009008BD30B51548ADF5017D6D
:109220000078002821D04FF4FA7500BFADF8005245
:1092300080A9684661DF38B1052816D00DF5017D9B
:10924000BDE83040FFF754BB6C460A497DA800F0EA
:10925000BBF806E0D0E90021204690477DA800F049
:10926000CAF87F980028E1D0F4E70DF5017D30BD04
:109270000B580020A09A0700F8B5134C2078C0B115
:109280000120A07000F0B2F9112814D0022000F0E3
:10929000C5F900258DF800506846FFF72BFB11DF5C
:1092A000064625709DF80000FFF748FB2EB13046BA
:1092B000F8BD0820F8BD0020F8BDA57000F00CFA3C
:1092C000032000F0ABF9F6E7085800207CB5194CF4
:1092D000207808B108207CBD0120A070002000F09B
:1092E00085F9112819D0002000F098F912480026BD
:1092F000006801908DF800606846FFF7FBFA0F499F
:1093000001A810DF05000AD0002020709DF80000A1
:10931000FFF714FB2DB128467CBD00207CBD012049
:10932000F3E7A670667000F0F3F9012000F076F91B
:10933000F3E7000008580020349A0700ED88070082
:109340000EB50749684600F03FF805E0D0E9001087
:109350008847684600F04FF802980028F6D10EBD05
:10936000509A070001480078704700000858002014
:109370000548817819B1007818B1FFF77DBF082042
:109380007047FFF7A3BF0000085800201FB56846CC
:109390004BDF30B1052814D004B0BDE81040FFF712
:1093A000A7BA084901A800F00FF806E0D0E90021AB
:1093B0000098904701A800F01EF803980028E6D016
:1093C000F4E71FBDBC9A0700016009684160AFF374
:1093D000008010B5D0E900215368994201D10021E5
:1093E00004E0D1E90034A34202D01946816010BDE7
:1093F00008314160F0E7816800290BD0026892686B
:109400000A44826041684B689A4203D10831416046
:10941000FFF7DFBF704700002DE9F0410446134815
:10942000134BC01A0C21B0FBF1F6A0694FF0FF31CD
:1094300010F8022C02B92169002011E000EB400570
:1094400003EB85052F68974209D14F1C02D06F6846
:109450008F4204D194E80F00AD68A84703E0401C98
:10946000B042EBD301202060BDE8F0810000000095
:109470000000000002480068002800D0012070476A
:10948000000401400A4E64254FF47A47741C3846A4
:10949000A0476D1EFAD1BFF34F8F06480168064AF8
:1094A00001F4E06111430160BFF34F8F00BFFDE79E
:1094B000809907000CED00E00400FA05034802491A
:1094C0000068FFF7E1BB000004580020F499070092
:1094D0002DE9F041224C0025224E207A012730B997
:1094E0002148311D0068FFF7DAFB306038B10220F7
:1094F00020723168087928B101281CD114E0656018
:10950000BDE8F081D1E90503C01A142800D3142066
:10951000B7EB900F01D2820800E001220869C96808
:109520001844194429DF03E0D1E90301084428DF86
:1095300058B1112812D003213068FFF7B2FA257212
:109540006560BDE8F041FFF7B9BF207C0028D7D1A6
:10955000BDE8F04100210220FFF7AEBD2772CFE742
:10956000305E002000580020F499070010B5074C29
:10957000201DFFF7ADFB002806D1607C002803D139
:10958000BDE81040FFF7A4BF10BD0000305E002012
:1095900010B510461A46FEF733FF002010BD10B577
:1095A00010461A46FEF72CFF002010BD0A4E642517
:1095B0004FF47A47741C3846A0476D1EFAD1BFF3AA
:1095C0004F8F06480168064A01F4E06111430160CB
:1095D000BFF34F8F00BFFDE7909907000CED00E04F
:1095E0000400FA0508467047084670473EB5044631
:1095F00009496846FFF7E8FE08E000BFD0E900210E
:109600002046904730B16846FFF7F5FE02980028E3
:10961000F4D13EBD11203EBD389A07003EB5044648
:1096200008496846FFF7D0FE07E000BFD0E90021F7
:10963000204690476846FFF7DEFE02980028F5D1E5
:109640003EBD0000449A070002460348014B0068F3
:1096500000F01AB880590020F85700200022582145
:10966000001DFFF785B900000B1A1118054A10B547
:10967000126810441A46FEF7E7FE08B1002010BD3C
:10968000012010BDF85700202DE9F04114464FF499
:10969000AE751E460F4680462A46FEF7D5FE30B10F
:1096A000002201214046FFF735FC98B905E00CB1D6
:1096B0000020A0470020BDE8F0812A463946304608
:1096C000FEF79EFE23462A4631464046FFF738FC09
:1096D0000028F0D00320EEE710B51620FFF7B8F809
:1096E00048B10A4882684FF4800152B1016821F400
:1096F0008001016010BDBDE8104042F20100FFF79B
:10970000F7B84FF0E020C0F8801110BD385C0020A1
:1097100010B51620FFF79CF8A0B1114890F800048E
:109720004009082811D20121814011F0EC0F0CD022
:109730000C4882684FF480016AB1016841F48001ED
:10974000016010BD42F2010001E042F20200BDE8FA
:109750001040FFF7CDB84FF0E020C0F8001110BD69
:1097600016E000E0385C002070B503466FF07F40E3
:10977000814200D20846124DD5F804250244081A49
:10978000411E22F07F425860952902D29630963AC7
:1097900058601C7B05EB8400C0F8402509494FF454
:1097A000F86088474FF4A07000EB84012846FFF76B
:1097B0002DFD4FF48030A040C5F8040370BD0000BB
:1097C00000400240A199070070B5184E307800287B
:1097D0002BD1174800680125C0F3004008B915488F
:1097E0000560154C4FF480712046FFF70FFD4FF4D4
:1097F000A0712046FFF70AFD4FF4A2712046FFF743
:1098000005FD0E49A02081F800040C4910202039E4
:10981000C1F88002C1F800010020C4F80805A56065
:1098200025600220C4F80403357070BDC4570020C1
:1098300018040040080000400040024024E000E01E
:1098400070B515460E460446FFF7BEFF314620466A
:109850002560BDE87040FFF787BF0000017B4FF433
:10986000803088400149C1F8080370470040024039
:1098700010B50248FFF729FA002010BDFC57002060
:1098800010B514210448FEF7D4FD04480068FFF722
:10989000D5F9002010BD0000305E0020F4990700CB
:1098A00070B5FFF7E7FD002811D00020084A094BEA
:1098B000094C0121166801FA00F52E4203D004EB91
:1098C0008005C5F80036401CC0B20728F2D370BD31
:1098D000080501403546526E00000140FFF7E0BF29
:1098E00000207047002070472DE9FC4180461C464F
:1098F00017460E460C48089DFFF7EAF910B11120F3
:10990000BDE8FC81A20839463046FFF75DFC0648F9
:10991000FFF7DBF933463A4601214046CDE90045E1
:10992000FFF7A4F80020EBE7FC5700202DE9F84FE3
:10993000114D884681461E4617466946DDF828A027
:109940002868FFF796F9040013D01C21FEF771FD7B
:1099500000202071C4F80090C4E90486C4E902A77D
:1099600069462868FFF7A6F9FFF700FE0020BDE86A
:10997000F88F0420FBE70000F499070000000000C6
:109980000338FDD870470000000000000000000010
:109990000338FDD870470000000000000000000000
:1099A0000338FDD8704700000000000000000000F0
:1099B000000000000000000000000000FFFFFFFFAB
:1099C0000000000000000001001000000400000082
:1099D00001000000A18B0700719807009195070016
:1099E000E9980700D9890700E5950700E198070085
:1099F000E58B0700445C002000100000040000001C
:109A000001000000AD8B0700819807009F950700BB
:109A10002D990700218A0700E9950700E5980700BE
:109A2000F58B0700E89A0700F09A07000000000095
:109A30000000000001000007249A0700349A070084
:109A4000080000005C9A07006C9A070008000000FC
:109A50006C9A07007C9A070008000000089B07002A
:109A6000109B07000000000000000000F89A0700AB
:109A7000089B07000000000000000000000000003C
:109A800000000000000000000000000000000000D6
:109A9000000000000000000000000000B857002097
:109AA0007C9A07009C9A070008000000F09A0700C3
:109AB000F89A07000000000000000000AC9A0700C0
:109AC000BC9A070008000000109B0700B857002050
:109AD0006C000000308807007C9B070024580020A1
:109AE0002426000040880700819007000000000045
:109AF000B990070000000000199207000000000064
:109B00008D930700000000009990070000000000FE
:109B10000000000000000000000000000000000045
:109B2000D4570020E457002000000000000000008F
:109B30000000000000000000000000000000000025
:109B40000000000000000000010000000000000014
:109B500000E007000000000000000000000000001E
:109B6000000000000090D003000000000000000092
:0C9B7000CB890700001000000000080076
:020000041000EA
:041014000080070051
:04000005000782016D
:00000001FF
