:020000040002F8
:10600000F8A80020DD630200E5630200E7630200F8
:10601000E9630200EB630200ED6302000000000090
:10602000000000000000000000000000EF6302001C
:10603000F163020000000000F3630200F563020058
:10604000F7630200F7630200D5710200F7630200F4
:10605000F7630200F7630200F16B0200F7630200CE
:10606000F7630200F7630200F7630200F7630200C0
:10607000F7630200F7630200F7630200F7630200B0
:10608000F7630200B96D0200F7630200F7630200D4
:10609000B16E0200F7630200B56E0200F763020002
:1060A000F7630200F7630200F7630200F763020080
:1060B000F7630200F7630200000000000000000028
:1060C000F7630200F7630200F7630200F763020060
:1060D000DD6D0200F7630200F763020000000000BC
:1060E00000000000000000000000000000000000B0
:1060F00000000000000000000000000000000000A0
:10610000000000000000000000000000000000008F
:10611000000000000000000000000000000000007F
:10612000000000000000000000000000000000006F
:10613000000000000000000000000000000000005F
:10614000000000000000000000000000000000004F
:10615000000000000000000000000000000000003F
:10616000000000000000000000000000000000002F
:10617000000000000000000000000000000000001F
:10618000000000000000000000000000000000000F
:1061900000000000000000000000000000000000FF
:1061A00000000000000000000000000000000000EF
:1061B00000000000000000000000000000000000DF
:1061C00000000000000000000000000000000000CF
:1061D00000000000000000000000000000000000BF
:1061E00000000000000000000000000000000000AF
:1061F000000000000000000000000000000000009F
:10620000DFF80CD000F0D4FB004800478DAC020052
:10621000F8A8002000B583B002900091019244F2EA
:10622000010071466A4601F00DFE03B000BD00009A
:1062300030B450E8012F93B2C48923448489A34227
:1062400028BF1B1B0489A34202BFBFF32F8F00206E
:1062500007E0C3EA020340E80134002CE9D14FF023
:1062600001000A6030BC704750E8012FC2EA0242C8
:1062700040E801210029F7D1704730B450E8022FDF
:106280001FFAA2F3C488A34202BFBFF32F8F0020DE
:106290000DE0C48923448489A34228BF1B1BC2EAA2
:1062A000034340E80234002CE8D14FF001000A60BB
:1062B00030BC704750E8022FC2EA224240E8022177
:1062C0000029F7D17047034653E8022FD988B2EB73
:1062D000324F4FF0000017BF92B241EA014142EA4B
:1062E000014104E05A68B2EB324F08BF012043E895
:1062F0000212002AE8D1704730B4044654E8000F77
:106300000D4644E80053002BF8D1156030BC7047AF
:1063100030B4044654E8000F40EA010544E8005355
:10632000002BF7D1156030BC704730B4044654E8F8
:10633000000F00EA010544E80053002BF7D1156077
:1063400030BC704730B4044654E8000F80EA0105C1
:1063500044E80053002BF7D1156030BC704730B4CF
:10636000044654E8000F00EB010544E80053002BFD
:10637000F7D1156030BC704730B4044654E8000FC4
:10638000A0EB010544E80053002BF7D1156030BCA9
:10639000704770B404464FF0000054E8006F0D6879
:1063A000AE4207BF44E80023012044E800630E60CA
:1063B000002B1CBF0020F0E770BC704730B40446CF
:1063C00054E8000F88422CBF451A054644E80053A4
:1063D000002BF5D1156030BC70470000064880479F
:1063E00006480047FEE7FEE7FEE7FEE7FEE7FEE7BA
:1063F000FEE7FEE7FEE7FEE7B96E0200016202007B
:106400002DE9F05F0546002092469B4688460646E9
:10641000814640241BE0284641464746224600F07C
:10642000B7F853465A46C01A914110D31146184640
:10643000224600F016F82D1A67EB01084F46224657
:106440000120002100F00DF817EB00094E41201E3D
:10645000A4F10104DFDC484631462A464346BDE844
:10646000F09F202A04DB203A00FA02F10020704756
:106470009140C2F1200320FA03F319439040704782
:106480000649074A0868504343F23902104408603D
:10649000400870470149086070470000083D00202F
:1064A0006D4EC64140EA01039B0703D009E008C9CD
:1064B000121F08C0042AFAD203E011F8013B00F8C9
:1064C000013B521EF9D27047D2B201E000F8012B15
:1064D000491EFBD270470022F6E710B513460A4664
:1064E00004461946FFF7F0FF204610BD30B50546BB
:1064F0002A460B4612F8010B13F8014B08B1A042D3
:10650000F8D01CB1002802D06D1CF1E7284630BD40
:10651000421C10F8011B0029FBD1801A704730B5CE
:1065200004460020034600E05B1C934203D2E05C7B
:10653000CD5C401BF8D030BD034611F8012B00F8AC
:10654000012B002AF9D11846704770B5064600F0B5
:1065500017FF046805460A220021304600F028F89B
:106560002C6070BD30B50B4601460020202201246E
:1065700009E021FA02F59D4205D303FA02F5491B11
:1065800004FA02F52844151EA2F10102F1DC30BD27
:10659000202A04DB203A21FA02F00021704721FA78
:1065A00002F3D040C2F120029140084319467047DF
:1065B0002DE9F04791460E4680460446002514F822
:1065C000017B2FB100F018FA0068C05DC007F6D15A
:1065D0002B2F02D02D2F1ED0641E4A463146204656
:1065E00000F00EFA26B13268A24201D1C6F800804E
:1065F0006A054FF0020418D50023D0EB030563EBC6
:1066000001025D1B934109DB0023D0EB030063EB28
:106610000101BDE8F08745F48065DEE700F0B0FEDB
:10662000046000204FF00041F3E7021E71F1000208
:10663000EFDA00F0A5FE04604FF0FF304108E8E714
:106640002DE9FE4F804681EA0300C00F0C46009002
:1066500021F0004123F00045B8EB0200A94105D22A
:106660004046214690461C460B46024623F0004019
:10667000104347D0270DC7F30A00C3F30A51029015
:10668000401A019040286BDAC3F3130040F4801BDA
:106690000098924620B10023D2EB030A63EB0B0B68
:1066A00001985946C0F140025046FFF7DAFE06460F
:1066B0000D4650465946019A00F08CF910EB08003F
:1066C0006141002487EA115284EAE7731A4340D0FB
:1066D000009A62B3019A012A4FEA075215DC001BA7
:1066E00061EB02014FF0004202EA0752CDE900429D
:1066F000001C41F5801132462B4600F0F1F903B041
:10670000BDE8F08F40462146F9E7001B61EB02012E
:10671000001C41F5801300185B412018A2F50017FA
:1067200047EB030140EAD570B6196D4111E06D08E1
:106730004FEA360645EAC0754FEA0752001B61EB87
:106740000201001C41F5801149084FEA3000001990
:10675000514132462B4603B0BDE8F04F00F0B1B9CD
:106760000098012240000023D0EB020263EBE073AB
:10677000009821464FEAE074B8EB000061EB040199
:10678000E9E783F000435BE781F0004158E72DE93A
:10679000FE4F81EA030404F0004421F0004100941C
:1067A0004FF0000B23F0004350EA01045ED052EAA0
:1067B00003045BD0C3F30A54C1F30A552C44A4F27A
:1067C000F3340194A0FB0254C1F3130141F480118E
:1067D000C3F3130343F4801301FB024400FB034E95
:1067E000840A970A44EA815447EA8357A4FB07685E
:1067F00002958D0A05FB07854FEA932C04FB0C5488
:106800002705029D4FEA065847EA1637B5EB0805FB
:106810006EEB070C870E920E47EA811742EA83124D
:10682000A7FB0201B6EB0B0164EB00042B0D43EA5E
:106830000C335E1844EB1C50DA465146E7FB02016C
:10684000C5F313044FEA0B3343EA14534FEA0432FF
:10685000019C43EA0603A4F10C040294009CCDE9D8
:1068600000B400F03DF903B0BDE8F08F0020014610
:10687000F9E72DE9F04D81EA030404F0004B21F023
:10688000004514464FF0000A23F0004150EA05028B
:1068900020D054EA01021DD0C5F30A570246C5F3C1
:1068A0001303C1F31300C1F30A5640F4801543F4F7
:1068B0008013A7EB0608101BD64608F2FD3873EBD1
:1068C000050002D308F1010801E092185B41B8F11C
:1068D000000F03DA00200146BDE8F08D00204FF4E0
:1068E0008011064684460EE0171B73EB050705D39F
:1068F000121B63EB050306434CEA010C49084FEAFF
:10690000300092185B4150EA0107EDD152EA0300D2
:1069100012D082EA040083EA0501084305D0101B67
:10692000AB4106D20122002306E000224FF00043D3
:1069300002E06FF0010253101AEB06004CEB085115
:1069400010EB0A0041EB0B01BDE8F04D00F0B9B8C7
:10695000C1F30A52C1F3130140F2FF3341F4801135
:106960009A4202DA00200146704740F233439A42CD
:10697000A2F2334202DC5242FFF70ABEFFF771BDBA
:1069800030B5041E71F1000404DB4FF000444042B6
:1069900064EB0101141E73F1000405DB1C464FF08B
:1069A0000043524263EB0403994208BF904230BD5A
:1069B000064C074D06E0E06840F0010394E807004C
:1069C00098471034AC42F6D3FFF71EFCF84A030098
:1069D000184B0300202A06DBCB17203A41FA02F0BD
:1069E00043EAE07306E041FA02F3D040C2F120022C
:1069F000914008431946704700487047DC4A03003D
:106A00002DE9F74F4FF00009009C1546CA4614F8CF
:106A1000010B302801D0ADB115E014F8010B4FF097
:106A20000109782803D0582801D04DB10BE00DB1F1
:106A3000102D08D14FF00009102514F8010B02E0C9
:106A4000082500E00A2500273E46B8464FEAE57BC8
:106A500016E0A5FB07230BFB073105FB080005FB30
:106A60000616030CD71846F100061FFA80F8381EE8
:106A70004FF0010976F5803000D3CA4614F8010BB7
:106A8000294600F07BF80028E3DA019838B1B9F123
:106A9000000F01D0641E00E0009C01980460BAF170
:106AA000000F08D000F06CFC02210160C81E0146F6
:106AB00003B0BDE8F08F310441EA174148EA0740CE
:106AC000F6E710B5141E73F1000408DA401C41F11A
:106AD000000192185B411A4301D120F0010010BD62
:106AE0002DE9F04D92469B4611B1B1FA81F202E0D8
:106AF000B0FA80F220329046FFF7B3FC04460F460E
:106B000040EA0A0041EA0B0153465A46084313D0B3
:106B1000114653EA010019D0C8F140025046FFF770
:106B200037FD05460E46504659464246FFF799FC4A
:106B3000084305D0012004E020463946BDE8F08D29
:106B40000020054346EAE0762C4337430A98630564
:106B5000E40AA0EB08000022FD0A44EA47540A3088
:106B600002D500200146E9E7010510196941DDE978
:106B7000084500196941BDE8F04DA2E73A2800D266
:106B8000303820F02002412A01D3A2F13700884298
:106B900001D34FF0FF30704770B58C1810F8015BCF
:106BA00015F0070301D110F8013B2A1106D110F8A6
:106BB000012B03E010F8016B01F8016B5B1EF9D1AA
:106BC0002B0705D40023521E0DD401F8013BFAE730
:106BD00010F8013BCB1A921C03E013F8015B01F89B
:106BE000015B521EF9D5A142D8D3002070BD000030
:106BF0002DE9F04700268AB0DFF85091B0464FF4F7
:106C00008075012437460696284606F04DF938B1BE
:106C1000D9F80403204203D0284606F03BF9264366
:106C20002D1D64007F1CADB2082FEDD34FF4BE7450
:106C3000204606F039F948B1204606F02BF946F017
:106C4000004606AA0121002006F010F9404D16F07A
:106C5000FF0F15D00127002437420DD009EB840126
:106C6000D1F81005D1F81015C0F3042055F82420F0
:106C7000C1F3014102B190477F00641C082CEBD3A3
:106C8000002E5FDA4FF0FF30CDF8108054E0281965
:106C900010F8507F90F9000027F0C008401C3BD04E
:106CA00007A9404605F021FC10B34FEA971940466A
:106CB00002F062FD55F820701FB1B9F1030F03D047
:106CC00006E0B9F1030F27D104A9404605F015FCF1
:106CD0004FF0A04101EB8800D0F8000706A9C0F3EF
:106CE000014A404605F001FC18B1BAF1020F03D089
:106CF00012E0BAF1030F0FD1B9F1030F08D1BAF1C5
:106D0000020F1DD00221404606F093F8761CF6B221
:106D100017B149464046B847641C042CB7D3002E2F
:106D200010D06A460121002006F0A0F806990098CC
:106D3000884207D006900498002634460790A6E7BC
:106D40000321E0E70AB0BDE8F087000000600040E2
:106D50003443002000F01F020121914040098000CF
:106D600000F1E020C0F88012704700F01F020121FE
:106D700091404009800000F1E020C0F80011704708
:106D800000F01F02012191404009800000F1E02045
:106D9000C0F8001270474907090E002806DA00F013
:106DA0000F0000F1E02080F8141D704700F1E02092
:106DB00080F800147047000007480021C0F8401117
:106DC000C0F84411C0F84811C0F84C11C0F80011C7
:106DD000C0F8041107F072BB001001400C490020FC
:106DE000C1F84001C1F84401C1F84801C1F84C01A3
:106DF000C1F80001C1F8040106490A78082A04D341
:106E000008704868401C48607047521C0A70704700
:106E100000400240E03A0020F8B50D4B064614460B
:106E200018780D4608B900F0DBF900208DF8000055
:106E3000684601F0B5F922462946304600F00AF8C6
:106E400004469DF8000001F0CFF92046F8BD00008F
:106E5000784B002070B50E46144900EB400001EB62
:106E6000C0051446E86A183520B101280FD0022861
:106E700005D113E0284600F0E7F9A04201D2002432
:106E800011E022463146284600F016FA0BE028466B
:106E900000F0DAF9A042F4D20446F2E7314628467F
:106EA00000F0DDF90446204670BD0000784B00205C
:106EB00007F052BA06F088B9F0B5B5480023021DB4
:106EC0000178101D01254FF0805406290BD116784A
:106ED000360708D10678C6F30316032E06D0042E13
:106EE00004D0052E02D0062907D00EE0B4F82463A2
:106EF000A84FC6F304263E6002E01678360704D198
:106F00000678C6F30316032E02D0062904D00FE03C
:106F1000A24FA14E7E670EE01678360708D106789C
:106F2000C6F30316032E06D0042E04D0052E02D07D
:106F3000062907D00EE0D4F84462994FC6F34236D2
:106F40003E6002E01678360704D10678C6F30316D1
:106F5000032E02D0062906D011E0924E376827F0A2
:106F6000807737600EE01678360708D10678C6F3CA
:106F70000316032E06D0042E04D0052E02D00629B7
:106F80000AD011E04FF08046C6F80C31C6F8103137
:106F9000834E361F336002E01678360704D1067838
:106FA000C6F30316032E02D0062905D00CE07C4F51
:106FB000032664373E600AE01678360704D1067867
:106FC000C6F30316032E02D006290DD014E0764F27
:106FD00005263E60744E78363560734E0836336051
:106FE0003F263F1D3E6002E01678360704D1067842
:106FF000C6F30316052E02D0062957D062E06B4E69
:1070000036686B4F3E60694E361D36683F1D3E60E8
:10701000664E083636683F1D3E60644E0C36366854
:107020003F1D3E60614E103636683F1D3E605F4E2C
:10703000143636683F1D3E605C4E183636685C4F2D
:1070400020373E60594E1C3636683F1D3E60574E15
:10705000203636683F1D3E60544E243636683F1D4C
:107060003E60524E283636683F1D3E604F4E2C36ED
:1070700036683F1D3E604D4E303636684C4F4037C7
:107080003E604A4E343636683F1D3E60474E3836C5
:1070900036683F1D3E60454E3C3636683F1D3E60BB
:1070A000424E403636683F1D3E6002E01678360795
:1070B00008D10678C6F30316032E06D0042E04D09A
:1070C000052E02D0062907D019E0D4F85812394A03
:1070D00001F04F01116002E0117809070FD100782B
:1070E000C0F30310032803D0042801D0052806D1DB
:1070F00031480168C90702D06FF001010160D4F87E
:107100003001062808D1D4F83401062804D12B48D0
:10711000016841F48061016022487438016841F4DB
:1071200070010160BFF34F8FBFF36F8F4FF01021DD
:10713000D1F80002002803DBD1F80402002822DA8B
:107140001F4A15601F480468002CFCD01524C1F8A4
:1071500000420568002DFCD0C1F8044201680029F6
:10716000FCD0136001680029FCD0BFF34F8F0D489D
:10717000F0380168144A01F4E06111430160BFF383
:107180004F8F00BFFDE7124910480860F0BD0000B6
:10719000E00F00F0403501400DF0ADBA00C00740EF
:1071A0003C050040FCED00E01056004004040010D7
:1071B00020C50040E40E0040000400403C170040A1
:1071C00004E5014000E401400400FA050090D0030A
:1071D000043D00200148006800470000143B0020E7
:1071E00010B5124C02202061606111A0A06104F171
:1071F0007800E0614FF4806020620020A06260624D
:107200000BA1A164E06204F58F61E1641021A06527
:10721000C4E91410E06509A1E01DFFF78DF908A18C
:107220002046FFF789F92020A07110BD784B00207F
:107230005465726D696E616C000000005254540018
:1072400053454747455200000269C1688A4203D846
:107250008068401A104400E0501A401E70472DE923
:10726000F047C4681746894606464FF00008306963
:10727000A04201D9051B02E0B168201A0D1AB068BE
:107280006D1E001BA84200D80546BD4200D33D46F6
:1072900070682A4620444946FFF704F9B0687F1B0E
:1072A0002C44A844A944A04200D10024F460002F3B
:1072B000DDD14046BDE8F0872DE9F041044688461F
:1072C000D4E90207C51BE168606816460844B54268
:1072D00006D94146FFF7E6F8B819E060BDE8F0814D
:1072E0002A464146FFF7DEF8761B08EB05013246D9
:1072F0006068FFF7D7F8E660F0E700000FB41CB550
:107300000246002007AC00290BD0491ECDE9002120
:10731000054B6A462146069800F01AF9009A0021AA
:1073200011701CBC5DF814FB7F7C02000FB4084B8D
:1073300010B504A902AA039800F00AF9044602A9AC
:10734000002000F0A7FC204610BC5DF814FB0000F4
:10735000957C02007CB5044600201D461646002997
:107360000BD0491ECDE90041044B6A462946304600
:1073700000F0EEF8009A002111707CBD7F7C0200C5
:10738000004870470C3D002002E008C8121F08C1E9
:10739000002AFAD170477047002001E001C1121F96
:1073A000002AFBD1704700000121202803DA814028
:1073B0000548014003E0402802DA2038814009B145
:1073C0000120704700207047FC06FFBD2DE9FF5FDC
:1073D00082B00021DDE90430020DDDF840B0034346
:1073E00018D044F61050A2F2FF32424315141198FF
:1073F00001281FD0A5EB0B00401C5FEA000A4FF0EC
:1074000000064E4FDFF83891B046504615D5CAF108
:10741000000413E0119801244AA3012801D16FEA66
:107420000B010298119AC0E90031C0E9024206B08E
:10743000BDE8F09FCBF10000DFE704460021404AA1
:10744000491842EB0450CDE9001012E0E00707D0E4
:1074500032463B4640464946FFF799F98046894601
:1074600032463B4610461946FFF791F906460F464D
:107470006410002CEAD1DDE90401DDE90023BAF152
:10748000000F06DAFFF783F942464B46FFF77FF914
:1074900005E0FFF7EEF942464B46FFF7EAF90446EE
:1074A0000E460022284BFFF76BFA03D84FF0FF304F
:1074B000014607E00022254B20463146FFF7C0F881
:1074C000FFF746FA102409E0002C0ADB0A22002309
:1074D000FEF796FF039B30321A55641E50EA0102F4
:1074E000F2D1641C039AC4F111031444119A012AC5
:1074F00003D0012208430DD10AE0084304D0002044
:107500004FF0110B119072E7A3EB0B056D1E0DE010
:107510005B4504DD4FF0000205F1010504E003DAEC
:107520004FF00002A5F10105002AECD00298119954
:10753000C0E90231C0E9004579E7000000001440CD
:107540000000F03F300000000000F0430000E03F8A
:107550002DE9FF4F95B09B468946064600250FE270
:10756000252877D100242746F84A0121059400E018
:10757000044316F8013F203B01FA03F01042F7D113
:1075800030782A2811D06FF02F033078A0F1300224
:10759000092A16D8059A44F0020402EB820203EB92
:1075A00042021044761C0590EFE759F8042B05922F
:1075B000002A03DA504244F40054059044F00204D7
:1075C000761C30782E2816D116F8010F44F00404EA
:1075D0002A280DD06FF02F023078A0F13003092B4C
:1075E00009D807EB870302EB4303C718761CF3E7C0
:1075F00059F8047B761C30786C280FD006DC4C28B8
:1076000017D068280DD06A2814D104E0742810D04F
:107610007A280FD10DE044F400140AE044F48014F9
:1076200001E044F440147278824202D104F58014DF
:10763000761C761C307866280BD013DC582877D05F
:1076400009DC002875D04528F6D04628F4D0472814
:107650001AD19DE118E0632835D0642879D06528D7
:1076600012D195E1702873D008DC6728F1D0692821
:107670006FD06E280DD06F2806D1B5E073282CD0BE
:10768000752875D0782874D05A46179990476D1C84
:1076900075E1C4F30250022809D003280DD0D9F8AF
:1076A000001004280DD00D6009F1040967E1D9F834
:1076B0000010EA17C1E90052F6E7D9F800100D8072
:1076C000F2E70D70F0E719F8041B8DF800100020A8
:1076D0008DF80100EA46012003E059F804AB4FF0B1
:1076E000FF3061074FF0000102D40DE008F1010105
:1076F0008846B9420FDA8045F8DB1AF808100029ED
:10770000F4D108E008F1010188468142FADB1AF859
:1077100008100029F6D105985B46A0EB0807214622
:107720003846179A00F094FA284400EB080507E061
:107730004DE029E10DE01AF8010B5A4617999047E0
:10774000B8F10108F7D25B4621463846179A13E193
:1077500042E00A220092C4F302524FF0000A022AC9
:1077600008D059F804CB032A4FEAEC710AD00DE097
:1077700029E02AE009F1070121F00702F2E802C13D
:10778000914609E00FFA8CFC4FEAEC71042A03D110
:107790004FFA8CFC4FEAEC71002907DA0A46002107
:1077A000DCF1000C61EB02012D2202E0220504D580
:1077B0002B228DF80420012203E0E20701D02022D1
:1077C000F7E7904659E00A2102E010220DE010216F
:1077D0004FF0000A00910BE010224FF0000A44F035
:1077E00004040827009203E008224FF0000A0092E8
:1077F000C4F30252022A05D059F804CB0021032A0F
:1078000008D009E009F1070121F00702F2E802C1FE
:10781000914605E01FFA8CFC042A01D10CF0FF0C04
:107820004FF00008220728D5702806D0009B83F06F
:10783000100353EA0A0305D00EE040228DF804201D
:10784000012208E05CEA010206D030228DF8042013
:107850008DF8050002229046009B83F0080353EA4E
:107860000A030AD15CEA010201D1620705D5302280
:107870008DF804204FF001087F1E582804D034A052
:1078800003900EA802900DE036A0F9E7534660463B
:10789000009AFEF7B5FD84460398825C0298401E6C
:1078A000029002705CEA0100F0D1029806A9081A61
:1078B00000F1200A600702D524F4803400E001279B
:1078C000574502DDA7EB0A0000E0002000EB0A01AB
:1078D000009005984144401A0590E00306D45B46A9
:1078E0002146179A059800F0B3F90544002706E0F1
:1078F00001A85A46C05D179990476D1C7F1C4745EB
:10790000F6DBE0030CD55B462146179A059800F09C
:107910009FF9054404E030205A46179990476D1CA2
:107920000099481E00900029F5DC08E002980299B1
:107930005A460078491C0291179990476D1CBAF17C
:107940000001AAF1010AF1DC65E10000092801004B
:1079500030313233343536373839616263646566C5
:107960000000000030313233343536373839414287
:10797000434445460000000000F058F90544761CD9
:10798000307800287FF4ECAD19B02846BDE8F08FC0
:10799000620700D4062709F1070222F0070CFCE871
:1079A0000223E14603F000485FEA080C02D00FF220
:1079B000702C0DE05FEA045C02D50FF2682C07E042
:1079C0005FEAC47C02D00FF2602C01E0AFF2700CD1
:1079D0004FF0FF3823F00043CDF850C065280CD09D
:1079E00006DC452809D046281DD047283DD13DE07A
:1079F000662818D067287ED138E00021112F01DBDE
:107A0000112000E0781CCDE9000106A90EA8FFF7BF
:107A1000DDFCDDE90F010E9A03910021009207F1D0
:107A2000010A04914DE04FF000400097CDE90110AC
:107A300006A90EA8FFF7CAFCDDE90F0203920E9B10
:107A400011990022DDF80CA00093049211B9791C61
:107A500000EB010AB7EB0A0004D4C0F1FF3007F1D4
:107A6000010A0490AAEB0700019044E0012F00DA1C
:107A700001270021112F01DD112000E03846CDE95A
:107A8000000106A90EA8FFF7A1FCDDE90F010E9A7F
:107A90000391002104910092BA4621070CD4039966
:107AA000514500DA8A46BAF1010F05DD009AAAF1C4
:107AB0000101515C302908D0B84202DA10F1040FFC
:107AC00006DA0121CDE9011015E0AAF10101E9E78B
:107AD000002805DC049901440491AAEB000102E0AE
:107AE000411C514500DD8A460499401A401C019012
:107AF0004FF000400290200704D40198504501DB6C
:107B0000CDF8048000208DF84F0002980DF14F074A
:107B1000B0F1004F25D02B200E9002984FF00208B4
:107B200000280CDA404202902D200E9007E00A2136
:107B30000298FEF717FD3031029007F8011DB8F1E9
:107B40000001A8F10108F2DC02980028EFD1791EAB
:107B50000E980870307800F0200040F0450007F8DB
:107B6000020D12A8C01B00F107081498007800B19C
:107B7000012000EB0A01019801EBE07105984144F6
:107B8000401A401E0590E00306D45B462146179A32
:107B9000059800F05DF805441498007818B15A462D
:107BA000179990476D1CE00324D55B462146179A30
:107BB000059800F04DF805441CE00498002807DB08
:107BC000DDE90301884203DD0098405C179901E07C
:107BD000179930205A469047049805F10105401C3A
:107BE00004900198401E019004D12E205A46179906
:107BF00090476D1CBAF10001AAF1010ADDDC05E035
:107C000017F8010B5A46179990476D1CB8F10001FF
:107C1000A8F10108F4DC5B462146179A0598ABE60B
:107C20002D0000002B000000200000002DE9F04195
:107C3000044600251E461746880404D405E039464C
:107C40002020B0476D1C641EF9D52846BDE8F081A0
:107C50002DE9F041044600251E469046C80301D593
:107C6000302700E02027880404D505E04146384647
:107C7000B0476D1C641EF9D52846BDE8F0814A68FE
:107C8000002A06D00A68531C0B6010704868401E1A
:107C9000486070470A68531C0B601070704780077B
:107CA00001D00020704701207047C3688B4206D87E
:107CB00011440069491E814201D80120704700200B
:107CC000704710B501220221002001F0B1FB08B17C
:107CD000072810D107220221012001F0A9FB08B1D9
:107CE000072808D100210A22084601F0A1FB08B1AB
:107CF000072800D1002010BD00B5C9B018213AA84E
:107D0000FEF7E9FBAC216846FEF7E5FB204A03924B
:107D100000214AF201228DF802100620ADF8002160
:107D20008DF8030046AA429201200922ADF80421F1
:107D30008DF82C00ADF8080040AA8DF87C000A925E
:107D4000A020CDE922011348299002208DF83C00A3
:107D50003C212BA8FEF7BFFB4FF4FA60ADF80C01F5
:107D60001620ADF810013AA8459043A8189069462E
:107D7000094800F043FC20B1084A40F2DF21FEF739
:107D800049FA0121044800F035FC49B000BD00006B
:107D9000B43A002055DA0200583F0020A0AD02009E
:107DA000022001F03DBA000070B50024064D06E047
:107DB0006868012110F8340005F0B8FA641C2878CE
:107DC0008442F5D3002070BD203B0020F8B5154655
:107DD0000C460646052A01D20720F8BD05F0A2FB95
:107DE00018B905F067FB0028F7D1124900224E6050
:107DF0000C708D60C1E90422C1E906220E4D0DE030
:107E000006EBC4002968009181788DF80110007894
:107E10000A4A694605F0DCFA0028DED1641EE4B2A5
:107E2000EED2BDE8F84004480021054A001D00F0EC
:107E30006FB80000203B00203025030029A9020074
:107E4000459C020030B472B6034B1B68DB0700D0C0
:107E500000BE30BC00F002B8F0ED00E008B5012330
:107E60008DF800309DF80030144B186059609A600E
:107E70006FF48041401807D001280FD1DA60D8682C
:107E800000889861D86807E01A61186980685861AD
:107E900018690068986118694068D861186858685E
:107EA0009868D868186958699869D86972B600BF27
:107EB0009DF800000028FBD162B608BD00440020F8
:107EC00010B58268C368934203D002F0A2FB002081
:107ED00010BD052010BD29B112B1531E134203D0AD
:107EE000092070470E207047016083800021816067
:107EF000C1600846704710B58268C3689A1A8388C3
:107F00009A4203D802F08FFB002010BD042010BD60
:107F1000084B9B7823B12AB120B10068037C1BB1C8
:107F200008207047072070470023037441744261A2
:107F3000184670472044002070B506F009F8104834
:107F400000240B21047044700E4D817014206C606D
:107F50002C706C70FEF7FEFE07211420FEF71BFF4D
:107F60001420FEF702FF0848046007211120FEF7E5
:107F700012FF0548001F0068A860002070BD0000C7
:107F800020440020403B0020081501402DE9FC471B
:107F9000DFF8789099F8023073B368B3052902D2FC
:107FA0000720BDE8FC87436933B3437C012B25D010
:107FB000002704460025884616468DF8005068467E
:107FC00000F0EEF801A80AF065F9C8B101210170CE
:107FD0000F4944600968C0E90218C0E904769DF8B9
:107FE000040089F801009DF8000000F0FDF814205D
:107FF000FEF7C6FE2846D4E70820D2E70F46D8E7AA
:1080000004259DF8000000F0EFF8F3E7204400207D
:10801000041501400649897839B130B1416921B16F
:1080200000210174022106F025BA082070470000E3
:108030002044002070B50B4E01460B48B578FFF781
:108040003FFF04465DB10020B070711C0122C81DC5
:1080500004F07CFC18B105A2CE21FEF7DBF8204627
:1080600070BD0000543B00202C4500202E2E5C2EBD
:108070002E5C2E2E5C2E2E5C2E2E5C2E2E5C636FC4
:108080006D706F6E656E74735C6C6962726172693B
:1080900065735C756172745C6170705F7561727438
:1080A0005F6669666F2E6300F0B5244E89B01F4687
:1080B0000D00044672603FD0A888296882B220482B
:1080C000FFF709FF002835D1A889A96882B21C48AA
:1080D0001030FFF700FF00282CD1202219496846F4
:1080E000FEF7E0F960690690207C00B101208DF870
:1080F00014008DF81C70607C00B10E208DF8150006
:10810000E0680290A0680390206801906068009089
:108110000A480D4A6946083004F0E4FB002809D1FA
:10812000B0702068401C05D004490122491CC81DBC
:1081300004F00CFC09B0F0BD0720FBE7543B002025
:108140002C45002048250300C11D030010B5014641
:108150001048FFF7D0FE040019D10F480F4A0178EC
:10816000515C19B1001D05F05FFC02E00C3005F018
:1081700043FB60B9084907480839FFF7A1FE30B949
:10818000054901220839044804F0F0FB0446204662
:1081900010BD00003C4500205C3B0020083B002057
:1081A00030B5EFF3108172B60D4A9468012324B103
:1081B0000370002900D162B630BD93604FF0E02318
:1081C000D3F88051074C25401560C3F88041D3F89F
:1081D000844154605A17C3F8842100220270E8E7F2
:1081E0004C450020FC06FFBD0B498A68002A11D0CF
:1081F00000280FD1EFF3108072B60B684FF0E02229
:10820000C2F800314B68C2F8043100228A600028AD
:1082100000D162B6704700004C4500204FF4C87191
:10822000B0FBF1F201FB120149B16421B0FBF1F2A4
:1082300001FB120109B1800701D000207047012025
:108240007047000010B540B10C2806D8022804D0B1
:108250000549084410F8010C10BD0846FFF7DEFF81
:108260001C30C0B210BD0000954903002DE9F0415B
:10827000064608680C46411C4FF0A0474FF0010528
:1082800006D005FA00F1C7F80815206804F0BDFD16
:108290006068411C02D0002104F0A5FD3168A0698E
:1082A000C1F82405607D227D31681043C1F86C055A
:1082B000D4E900123068C0F81425C0F80C15207DF0
:1082C000012815D1A068411C02D0002104F08BFDCB
:1082D000E068411C05D08540C7F80855E06804F007
:1082E00094FDD4E902123068C0F80825C0F81015D2
:1082F000BDE8F0812DE9F041064608680C46411CB6
:108300004FF0A0474FF0010506D005FA00F1C7F87D
:108310000815206804F083FD6068411C02D000212C
:1083200004F06AFD3168A069C1F82405607D217DF3
:1083300032680843C2F86C05D4E900123068C0F80E
:108340000C15C0F81425207D012815D1A068411C0A
:1083500002D0002104F050FDE068411C05D08540AA
:10836000C7F80855E06804F05AFDD4E902123068F5
:10837000C0F80825C0F81015BDE8F08170B50446B6
:1083800000680D46401C14D00022DC21201D07F09F
:1083900087F92168814201D1012070BD002250215E
:1083A000201D07F07DF92168814202D1012028704B
:1083B000F2E7002070BD70B51500044609D000201A
:1083C000286034B1206820B1A079800703D007204D
:1083D00070BD0E2070BD084600F03CFBC0B21428F2
:1083E00004D02179814203D8042070BD052070BDDE
:1083F000E288216800FB02102860002070BD2DE992
:10840000FC47002517880646158090F82D00144675
:10841000894630B13A462146484600F095FB051E94
:1084200009D1B0784FF00C0A18B32088C846001D57
:10843000B84202D95046BDE8FC87684679DF00287B
:10844000F9D12088032108F8001020881921401C48
:1084500080B2208008F800102088401C80B2208064
:1084600000EB0801BDF8000009F066FE2188084411
:108470002080F0780222C8B1218896F9033001F1FA
:10848000030C4846BC45D5D8425421884FF0010C16
:10849000491C89B2218000F801C02188491C89B299
:1084A000218009F801302088401C20807068B8B114
:1084B000218890F9003001F1030C4846BC45B9D839
:1084C000425421880A22491C89B2218042542188C1
:1084D000491C89B2218009F801302088401C208085
:1084E000308950B1CDE900474B460622022106F102
:1084F000080009F0E7FE051E9DD1308A50B1CDE994
:1085000000474B460722032106F1100009F0DAFE6E
:10851000051E90D1308B50B1CDE900474B46152256
:10852000142106F1180009F0CDFE051E83D1306A32
:1085300030B13B462246494601F063FA051EDBD1C5
:10854000706A30B13B462246494602F03FFC051EA8
:10855000D2D196F82C0038B13B46224649463046E7
:1085600005F08AFD051EC7D1307838B13B4622465A
:108570004946304603F08AFE051EBDD128465AE71B
:1085800018B504460020ADF8000013466A462046A0
:1085900000F006F8002802D0BDF80000204418BD05
:1085A00070B588B182B10024158803E0065D641CB3
:1085B0003444A4B2A54203D8061976789E4201D06D
:1085C0008C42F3D38C4201D3002070BDA11C1180DA
:1085D000005D401E80B270BD10B52AB11EC900F505
:1085E0000D7C8CE81E0061460022C0F84412543015
:1085F00072DF10BD80F83010704700002DE9F047A1
:108600000D00044606D02CB195F87A00002601280A
:1086100003D006E00E20BDE8F08795F89800012809
:1086200029D0D5F8A000042825D0D5F89C0004282E
:1086300021D04FF00109A6702C2205F17801201DF0
:10864000FDF730FF84F83060D5F8A4006063D5F8FA
:10865000A800A0634FF6FF70A4F8480204F50D705F
:10866000C4F84402C4F84A62A4F84E6284F8506226
:10867000207810B104E00720CDE7FF2084F85400F3
:1086800004F15501C4F8341294F82400EE274FF099
:108690001F0801281FD0A4F8388200BF04F50E720D
:1086A0002846FFF7ACFE0028B5D115F13C0F18D0D5
:1086B00004F24311C4F83C1294F8240001280DD0B0
:1086C000A4F8408204F5107205F13C00FFF797FE14
:1086D0000028A0D109E0A4F83872DFE7A4F84072BE
:1086E000F0E7C4F83C62A4F8406284F85190208B13
:1086F000A4F8480084F83C90266484F850606069CF
:1087000060644D4604F13C02002104F1540072DF24
:10871000002880D125707EE710B50288102A1BD072
:10872000112A20D0262A1DD1007A0C46012801D01A
:10873000022817D1A0780521401CB0FBF1F201FB03
:108740001201204600F03BF800280BD0A16B002955
:1087500008D0BDE810400847C27B012A02D18088BA
:10876000A1F8480210BD0C46002184F852128088FE
:10877000B4F848128842F5D120790028F2D10121BD
:10878000DFE7704710B5044690F8540074DF01200D
:1087900084F85202002084F8540284F85000062124
:1087A000204601F099FF002808D1A178204600F06A
:1087B00006F810B1A16B01B18847002010BD2DE96A
:1087C000F05F044600780F4698B1A7700025C4F802
:1087D0004A52A4F84E5284F85052A079012608B1AA
:1087E000012F09D0E07980B1012F05D0022F03D0ED
:1087F0000BE00820BDE8F09F616B21B184F8516265
:108800000820884701E084F8515204F24B210020EF
:108810000A5C0AB1304603E0401C0628F8D3002069
:108820004FF002084FF0030B012F06D0022F0CD09F
:10883000032F0FD0042F15D110E0A17929B194F89E
:10884000241011B908B130460DE0E17911B108B139
:10885000404608E0207A08B1584604E0607A08B142
:10886000042000E02846A070616B41B1032801D0CC
:10887000042804D1607910B194F85202A0B184F8B0
:10888000535204F13C0018210746FDF724FE04F181
:108890002C0084F83C60814605F018FA58B194F831
:1088A0002C0084F8510008E084F8545284F8536294
:1088B00007208847E5E784F8516094F8240050B118
:1088C000484605F003FA20B194F8280084F85200D5
:1088D00001E084F8526084F85050A27804F24A21F2
:1088E00004F50D794FF0060A052A62D2DFE802F09E
:1088F0007A030F22410084F83160C4F84452C4E97D
:10890000101584F83C808020A4F8480053E084F8D7
:10891000318094F82420384612B10722027001E019
:1089200080F800B0228A8281C4F844524160E16834
:10893000B96040E06069B860208BB88194F8240089
:108940003D4610B184F83CA001E084F83C6020462C
:1089500009F082FC50B185F814800421204601F012
:10896000BBFE30BB052184F8311020E084F831B023
:108970001DE0E069B860208CB88194F824003D4681
:1089800010B184F83CA001E084F83C60204609F076
:1089900063FC48B185F814800421204601F09CFE58
:1089A00038B984F831A002E0042084F83100C4F81A
:1089B0004492A07878B13A4604F15400D4F84412B5
:1089C00072DF00287FF416AF94F8301094F854004A
:1089D00073DF0028F6D1616B11B194F8310088473C
:1089E000002007E784F83150F5E7000070B5040077
:1089F00012D001461C221448FDF754FD1248134DB5
:108A00000560206850B17ADF002806D1206801682F
:108A100029604068686005E00E2070BD0B487BDF70
:108A20000028FAD108484FF6FF711438084A20F898
:108A3000041B0549343901600021FFF769FA002859
:108A4000EBD0032070BD0000A0420020003B0020BE
:108A5000F121030010B5044600F006F808B12046E5
:108A600010BD142010BD0000142801D30020704751
:108A70000146014803F0AFBCC04200202DE9F0419F
:108A8000CAB201462E4805F056FD2D4C06004FF0A7
:108A90000005A4F114040BD0032E09D065602560F5
:108AA000A06810B107F05EFAA5600120BDE8F08172
:108AB0002348244F8079012816D1A06810B107F00F
:108AC00051FAA5601E4801F029FF6060B0F5806F83
:108AD0002BD850B380B2256008F0EAF8A06018B334
:108AE0006168FDF7F8FCFD61154801F01BFFF969AD
:108AF0000844616888421BD8A068B0B1104801F0F2
:108B000011FF80460E4801F00BFF0146A068FA698C
:108B100010444246FDF7C6FC094801F003FFF9691D
:108B20000844F86120603EB104E06560256001E022
:108B300005F030FF0220B9E70020FD61B6E7000034
:108B4000E8740020B83C00207CB5054608880C4637
:108B50000930904201D90C207CBD68466DDF0028A9
:108B6000FAD121880820685420881B21401C80B23B
:108B7000208029542088401C80B220802844DDF8C1
:108B800001100160BDF8051081802088801D80B231
:108B900020809DF80010490800D001212954208828
:108BA000401C208000207CBD08480088A0F57F4143
:108BB000FF390AD0132176DF082806D0002804D018
:108BC00003A24FF4FE71FDF725BB7047B03A0020B9
:108BD0002E2E5C2E2E5C2E2E5C6D61696E2E630037
:108BE00038B5334D044601882888212940D00FDC50
:108BF00010291FD0112933D0132938D100231A4648
:108C000085217FDF002832D02AA24FF4D0710DE0F9
:108C10003B2944D0522938D0562928D1A088132185
:108C200076DF002823D023A24FF4DA71BDE8384064
:108C3000FDF7F0BA06F006FD072000F01BFC20B19E
:108C40001CA24FF4BF71FDF7E5FAA18829801D48E9
:108C500003F032FD00280AD016A240F28111E5E7A8
:108C600006F020FF08F0C6FF4FF6FF70288038BDE1
:108C700000200090A08869468FDF0028F7D00DA261
:108C800040F29911FDF7C6FA38BD00231A4619467D
:108C9000B1DF0028F8D007A24FF4D371C6E7A0884F
:108CA000132176DF0028EFD002A240F2AD11BDE71C
:108CB000B03A00202E2E5C2E2E5C2E2E5C6D61694B
:108CC0006E2E63004C3F002010B51A4C018860687E
:108CD00010290ED011292BD1401E606028D1FEF73B
:108CE000F0FF002824D02168002921D0BDE81040E1
:108CF0000847D0B900210122084600F099FB08B1CD
:108D000007280FD107220221012000F091FB08B1B2
:108D1000072807D104220221002000F089FB20B19E
:108D2000072802D0216801B188476068401C606054
:108D300010BD0000F83A00202DE9F04701883B4EB5
:108D400040F2F3194FF6FF7510291BD011293ED0C0
:108D5000122954D0502946D1C188F289841D9142EC
:108D600041D1618902293ED18688304601F06AFEF0
:108D7000050038D004F10C0000F0ECF9A8B3294646
:108D800030464EE0C17B8788044601292BD1A84696
:108D9000284601F057FE050017D02F8000202872CA
:108DA000234843464A460168C5F80A104068C5F89A
:108DB0000E0004F1100105F10A0001F09DFE687239
:108DC000F08900280FD129462AE0042013E080888A
:108DD00001F038FE040006D06068FFF71BF908B107
:108DE00005F042F92580BDE8F087FFE76868FFF7E6
:108DF00011F90028F7D0BDE8F04705F035B98788AC
:108E00000646384601F01EFE0400ECD02B464A46CA
:108E100006F1080104F10A0001F06EFE60722146BD
:108E20003846BDE8F04700F041BE0000A0420020F7
:108E3000003B00202DE9F04F0746858802883E4818
:108E4000012197B08346102A09D0112A4BD01A2A43
:108E50006ED1387AB1EB101F47D2012246E0364C72
:108E6000083CA068C0430B9061680BA803F0D4FADB
:108E70000B990CA800F0A6FD2C220CA96846FDF762
:108E800011FB0026E946A04610E000BF09EB4600B2
:108E90005FF00004B0F804A008EB84005146001D08
:108EA00003F08EFA641C1D2CF6D3761C0098B04299
:108EB000ECD8142D07D317B0E321BDE8F04F1FA263
:108EC0000420FDF7A7B92946584603F08FFA294632
:108ED00008F1040003F08AFAF87B012828D016482C
:108EE0002946001D15E029461AE000220221B1EBB7
:108EF000101F01D2012600E000260F49083901F1B8
:108F00001000041D294682B103F070FA36B12946DB
:108F1000204617B0BDE8F04F03F068BA2946204656
:108F200017B0BDE8F04F03F04BBA03F049FAF5E78C
:108F300017B0BDE8F08F0000C44200202E2E5C2E3A
:108F40002E5C2E2E5C2E2E5C2E2E5C2E2E5C636FE5
:108F50006D706F6E656E74735C626C655C636F6D73
:108F60006D6F6E5C626C655F636F6E6E5F73746174
:108F700074652E630000000070B58AB0040059D0FB
:108F8000F1B308680125A0618DF8225041F6101058
:108F9000ADF82000A21C08A92846A8DF002847D168
:108FA00020216846FDF797FA42F61130ADF800002F
:108FB00020788DF802008DF80C509DF80D001426D5
:108FC000ADF8046040F00C008DF81150ADF806507B
:108FD0008DF80D008DF81250608804F10C0269467E
:108FE00000F0D2FB002823D120216846FDF773FA58
:108FF00042F61030ADF8000020788DF8020000E055
:1090000018E08DF80C509DF80D008DF81150ADF85A
:10901000046040F010008DF81250ADF806508DF845
:109020000D008DF813506088221D694600F0ACFBDE
:109030000AB070BD0E20FBE770B588B00446002969
:1090400024D0002C22D008462188102920D0502975
:1090500024D057291AD10546A188406906AAFFF7EE
:10906000AAF9002812D1069E307800280ED01821C7
:109070006846FDF730FA01208DF800000195A088C0
:10908000ADF808000396A9696846884708B070BD26
:1090900008B02146BDE8704004F014BD08B0214678
:1090A000BDE8704004F0D0BDF0B585B016460F465F
:1090B00004001D4614D004AA19466069FFF77BF925
:1090C00000280BD1A5F57F40FF380BD0049848B19C
:1090D000007848B13088142808D9072005B0F0BDC1
:1090E0000E20FBE70520F9E70820F7E700200090B5
:1090F000019002900390A088ADF8000001208DF847
:109100000200CDE9026769462846AEDFE6E70000C7
:1091100073B50B4C05460A48238801AA2946083036
:10912000FFF7C2FF08280AD01328F4D0052806D07C
:10913000002804D003A240F25A21FDF76BF87CBD51
:10914000B03A00202E2E5C2E2E5C2E2E5C6D6169B6
:109150006E2E6300007800F00100704708B503F040
:10916000F9FF20B10D4A40F2C711FDF753F8002076
:1091700000906946012003F025FF20B1074A40F224
:10918000CD11FDF747F8684603F060FF002804D0D2
:10919000024A40F2D111FDF73DF808BDA0AD020032
:1091A0000149085C70470000DA2403000649095CA5
:1091B0004FF0A040D0F81005C84010F0010000D0DA
:1091C000012080F001007047DA2403002DE9FC4102
:1091D0000646C0074FF000050ED0104F00240122B4
:1091E000385D009500231146019503F0B4FD641C21
:1091F000042CF4D300F046F8B0070DD5074E002438
:10920000361D0022305D032300951146019503F0C1
:10921000A2FD641C042CF4D3BDE8FC81D624030019
:1092200007490B5C4FF0A041D1F80425012098407C
:1092300020EA0203C1F808351040C1F80C05704758
:10924000D62403000249085C012103F003BE00009C
:10925000D62403000249085C002103F0FBBD000096
:10926000D62403000649095C4FF0A040D0F804055D
:10927000C84010F0010000D0012080F001007047CC
:10928000D624030010B500242046FFF7DBFF641C42
:10929000042CF9D310BD10B500242046FFF7DAFFE7
:1092A000641C042CF9D310BD10B50246064B4FF0D8
:1092B000FF3000215C5C944201D1084610BD491C7E
:1092C0000429F7D310BD0000DA24030070B50C4E5A
:1092D0000C004FF0000530600BD0012000F06AF860
:1092E00008B1022004E0002000F064F800B10B2077
:1092F0002070706810B9FEF7E4FC0546284670BD82
:10930000F83A002010B5002000F0EEF908B1062868
:1093100006D1012000F0E8F908B1062800D10020AC
:1093200010BD00002DE9F0470D468146FFF7BCFF58
:109330000446042836D2DFF874801B481C4EA8F17E
:109340000C0725B3012D0ED0022D2BD104EB4400C8
:1093500030444578002D25D0B968002922D0284610
:10936000BDE8F047084704EB4401755C0E44717892
:1093700049B10E4A4FF40041093A8068FEF706FEF3
:1093800008B987F80390B17808F80410E2E780681C
:10939000FEF740FE04EB4401314418F804008D78D8
:1093A000A842D7D0BDE8F087E0240300F43A0020BB
:1093B00040420020042801D2FFF7F8BE0020704789
:1093C0000146154810B50088042907D007290FD099
:1093D0000A291FD1BDE8104004F0F2BE132176DF48
:1093E000082817D0002815D00CA240F213210DE058
:1093F000A0F57F41FF390DD10C48FFF7C3F90828CC
:1094000008D0002806D005A240F21D21BDE810407A
:10941000FCF700BF10BD0000B03A00202E2E5C2EDD
:109420002E5C2E2E5C6D61696E2E6300583F00200D
:1094300070B50023042810D20D4D00EB4004012A22
:1094400002D101290CD00022094E00EB400030442B
:1094500061B1012906D0022906D00723184670BD44
:109460000E30C2B22A55F9E74270F7E78270F5E78D
:1094700040420020044A014600201279D20702D05F
:10948000084600F04DB87047E83A002070B506462F
:109490001E480024C0E90161B00720D50025012243
:1094A00011462846FFF7C4FF6D1C0446042D02D266
:1094B000002CF4D013E094B940F266620421144801
:1094C000FEF784FC04000AD1FEF76EFC040006D10E
:1094D0000F48104A0021001FFEF71AFD0446F0074E
:1094E00012D00120FFF772FE74B909480A4A002120
:1094F0000C38FEF70DFD040006D10548074A01218E
:109500000838FEF705FD0446204670BDE83A002005
:10951000EC2403000D9702006DAB0200A17D020058
:109520002DE9F05F6E4C054600266078B34618B111
:1095300084F801B001F002FB6A4F4FF47A694FF4EE
:10954000C87A4FF00108182D69D2DFE805F00C1336
:1095500013384754696E727B727BC584848484841B
:10956000B3B6B9BCC5C501F0E9FA3868FEF752FDDB
:1095700006465CE00020FFF775FE00284FF0000073
:1095800008D0FFF75FFE022D02D14FF4E16008E042
:10959000484606E0FFF75EFE022D01D1C82000E03C
:1095A0005046410CC0034FF4FA72801841F100019B
:1095B000257052000023FCF723FF01462AE000201B
:1095C000FFF750FE00284FF0000004D0FFF73AFEEE
:1095D0004FF44870E5E7FFF73DFEDFE70020FFF7B7
:1095E00041FE00284FF0000002D0FFF72BFECFE72E
:1095F000FFF730FED4E70020FFF734FE00284FF0DD
:10960000000002D0FFF71EFE01E0FFF723FE2570E9
:1096100041F69A1100223868FEF7B8FC064646E08B
:109620000020FFF7FDFD257008E0002051E02570C7
:109630003DE084F801800120FFF7F2FD002240F6B2
:10964000CD41E8E784F801800120FFF7E9FD002221
:109650004FF48041DFE77868FEF7DCFC0646D5F181
:10966000110000D02EB10220FFF7ECFD84F802B00B
:109670001DE0012816D980B2C8214843C117C9038B
:1096800041EA5041C0034FF4FA72801841F10001E1
:1096900052000023FCF7B4FE014600227868FEF772
:1096A00075FC06460220FFF7D5FD84F8028030469F
:1096B000BDE8F09F01F042FAB9E701F03FFAB4E7E4
:1096C00001F03CFA04E001F039FA0020FFF7C2FD96
:1096D0000120FFF7BFFDAAE7FFF7DDFDA7E70000C8
:1096E000E83A0020E0240300012108F073BE30B501
:1096F00004460120002306E0E55C954201D00020ED
:1097000030BD5B1C9BB28B42F6D330BD007802218A
:10971000FFF708BE05494FF0FF32082841F8202026
:1097200002D3084480F848207047000034430020EA
:10973000F0B54FF0FF3512B10023082601E00823F1
:109740000C260C4C05E000BF54F823707F1C04D09D
:109750005B1CB342F8D32846F0BD26185DB286F8EC
:10976000305044F82310002AF5D1E11881F8480060
:10977000F1E70000344300200249084490F930002A
:1097800070470000344300202DE9F043814688787B
:1097900091B090460C4600B901208DF83E0020881B
:1097A000ADF83C0000250095607C694604F0A8FCFB
:1097B0006E46A07C711C04F0A3FCE07B00289DF8A1
:1097C000020002D040F0080001E020F008008DF80F
:1097D0000200217C11B140F0100001E020F01000E7
:1097E0008DF80200217B11B140F0010001E020F072
:1097F00001008DF80200217D09B1022100E0012164
:1098000061F342008DF802001C2102A8FCF763FE00
:10981000607BC10601D4800617D50E950EAFE07CA3
:10982000791C04F06DFC9DF83800079720F00F00BC
:10983000401C20F0F00010308DF838009DF83A0000
:1098400020F00600801C8DF83A00607B8DF808003F
:10985000A07B8DF80900142109A8FCF73CFE0FA895
:10986000CDE90906A088ADF83000A06820B1E088F5
:10987000ADF82C00A0680D90A06998B30195008800
:10988000ADF81000A06901AD01A94088ADF8120043
:10989000A069406806950390A069007B04F030FC45
:1098A000A069691C407B04F02BFCA069807A002829
:1098B0009DF8060002D040F0080001E020F008000A
:1098C0008DF80600A169C97A11B140F0100001E0DD
:1098D00020F010008DF80600A169097A19B140F056
:1098E000010002E00DE020F001008DF80600A16902
:1098F000897B09B1022100E0012161F342008DF86A
:109900000600E06900B10590434609AA02A948464D
:10991000AADF11B0BDE8F0832DE9F05F2648416869
:10992000F1B3DFF898B00E688146DBF80040876835
:109930008078E11B21F07F45ED1CB0B9DFF8808015
:109940004FF48030C8F84403C8F804031120FDF731
:1099500001FA1120FDF709FA4FF0010AC8F800A03A
:109960002F2003F0DBFC89F802A0B54200D2354677
:10997000124BE8193C3320F07F401860DBF80010F0
:109980005A46091B21F07F41001B20F07F40C91C73
:1099900081420FD9106818602F2003F0BFFC00E04F
:1099A00004E0BDE8F05F1120FDF7EAB9BDE8F05F23
:1099B00004F0CEBABDE8F09F403B00200415014002
:1099C0000010014073B58CB00646002000900D9841
:1099D00080B100246D4621460DA802F0FCFC30B198
:1099E000009805EB400084800098401C0090641CA7
:1099F000142CF0D32C2269463046FCF753FD0EB0F0
:109A000070BD2DE9F04117880646B81D14460D4675
:109A1000984202D90C20BDE8F0813188072206293E
:109A20000AD34FF4486C4FF6FF73614501D9994250
:109A300002D17088062801D21046ECE7604501D9B2
:109A40009842F9D1994203D0984201D08142F3D88B
:109A50000520E85520881221401C80B2208029541E
:109A60002088401C80B220804119308808F064FBB7
:109A70002188084480B220804119708808F05CFB7E
:109A80002188084420800020C5E70000082804D071
:109A900002A24FF49271FCF7BDBB70472E2E5C2ED4
:109AA0002E5C2E2E5C6D61696E2E630038B54A7A8D
:109AB0000F4B62B100220A725969002906D00122B7
:109AC0008DF80020ADF802006846884738BD0A7A54
:109AD00062B19B684C68024619462046FEF756FA6A
:109AE0000028F3D0BDE8384004F0BEBA5B68F1E767
:109AF000A0420020F0B54FF0FF3622B11268D243E9
:109B000000230A4D0DE03246FAE7C45C62400824A7
:109B1000D70700D037462F4087EA5202641EF7D19C
:109B20005B1C8B42F1D3D043F0BD00002083B8ED25
:109B300010B504460068401C07D0204604F002FB24
:109B40002168814201D1012010BD002010BD00001C
:109B50002DE9F0471F46924689465FEA000810D07B
:109B6000BAF1000F0DD000242646012FA9EB040006
:109B700009D0032809D2304600F0C2FD0220BDE81A
:109B8000F0870120FBE70428F5D30C2007F090F8BC
:109B9000050024D000202860012F08EB040023D00A
:109BA00090F8020007F084F8A860F8B118F80410E3
:109BB000641C297118F80410641C6971012F1BD0F2
:109BC00018F80410E980641CEA88A9EB04019142AA
:109BD0001BD206F0C7F9284606F0C4F9CBE7304699
:109BE00000F08EFD0520CAE7C078DBE706F0BAF981
:109BF000284606F0B7F9F2E718F80420641CEA805A
:109C000018F8041001EB0221DCE708EB0401FCF773
:109C100049FCE8882E6004442E464C45A5D300201C
:109C2000CAF80050ABE71FB500220092ADF8001053
:109C30000192ADF802100292039202AA694690DFE7
:109C400004B010BD2DE9F0470025DFF88C803CE022
:109C50006068002100EBC506012032789146FCF7D0
:109C600000FCD4E9062300EA020701EA030C57EAE4
:109C70000C0728D082438B434846C4E9062303F0EF
:109C80000FFC32788246914601200021FCF7E9FB67
:109C9000D4E9042300EA020401EA03074A465046D5
:109CA0000021FCF7DEFB44404F403C430BD1707871
:109CB000012801D0012100E00021726881EA0A0137
:109CC0000AB1484690476D1CEDB298F80000444632
:109CD0008542BDD3BDE8F087203B002041690029C3
:109CE00001D0C068084770470E4910B50A784C7813
:109CF0000023A24212D0521CD2B20A70022A00D112
:109D00000B70084A0B780C3252F8232002608868E6
:109D1000104420F07F408860012010BD03600020C7
:109D200010BD0000403B0020014908707047000052
:109D3000AC3B00202DE9F05F07461C480C4600258F
:109D40000178F1B1DFF868904FF4806AAB46804645
:109D5000D8F804000219524519D9C0F5806679195E
:109D600048443246FCF79EFBD8F80400354481197C
:109D7000A41B0F48C8F8041000F016FAC8F804B085
:109D8000E6E721463846BDE8F05F00F00DBAD8F8A6
:109D90000420791909EB020045462246FCF782FBB4
:109DA000686820446860BDE8F09F0000AC3B00207C
:109DB0005052002010B500F0F5F900280BD1012019
:109DC00000F0B8F90448002400F84E4F4470052014
:109DD00000F0F2F9204610BD005200200FB42DE92A
:109DE000F04F07468BB08B460846FCF791FB0024EA
:109DF0000A940646A146099405940694079408948B
:109E0000052F08D9984840F28D120368002B7DD0A9
:109E1000964997A098479D4890F84C10002976D015
:109E20000178B94273D38046411C5846FCF75EFB6B
:109E300000286CD00DF1680A00F06CF90121384659
:109E400000F002FD924D40B187482946001D50F8B0
:109E50002720204600F0CAFA04460221384600F0C6
:109E6000F3FCC8B129195A46204600F0BFFA044451
:109E70000F2E0BD8C6F10F01202205A8FCF724FBFA
:109E8000291905AA204600F0B1FA0444291981A233
:109E9000204600F0ABFA04441C21384600F0D4FC04
:109EA00000284BD029197CA2204600F09FFA0444D8
:109EB0000421384600F0C8FC90B100F06FF902466A
:109EC0002919204600F092FA04441821384600F07F
:109ED000BBFC28B129196FA2204600F087FA044480
:109EE0000821384600F0B0FCA8B100F049F902465C
:109EF0002919204600F07AFA04441021384600F06F
:109F0000A3FC40B1291963A2204601E036E0A5E098
:109F100000F06CFA04441021384600F095FC38B18A
:109F200000F036F902462919204600F05FFA044491
:109F300029195AA2204600F059FA0444E021384673
:109F400000F082FC002860D0291955A2204600F0BC
:109F50004DFA04442021384600F076FC002827D032
:109F600029192046169A00F041FA04444021384647
:109F700000F06AFC88B1291946A215E03B48CDE9FA
:109F8000030200923AA147A3CDE9013103464EA254
:109F90005AA10020FFF722FFFEE78021384600F09B
:109FA00053FC28B1291957A2204600F01FFA044497
:109FB0004021384600F048FC80B129192046179A04
:109FC00000F014FA04448021384600F03DFC28B12A
:109FD00029194CA2204600F009FA04448021384691
:109FE00000F032FC58B148A2052109A8189BFDF7E2
:109FF00085F9291909AA204600F0F8F9044429191D
:10A0000042A2204600F0F2F90444C4F50071281978
:10A010005346199AFDF79EF904444FF40072944296
:10A0200004D8002802DB601C904201D940F2FF14E2
:10A0300098F8200038B1154905F8049020311448EB
:10A04000FCF754FA40B1291931A2204600F0CEF9AC
:10A0500001190F48FFF76EFE00F082F80BB0BDE863
:10A06000F00F5DF814FB0000903B0020084903004E
:10A070006C6576656C203C3D20454C4F475F4C56E7
:10A080004C5F564552424F5345000000005200209D
:10A0900000500020200000005B0000005D20000058
:10A0A00028000000282573292068617320617373DC
:10A0B000657274206661696C656420617420257323
:10A0C0003A256C642E0000002E2E5C2E2E5C2E2E67
:10A0D0005C65787465726E5F636F6D706F6E656ED0
:10A0E00074735C656173796C6F676765725C7372BA
:10A0F000635C656C6F672E6300000000656C6F67C2
:10A10000000000003A000000256C640029000000F7
:10A110000A00000070B5064C012594F84D0020B1EE
:10A1200000F047F884F84F5070BD84F84E5070BD71
:10A13000005200200949002881F84D000DD0074841
:10A1400091F84F1090F84E0019B1002805D100F099
:10A1500031B8002801D000F02CB870470052002020
:10A1600070B5064C002594F84D0020B100F022F89F
:10A1700084F84F5070BD84F84E5070BD00520020DE
:10A1800000A070477069643A313030380000000038
:10A1900000A070477469643A323400000048704788
:10A1A000B43B0020002070470A4601460020FCF71F
:10A1B00033BE70477047000010B586B004460528CE
:10A1C00007D90D484FF48B72036833B10B490CA0CB
:10A1D00098471248047006B010BD0848CDE9030244
:10A1E000009207A10EA3CDE90131034615A222A1D9
:10A1F0000020FFF7F3FDFEE7903B0020F44803004A
:10A200006C6576656C203C3D20454C4F475F4C5655
:10A210004C5F564552424F5345000000005200200B
:10A220002825732920686173206173736572742017
:10A230006661696C65642061742025733A256C64DD
:10A240002E0000002E2E5C2E2E5C2E2E5C65787467
:10A2500065726E5F636F6D706F6E656E74735C6553
:10A260006173796C6F676765725C7372635C656C50
:10A270006F672E6300000000656C6F6700000000D0
:10A2800030B585B00D460446052806D90E4803684A
:10A290004BB1FC220D490EA09847144800EB8400F6
:10A2A000456305B030BD0AA20292FC200749CDE902
:10A2B00003100FA3CDE900030B4616A222A1002034
:10A2C000FFF78CFDFEE70000903B0020D74803001D
:10A2D0006C6576656C203C3D20454C4F475F4C5685
:10A2E0004C5F564552424F5345000000005200203B
:10A2F0002825732920686173206173736572742047
:10A300006661696C65642061742025733A256C640C
:10A310002E0000002E2E5C2E2E5C2E2E5C65787496
:10A3200065726E5F636F6D706F6E656E74735C6582
:10A330006173796C6F676765725C7372635C656C7F
:10A340006F672E6300000000656C6F6700000000FF
:10A350000EB50949012081F84C000020FFF7E4FC0C
:10A3600006A208A1CA208DE80700104B10A21DA16B
:10A370000320FFF733FD0EBD00520020322E302E99
:10A3800033000000456173794C6F67676572205632
:10A39000257320697320696E697469616C697A65D7
:10A3A00020737563636573732E000000B448030067
:10A3B0002E2E5C2E2E5C2E2E5C65787465726E5F80
:10A3C000636F6D706F6E656E74735C656173796CCD
:10A3D0006F676765725C7372635C656C6F672E6331
:10A3E00000000000656C6F67000000002DE9F0437D
:10A3F000DFF88C90DFF88C8085B00D00064614469F
:10A40000174606D1D8F800302BB12C2249461EA0A1
:10A4100098477CB115E01CA202922C20CDE9039054
:10A420001AA3CDE90003164B21A22FA10020FFF7AC
:10A43000D5FCFEE7D8F800307BB12D2210492CA0C6
:10A4400098474FF400722078B0B13146761C9142A3
:10A4500012D205F8010B641CF5E725A202922D200B
:10A46000CDE9039009A3CDE90003054B10A21EA17D
:10A470000020FFF7B3FCFEE705B0E01BBDE8F0836A
:10A4800040490300903B0020647374002825732921
:10A490002068617320617373657274206661696CF2
:10A4A00065642061742025733A256C642E000000D9
:10A4B0002E2E5C2E2E5C2E2E5C65787465726E5F7F
:10A4C000636F6D706F6E656E74735C656173796CCC
:10A4D0006F676765725C7372635C656C6F675F75ED
:10A4E00074696C732E630000656C6F670000000078
:10A4F000737263002DE9F843104D0F4680461E46E7
:10A5000091466946286801F02FFF040014D01C21F1
:10A51000FBF7E1FF01202071C4F81490380BC4F858
:10A520000080C4E902606946286801F03EFF03F03C
:10A53000EBFC0020BDE8F8830420FBE78C2503003A
:10A540002DE9FC4180461F4615460E4600240D4865
:10A5500001F059FF38B11120BDE8FC8106EB043051
:10A5600002F0AAFC641CAC42F8D1064801F048FF96
:10A57000CDE90057334600220221404600F02EF874
:10A580000020E9E7803B002030B50446006887B032
:10A590000D46806800281FD018216846FBF79BFFF6
:10A5A0000195A0680590207910B1012810D107E02D
:10A5B00001208DF8000020690290E068039005E01A
:10A5C00002208DF80000E0680003029060690490AA
:10A5D000206881686846884707B030BD2DE9F043A0
:10A5E00087B00446DDE90E8980681D4616460F4691
:10A5F00000280BD018216846FBF76DFF02A88DF8E4
:10A60000007080E86003A1686846884707B0BDE82D
:10A61000F083826883881A4003689A5C0A708168B4
:10A62000491C81607047C26883881A400368995446
:10A63000C168491CC16070472DE9F843894648B19B
:10A6400000214FF48225070AC6B20C464FF48078E9
:10A65000009110E00120BDE8F883424629460F48EA
:10A66000FBF720FF6A4641460C48FFF743FA641C9B
:10A6700005F580750090BC42EFD356B132462946AD
:10A680000648FBF70FFF6A4631460448FFF732FAE7
:10A69000009000990020C9F80010DCE7F457002072
:10A6A00010B503460B4A002000EB800402EBC40403
:10A6B000241D9C4206D100EB800302EBC302526AC8
:10A6C0000A6010BD401CC0B20428EDD34FF0FF302B
:10A6D00010BD0000083C002070B50D460446B0F8DF
:10A6E0003812D0F834020122FDF74AFF00B105709C
:10A6F00004F13C0204F50D7104F1540072DF70BDE9
:10A7000070B5002809D004462568A06805F02AFC29
:10A71000204605F027FC2C00F6D170BD4268416947
:10A7200012B14FF0FF3005E002780120012A01D07C
:10A73000022A00D1486070470EB515A19DF80800A7
:10A7400020F00F00401C20F0F00010308DF80800C1
:10A75000022202A87CDF18B10E4AB621FBF75AFD8F
:10A760000020009001901021ADF80400ADF8001019
:10A770004FF4C8702021ADF80600ADF8021068460D
:10A780007ADF002803D0034AC021FBF743FD0EBD4A
:10A7900054590000A0AD020006484A8803889A4236
:10A7A00007D10A88A2F52063773B02D18988C91EA8
:10A7B00041807047B03A002010B50C490C4801F0B8
:10A7C000B0FE20B10BA24FF4F671FBF723FD172169
:10A7D000074801F09CFE002806D0BDE8104005A205
:10A7E00040F2EF11FBF716BD10BD000099A7020063
:10A7F000383F00202E2E5C2E2E5C2E2E5C6D616963
:10A800006E2E630010B50121064801F0FFFD411CCA
:10A8100001D0002805D1BDE810400121014801F018
:10A820000CBE10BDD83A002010B50121054801F03A
:10A83000EDFD0A2805D3BDE810400021014801F0D4
:10A84000FCBD10BDDC3A002030B585B00D46044695
:10A85000052807D90F4840F22F2203685BB10E4943
:10A860000EA09847144800EB8400406B284000D0AD
:10A87000012005B030BD0848CDE90302009207A1D0
:10A880000EA3CDE90131034615A222A10020FFF756
:10A89000A5FAFEE7903B0020144903006C6576653D
:10A8A0006C203C3D20454C4F475F4C564C5F564515
:10A8B00052424F53450000000052002028257329C2
:10A8C0002068617320617373657274206661696CBE
:10A8D00065642061742025733A256C642E000000A5
:10A8E0002E2E5C2E2E5C2E2E5C65787465726E5F4B
:10A8F000636F6D706F6E656E74735C656173796C98
:10A900006F676765725C7372635C656C6F672E63FB
:10A9100000000000656C6F67000000000068704771
:10A9200011307047007C70472DE9F04180460246A7
:10A9300001200021FBF795FD1A4F05460E46786869
:10A94000FDF768FB00280CD1174CD4E9062110460E
:10A950002A4001EA06031A4305D0A843B143C4E9DB
:10A960000601BDE8F081404602F09AFD30B1D4E91D
:10A97000040128433143C4E9040105E0D4E904108B
:10A98000A943B043C4E90410D4E906012843314384
:10A99000C4E90601A1687868BDE8F0410022FDF72E
:10A9A000F5BA000030250300203B002070B50446B6
:10A9B0000D4600230020002100BF1CE0E65C3109A9
:10A9C000092903DC01F13006165402E001F15706B3
:10A9D0001654461CF0B2E65C06F00F01092903DCB0
:10A9E00001F13006165402E001F157061654461CD8
:10A9F000F0B25E1CF3B2AB42E0DB0026165470BD31
:10AA000010B50B4941600B4801F0FDFC68B902F03C
:10AA1000EDFB08491C234FF4EE7208740448A1F5BD
:10AA2000EE71001F006801F08CFC002010BD0000DA
:10AA300090250300504700200149416000207047E5
:10AA4000BC2503000146034802888A4200D000204A
:10AA5000704700008C42002070B50D460446006827
:10AA60004FF4887102F053FC4FF49071206802F0AB
:10AA70004EFC4FF49271206802F049FC4FF4A27131
:10AA8000206802F044FC20681249C0F804132068D2
:10AA9000690740F30730090E002806DA00F00F00BE
:10AAA00000F1E02080F8141D03E000F1E02080F8C0
:10AAB00000142068012140F3073000F01F0291408C
:10AAC0004009800000F1E020C0F88012C0F80011B9
:10AAD00070BD0000100302000248007A002800D078
:10AAE000012070475047002002480068002800D02D
:10AAF00001207047803B0020F0B58488A51894425F
:10AB000000D82246A41AC288D6189A4200D8134602
:10AB1000D21A4B880788BB420CD34088834209D89D
:10AB20008888A04206D3A84204D8C888904201D39E
:10AB3000B04201D90020F0BD0120F0BD0A4810B597
:10AB4000807860B1002401E0022C06D02046FEF798
:10AB500079FB641C042CF7D310BD0324F6E7BDE891
:10AB60001040FEF78FBB0000E83A0020034801794F
:10AB7000C90702D00078FEF7D3BC7047E83A00203E
:10AB80001721018041800021017141711B218171D8
:10AB9000C17170472DE9F047394E002780463D4688
:10ABA000DFF8E090D6F804A057E003D00446D0F8D0
:10ABB0001C8035E099F8002002EB4201521CD2B211
:10ABC00089F8002009EBC10199F80230091D9A4269
:10ABD00001D189F8005048680A780446012A12D049
:10ABE000022A02D0032A3BD108E003F013FC00B193
:10ABF0000127257434E00574C06900E070680028FE
:10AC0000F9D170602CE0207C50BB88686060C86817
:10AC1000A0600869E0604869A061F07800B16560F3
:10AC20006268B168184B501A20F07F40984202D2F7
:10AC3000A168084406E0881AA16820F07F4081429C
:10AC400002D9081A206000E0256065600120A56037
:10AC500020742046E56103F0BFFBB8F10000A4D1E9
:10AC600099F8001099F801008142A3D117B97168D1
:10AC7000514502D00120BDE8F0870020FBE700002D
:10AC8000403B002020440020FFFF7F0088B007F0F9
:10AC9000FFF8FFF78FF8C7210020FFF7F1FAC7216F
:10ACA0000120FFF7EDFAC7210220FFF7E9FA07219B
:10ACB0000320FFF7E5FAFFF74BFBFDF73DF918B16D
:10ACC00037A2A021FBF7A6FA39490320FEF7DEFBE5
:10ACD00020B133A240F21F31FBF79CFA69460020F5
:10ACE000FEF7F4FA20B12EA240F22231FBF792FADD
:10ACF00002F01CF920B12AA240F23931FBF78AFA9E
:10AD0000FEF72CFAFFF718FDFFF756FD29480190D2
:10AD1000002401A9284801F0DAFC18B120A2F4218E
:10AD2000FBF778FA2548009069462548FEF724F994
:10AD300018B11BA2FC21FBF76DFAFCF7DDFF1C210B
:10AD40006846FBF7C8FB4FF42030CDE900404FF4D4
:10AD50007020029003208DF80C001A4805901A48C4
:10AD60000690ADF80E408DF810406846FDF73EFEA7
:10AD700020B10BA24FF49E71FBF74CFA03F018FEC2
:10AD80000D4803210C30FDF71AFD20B104A24FF449
:10AD90005671FBF73FFA05F089FF02F0DBF8FAE79E
:10ADA0002E2E5C2E2E5C2E2E5C6D61696E2E630045
:10ADB000C193020099CF02004C3F002045DA020007
:10ADC000B83A002091DA02008D9A020070B514465C
:10ADD00082880E4605462088111D0144921C994226
:10ADE00001D8FE2A01D90C2070BD521C3254208893
:10ADF000FF21401C80B2208031542088401C80B24A
:10AE000020808119288807F097F92188084480B2AA
:10AE10002080AA8842B1A96841B13044FBF742FBC7
:10AE20002088A98808442080002070BD072070BDBC
:10AE30002DE9FF478146DDE90C641F46154688462B
:10AE4000100704D06FF0210004B0BDE8F087B8F11E
:10AE5000000F1BD033E0102231466846FBF722FB7F
:10AE6000234632464146484600F02DF80020215C3A
:10AE70003A5C51402154401C1028F8DB10226946EE
:10AE80003846FBF70FFB1034103D1036002DE2D191
:10AE900017E00020315C3A5C51402154401C1028DE
:10AEA000F8DB23461A464146484600F00CF81022CB
:10AEB00021463846FBF7F6FA1034103D1036002DC7
:10AEC000E7D10020C0E710B4144601291A462146F4
:10AED00002D010BC00F048B910BC00F02BBB000041
:10AEE000002805D0034B4FF48C7200211B681847D3
:10AEF000704700008C3B00204FF48C71FBF7EBBADD
:10AF00002DE9F04FC7B0054616460F466846FFF7D5
:10AF1000F3FF05F108043246394668466C6000F0DC
:10AF200055F84690F0BB00982860DDE9001000EB72
:10AF3000011101C901C401C901C401C944F8080BC8
:10AF400051F81C0944F8040C2A6828E01E48002522
:10AF500000F5905900F5B05A00F5D05C00F5F05BB3
:10AF600008C950FA83F637786D1C59F82760C3F387
:10AF7000072710F807805AF828707E40C3F3074768
:10AF800000EB1363C75D93F800805CF827705BF8F3
:10AF900028305F407E4040C4042DE1DB2039521E42
:10AFA000002A00E008E0D1DC0868206048686060A2
:10AFB0008868A060C868E0606846FFF791FF46981F
:10AFC00047B0BDE8F08F00008C260300F0B5802A62
:10AFD00007D0C02A07D0B2F5807F0BD06FF01F00DA
:10AFE000F0BD0A2300E00C23036000F108030024F5
:10AFF00043600AE00E23F7E701EB8405EE782D6845
:10B0000066F31F6543F82450641CB4EB521FF3D35E
:10B01000544A0168A2F508500A2904D00C292BD003
:10B020000E2928D156E0002453F80C5B52F8241066
:10B030004D4002CBC1F30726C1F30747865DC75DCC
:10B0400086EA0726754000EB1166367885EA0645E4
:10B0500050FA81F63678641C85EA06651D6053F85F
:10B060000C6C6E405E6053F8085C75406940C3E943
:10B0700002510A2CD8D373E05FF000041D6852F827
:10B0800024104D405969C1F30726C1F30747865D77
:10B09000C75D86EA0726754000EB1166367885EABB
:10B0A000064550FA81F63678641C85EA06659D618E
:10B0B0005E686E40DE619D6875401D62DE686E40B0
:10B0C0005E621D6975406940C3E90A511833082C56
:10B0D000D4D345E05FF000051C6852F825104C40C1
:10B0E000D969C1F30726C1F30747865DC75D86EAC4
:10B0F0000726744000EB1166367884EA064450FA5D
:10B1000081F6367884EA06661E625C6874405C628A
:10B110009E6866409E62DC687440DC6250FA84F788
:10B120003F781E69C4F3074C7E40C4F3072710F82C
:10B130000CC0C75D00EB14643F0287EA0C4724781B
:10B140007E4086EA04641C635E696D1C66405E6333
:10B150009C6974406140C3E90E412033072DBBD385
:10B160000020F0BD8C4803002DE9F84FCC784368EF
:10B170000D684E6864F31F6510CB8F686C40CD7905
:10B1800091F80FC065F31F6620CB00687540CE7A3A
:10B19000DFF894E366F31F6753F8086B0EF5806BD6
:10B1A0007E40CF6853F8041C6CF31F6779404FF062
:10B1B000FF3707EB600A0BF58060CDE004F0FF0C71
:10B1C00053F8049B5EF82C70C6F3074C89EA070914
:10B1D000C1F3072750F82CC05BF82770984687EA20
:10B1E0000C0789EA0709D14F4FEA156C57F82C7004
:10B1F00005F0FF0C89EA07091F685EF82C30C1F3DF
:10B20000074C5F40C4F3072350F82CC05BF8233091
:10B2100083EA0C035F40C54B4FEA166C53F82C30A1
:10B220005F4008F104030093D8F804C006F0FF085B
:10B230005EF82830C4F307488CEA030CC5F30723F3
:10B2400050F828805BF8233083EA08038CEA030C6B
:10B25000B64B4FEA116853F828308CEA030C009B78
:10B260001B1D0093D3F80080CBB25EF82310C5F30A
:10B27000074388EA0108C6F3072150F823305BF83A
:10B28000211009F0FF05594088EA0108A749230E5B
:10B2900051F82310009B88EA01085EF825105C68CD
:10B2A000CCF307454C40C8F3072150F825505BF814
:10B2B000211069404C409D493D0E03F1080651F8AC
:10B2C00025109D68FBB24C405EF82310C8F307437D
:10B2D0004D40C9F3072150F823305BF82110AAF143
:10B2E000010A59404D4091494FEA1C6351F823101F
:10B2F000331D00930CF0FF034D4076685EF8231079
:10B30000C9F307434E40C7F3072150F823305BF8D9
:10B310002110C7F3074759404E4084494FEA18634C
:10B3200008F0FF0851F82310009B4E401B1D0093AE
:10B3300019685EF8283050F827705940CCF307237D
:10B340005BF823307B405940784B4FEA196753F83C
:10B3500027305940009B1B1DBAF1000F3FF72EAF5D
:10B36000DFF8C4C104F0FF0880CB5CF828C0C6F346
:10B37000074887EA0C07C1F3072C86465BF82CC008
:10B3800050F828009A468CEA000C87EA0C076748B8
:10B390004FEA156CD3F8008050F82C00EBB2474010
:10B3A000614806F0FF0C50F82300C1F3074388EA18
:10B3B0000008C4F307205EF823305BF820005840F3
:10B3C00088EA00085948330E50F82300564B88EAA3
:10B3D00000095AF8040F53F82C3001F0FF085840C8
:10B3E000C5F30723C5F307455BF823C0C4F3074340
:10B3F0005EF825505EF823308CEA030C80EA0C00DE
:10B400004A4B4FEA116C484953F82C3058400AF126
:10B41000040351F8281053F804CB8CEA010CC6F34E
:10B4200007215BF8211069408CEA010C3F49240E8A
:10B4300051F8241010CB8CEA010C3D4951FA87F5E4
:10B440002D78C0F307466C40CCF307258E5D4D5D2B
:10B450002D0285EA06456C4001EB19652D7884EADA
:10B46000056420CB51FA89F63678CCF3074875404D
:10B47000C7F3072611F808808E5D9A46360286EAE1
:10B480000846754001EB10661B68367885EA06654C
:10B4900051FA80F63678C7F307487340C9F3072698
:10B4A00011F808808E5D360286EA0846734001EB8B
:10B4B0001C66367883EA066651FA8CFC9CF800C05C
:10B4C000DAF80430C0F3072083EA0C03C9F3074C11
:10B4D000085C11F80CC0000280EA0C40434001EB0C
:10B4E0001760210A007814705170210C9170210EA0
:10B4F000D1701571290A5171290C9171290ED171E0
:10B500001672310A5172310C9172310E83EA006069
:10B51000D1721073010A5173010C9173000ED07334
:10B520000020BDE8F88F00008C3803008C44030035
:10B530008C3703002DE9F84FCC7843680D684E68CE
:10B5400064F31F6510CB8F686C40CD7991F80FC004
:10B5500065F31F6620CB00687540CE7ADFF890E374
:10B5600066F31F6753F8086B0EF5806B7E40CF685B
:10B5700053F8041C6CF31F6779404FF0FF3707EB5B
:10B58000600A0BF58060CDE004F0FF0C53F8049BDB
:10B590005EF82C70C6F3074C89EA0709C5F3072744
:10B5A00050F82CC05BF82770984687EA0C0789EAA8
:10B5B0000709D04F4FEA116C57F82C7005F0FF0CBB
:10B5C00089EA07091F685EF82C30C1F3074C5F4019
:10B5D000C6F3072350F82CC05BF8233083EA0C0332
:10B5E0005F40C44B4FEA146C53F82C305F4008F1B5
:10B5F00004030093D8F804C006F0FF085EF8283072
:10B60000C4F307488CEA030CC1F3072350F82880E1
:10B610005BF8233083EA08038CEA030CB54B4FEA4E
:10B62000156853F828308CEA030C009B1B1D00930F
:10B63000D3F80080CBB25EF82310C5F3074388EA45
:10B640000108C4F3072150F823305BF8211009F0FA
:10B65000FF05594088EA0108A649330E51F8231026
:10B66000009B88EA01085EF825105C68CCF307456A
:10B670004C40C7F3072150F825505BF82110694072
:10B680004C409C494FEA186503F1080651F8251013
:10B690009D68FBB24C405EF82310C8F307434D4051
:10B6A000CCF3072150F823305BF82110AAF1010AEE
:10B6B00059404D408F494FEA196351F82310331D0B
:10B6C00000930CF0FF034D4076685EF82310C9F339
:10B6D00007434E40C8F3072150F823305BF8211090
:10B6E00008F0FF0859404E4082493B0EC7F3074718
:10B6F00051F82310009B4E401B1D009319685EF803
:10B70000283050F827705940C9F307235BF82330DD
:10B710007B405940774B4FEA1C6753F8273059401C
:10B72000009B1B1DBAF1000F3FF72EAFDFF8C0C121
:10B7300004F0FF0880CB5CF828C0C6F3074887EA0E
:10B740000C07C5F3072C86465BF82CC050F8280080
:10B750009A468CEA000C87EA0C0766484FEA116C9F
:10B76000D3F8008050F82C00EBB24740604806F058
:10B77000FF0C50F8230088EA0008C6F307205BF8A6
:10B780002030C1F307405EF82000434088EA0308F8
:10B790005848230E50F82300554B88EA00095AF800
:10B7A000040F53F82C30C4F3074C5840C1F307235F
:10B7B0005EF82CC05BF8233001F0FF0883EA0C032D
:10B7C00058404C4B4FEA156C494953F82C305840BF
:10B7D0000AF1040351F8281053F804CB8CEA010C49
:10B7E000C4F30721C5F307445BF821105EF8244039
:10B7F00061408CEA010C3F49340E51F8241010CB03
:10B800008CEA010C3C4951FA87F52D78C0F30746C4
:10B810006C40C9F307258E5D4D5D2D0285EA064516
:10B820006C4001EB1C652D7884EA056420CB51FA4D
:10B8300089F63678CCF307487540C0F3072611F82F
:10B8400008808E5D9A46360286EA0846754001EB0E
:10B8500017661B68367885EA066551FA80F63678F1
:10B86000C7F307487340CCF3072611F808808E5DB4
:10B87000360286EA0846734001EB1966367883EA99
:10B88000066651FA8CFC9CF800C0DAF80430C7F365
:10B89000072783EA0C03C9F3074CCF5D11F80CC0EE
:10B8A00001EB1060210A007814705170210C917026
:10B8B000210ED1701571290A5171290C9171290E2F
:10B8C000D1711672310A51723F02310C87EA0C476E
:10B8D00091727B40310E83EA0060D1721073010ACD
:10B8E0005173010C9173000ED0730020BDE8F88FE6
:10B8F0008C2703008C3303008C2603002DE9F04FC6
:10B90000CA780D684E6862F31F65CA79D1F808C01D
:10B9100062F31F66CA7A8DB062F31F6CE146CA7B80
:10B92000D1F80CC0DFF8CC8662F31F6CE346CA7C0A
:10B93000D1F810C062F31F6CE646CA7DD1F814C07E
:10B9400062F31F6CE246CA7ED1F818C062F31F6C26
:10B95000CDF800C0CA7FCF69D1F820C062F31F675D
:10B9600091F8232062F31F6CCDF804C091F82720D2
:10B97000D1F824C062F31F6CCDF808C091F82B20D9
:10B98000D1F828C062F31F6CCDF80CC091F82F20BD
:10B99000D1F82CC062F31F6CCDF810C091F83320A1
:10B9A000D1F830C062F31F6CCDF814C091F8372085
:10B9B000D1F834C062F31F6CCDF818C091F83B2069
:10B9C000D1F838C062F31F6CCDF81CC091F83F204D
:10B9D000D1F83CC062F31F6CCDF820C081680C9197
:10B9E000C2680B9203690A93446905EB010C83EA70
:10B9F0000401114061404144614406EB040C099488
:10BA000002EB716182EA03040C40DFF8EC855C40D4
:10BA10004444644409EB030C01EB345481EA02030F
:10BA20002340DFF8D8855340434463440BEB020CBA
:10BA300004EBF33384EA01021A40DFF8C4854A407C
:10BA4000424462440EEB010C03EBB22283EA040190
:10BA50001140DFF8B0856140414461440AEB040CB9
:10BA600002EB716182EA03040C40DFF89C855C40C4
:10BA700044446444DDF800C001EB34549C4481EA42
:10BA800002032340DFF8848553404344634407EBBB
:10BA9000020C04EBF33384EA01021A40DFF87085EC
:10BAA0004A4042446244DDF804C003EBB2228C44B5
:10BAB00083EA04011140DFF85C8561404144614440
:10BAC000DDF808C002EB7161A44482EA03040C4073
:10BAD0005C40DFF8448544446444DDF80CC001EB6D
