:020000022000DC
:1060000000000120756302005D6302005F6302000F
:106010006163020063630200656302000000000028
:1060200000000000000000000000000067630200A4
:1060300069630200000000006B6302006D630200F0
:106040006F6302006F6302004D8002006F63020005
:106050006F6302006F630200C97E02006F6302007B
:106060006F6302006F6302006F6302006F630200E0
:106070006F6302006F6302006F6302006F630200D0
:106080006F630200816702006F6302006F630200AA
:106090001D6802006F630200E5AE02006F6302003C
:1060A0006F6302006F6302006F6302006F630200A0
:1060B0006F6302006F630200000000000000000038
:1060C0006F6302006F6302006F6302006F63020080
:1060D000718F02006F6302006F6302000000000016
:1060E00000000000000000000000000000000000B0
:1060F00000000000000000000000000000000000A0
:10610000000000000000000000000000000000008F
:10611000000000000000000000000000000000007F
:10612000000000000000000000000000000000006F
:10613000000000000000000000000000000000005F
:10614000000000000000000000000000000000004F
:10615000000000000000000000000000000000003F
:10616000000000000000000000000000000000002F
:10617000000000000000000000000000000000001F
:10618000000000000000000000000000000000000F
:1061900000000000000000000000000000000000FF
:1061A00000000000000000000000000000000000EF
:1061B00000000000000000000000000000000000DF
:1061C00000000000000000000000000000000000CF
:1061D00000000000000000000000000000000000BF
:1061E00000000000000000000000000000000000AF
:1061F000000000000000000000000000000000009F
:10620000354936480A1A02D0072291438D4634494F
:1062100034480A1A06D00722914381F309880222E2
:1062200082F3148830483149314A00F044F831484B
:106230003149324A00F03FF831483249324A00F0E1
:106240003AF832483249334A00F035F83248334997
:10625000334A00F030F833483349344A00F02BF821
:1062600033483449344A00F026F83448344900228F
:1062700000F02CF833483449002200F027F8334866
:106280003349091A082902DB002202604160314AC1
:1062900090471F481F49884205D00268043003B464
:1062A000904703BCF7E700208646EC46002000211B
:1062B000294A9047FEE7884207D0521A05D0037852
:1062C00001300B700131013AF9D17047884202D098
:1062D00002700130FAE770470000012000D0002072
:1062E0000000012000000120C0990300D03A0020E6
:1062F000EC3B0020D4630200D4630200803303002F
:10630000C0990300D03A0020D03A00202C3403007A
:106310002C3403002C3403002C3403002C340300F1
:106320002C3403002C3403002C340300BF990300E9
:10633000DC9A0300EC3B0020EC3B0020EC3B00200F
:106340009C7900209C790020A0790020A079002071
:10635000A09900209D6302004D960200FEE7FEE733
:10636000FEE7FEE7FEE7FEE7FEE7FEE7FEE7FEE705
:10637000704700BF1048804710484FF0070188431E
:1063800085460F4880470F48016841F4700101605D
:10639000BFF34F8FBFF36F8FFFF732BF0A480B4930
:1063A0000B4A884207D0521A05D0037801300B708F
:1063B0000131013AF9D170477163020000000120F8
:1063C000F577020088ED00E004340300A83A0020CD
:0463D000D03A00209F
:1063D40000487047947900202DE9F04F364E87B07D
:1063E4004FF00009354B1B785FFA89F5AB4202D8B0
:1063F40007B0BDE8F08F324BD3F800A01AF835008F
:106404000124D6E9001EA0F12002C0F1200304FA01
:1064140002F224FA03F3134304FA00FC059301EA9D
:106424000C030093059B0EEA03030193DDE90023AB
:1064340013430AEBC50B3BD0059B21EA0C012EEA62
:106444000303C6E9001301F033FD01461AF83500D1
:106454001C4DA0F12002C0F1200304FA02F224FA38
:1064640003F31343D5E900C28440134004EA0C0447
:106474000393A0F12002C0F1200321FA03F3029454
:1064840001FA02F848EA0308DDE9023401FA00F7E8
:10649400444508BFBB420BD1DBF8043043B19BF841
:1064A4000120541E62426241551A6942694198476B
:1064B40009F1010996E700BF203C0020EC3B0020D5
:1064C400283C0020183C0020F8B506461E4800F081
:1064D4008BFBC0BB0125A6F12004C6F1200325FADD
:1064E40003F305FA04F41C43184BD3E900C2B54086
:1064F4000CEA050002EA040101431F461DD130469F
:1065040001F0D6FC124BD3E9001288B1294322438F
:10651400C3E90012D7E900231C430E4B0A4819684B
:106524001543C7E900540022BDE8F84000F014BB4D
:1065340021EA050122EA0402EAE72CEA050522EA37
:106544000404C3E90054F8BDF43B0020203C0020BF
:10655400183C0020F03B0020042A2DE9F3410546B5
:106564000C46164639D901F0E3FBD8B11C4B1D4942
:106574001D601D4BDFF884801C701C4B00221E60C4
:106584000023C1E900231A49C1E90023013CE4B214
:1065940000260327FF2C0CD1164A1748002100F0CF
:1065A400C9FA03E001F08AFB0028DFD002B0BDE89D
:1065B400F08105EBC40315F834009B788DF8066070
:1065C400424601A98DF804708DF8053001F0BAFB3C
:1065D400013CE4B20028DDD0E8E70720E6E700BF8D
:1065E400283C0020183C0020EC3B0020F03B00201D
:1065F400203C0020DD6302002C340300CD64020043
:1066040070B5084D084E00242B789C4201D300201D
:1066140070BD3368012113F8340001F005FC013426
:10662400F2E700BFEC3B0020283C00201FB500210E
:10663400039001AA44F20100CDE9011107F052F8D8
:1066440005B05DF804FB49B152B1531E1A4007D19D
:10665400826001608380C260104670470E207047DC
:106664000920704710B58468C2688388121B93425E
:1066740008D3C26813400268D154C3680133C360AD
:10668400002010BD0420FCE78268C3689A420AD047
:106694008268838813400268D35C0B70836801337B
:1066A400836000207047052070470000094A537832
:1066B40091780133DBB2994208BF002311789942E3
:1066C4001FBF03705078182303FB002014BF04304D
:1066D400002070472C3C002073B5054600240DF1C2
:1066E40007000E468DF8074000F098FB0DF10600F8
:1066F400FFF7DCFF90B10670094B9DF8062045605A
:106704005A709DF8070000F0ADFB24B9054B4FF417
:106714008012C3F80021204602B070BD0424F0E7C3
:106724002C3C002000E100E0024B4FF43C6043F0BD
:10673400010318473034030038B50C4B0C4C4FF4AC
:106744000032C3F8802001254FF48033C4F8483365
:10675400C4F808336560FFF7E7FF064BA560002423
:106764001C60FFF7E1FF044B1C7038BD00E100E042
:1067740000100140483D0020393D0020F8B51F4B72
:106784001F491B680025C1F84051C1F84451C1F8A4
:106794004851C1F84C51C1F80051C1F804514BB3F0
:1067A400D1F8044517490968641A24F07F442F4638
:1067B4001A68A24209D8A41A15441A7CDE691AB1CF
:1067C400D3E905201F749047AEB90F4A0F4B1178D7
:1067D4001B788B4205D10133DBB2022B08BF0023A7
:1067E400137012780A4B43F822500A4B4FF480126C
:1067F400C3F80021F8BD3346DAE700BF4C3D002062
:1068040000100140483D0020453D0020443D00204B
:106814003C3D002000E100E02DE9F04FA24AA349ED
:1068240013780978A24D994285B03CD00133DBB28C
:10683400022B08BF002313709E4912789E4B0F68E9
:1068440053F822003B1823F07F4300220B602B688F
:1068540016461446944613B942B12B6006E01968F3
:1068640081420ED902B12B60091A196001272B68E5
:10687400DFF84CA201934FF00008BEB9DFF848B22C
:1068840062E0401A0C44D968D3F81CE0C3F800C095
:1068940031B13A1922F07F42C3E90121DE611E467B
:1068A40073460122D7E700263746E0E73446F66907
:1068B400804A63681268DFF814C2A068991A21F04C
:1068C4007F41614500F2A8800144216001222274C5
:1068D4002A680023C4E90133E361002A40F0A5805B
:1068E4002C60CAE79BF802105A1CD2B291428BF872
:1068F400002004BF00228BF80020182202FB03B3FF
:106904002A6819799C68022977D0032900F08180CC
:10691400012919D1207CB8B9D3E90312A2605A69BC
:10692400E2609A69654BA2611B78002B0CBF0B4691
:1069340003466360BCE78C4200F094808946C969D1
:106944000029F8D1002323749BF800309BF8012020
:106954009A42C7D12B68B8F1000F04D1019A9A4228
:1069640001D1002F43D0002B79D0D3F800A0544D8F
:10697400504BD5F804751C68DFF854813E1B98F819
:10698400003026F07F4603369BB94FF48033C5F8B8
:106994004433C5F804334B4B4FF400324FF0010934
:1069A400C3F880211A60C5F80090FFF7BDFE88F88F
:1069B4000090B2452CBF5444A41924F07F44C5F878
:1069C4004045D5F80435DB1B23F07F43E41B033338
:1069D40024F07F44A3420AD9D5F80435C5F84035DC
:1069E400FFF7A2FE374B4FF40032C3F80021334BBC
:1069F40000221A7005B0BDE8F08F114691469FE75A
:106A04001174D2690123002AFAD1002B9CD02A6088
:106A14009AE700231946F6E7D31A23F07F4383420B
:106A240034BFC31A0023236050E7216813689942D6
:106A340013D8591A1160E26152E7091AD8691A4643
:106A440038B1034618688842F7D3401A18601846CC
:106A540013462160E061DC610FE71346F2E7FFF7BC
:106A64006BFEC4E74C4511D1D3692B6073B9DFF8D1
:106A740044E00120CDE90212CAF80800CEF8003043
:106A84000E4B1870FFF750FEDDE902120B68C9695E
:106A9400C9F81C1011B1086803440B602B689342B9
:106AA40018BF4FF001084DE7443D0020453D00204C
:106AB4004C3D0020483D00203C3D0020383D002056
:106AC4000010014000E100E02C3C0020FEFF7F00AC
:106AD400393D002008B5FFF72FFE104B00200B2294
:106AE40018809A700E4B18600E4B18700E4B18706D
:106AF4000E4B4FF48012E021C3F8802183F8141365
:106B04001A6002F18042A2F56F22C2F8080583F8E8
:106B14001113074BD2F804251A6008BD2C3C002041
:106B24004C3D0020443D0020453D002000E100E0B4
:106B3400483D0020074B9B784BB132B128B1036824
:106B4400187C20B959745A6170470720704708208F
:106B5400704700BF2C3C00202DE9F743DFF8848008
:106B640098F8023005460E461746ABB3A0B3042985
:106B740030D9436983B3437C0024012B0DF1070012
:106B84000CBF8946A1468DF8074000F047F90DF186
:106B94000600FFF78BFDD8B1012303700F4B45604E
:106BA400D3F80435C0E90497C0E902369DF80630ED
:106BB40088F801309DF8070000F054F924B9084B17
:106BC4004FF48012C3F80021204603B0BDE8F083DF
:106BD4000424EFE70724F7E70824F5E70010014051
:106BE40000E100E02C3C0020064A92783AB130B132
:106BF400426922B1002202740221FFF76DBD082010
:106C0400704700BF2C3C00200648074A0378074918
:106C1400D35C012213B1043001F056BE0C3001F0F4
:106C240037BC00BFD03A0020AC3F0020783D0020A4
:106C34000648074A03780749D35C012213B104309C
:106C440001F0F4BD0C3001F0D1BB00BFD03A0020FC
:106C5400AC3F0020793D002037B50578012D0BD0DD
:106C6400022D2CD0F5B91D491D48FFF70DFD002854
:106C740030D1FFF7DDFF15E043681A4C1978204640
:106C8400FFF7F0FC80B18DF800500190164B684678
:106C94001B689847A168E368A2885B1A9A420AD3E2
:106CA400FFF7B2FF03B030BDA268E3689A42F1D0A7
:106CB4008DF80000EAE70D4B01221A70F2E7C36871
:106CC4008DF800500193FFF79FFF074B68461B6840
:106CD4009847E7E703238DF80030F6E7793D002075
:106CE400683D0020543D0020503D0020643D0020BC
:106CF400F0B51F46234B89B004461A600D4600299F
:106D04003DD08A8820480968FFF79DFC002834D1CB
:106D1400AA89A9681D48FFF796FC00282DD11C4EAE
:106D24000FCE6D460FC596E80F0085E80F00636926
:106D34000693237C174A18488DF81C70003B18BF33
:106D440001238DF81430637C002B14BF0E23002321
:106D54008DF81530E3680293A368039323680193C5
:106D640069466368009300F041FF30B90B4B18701B
:106D74002368013301D0FFF747FF09B0F0BD0720B6
:106D8400FBE700BF503D0020543D0020683D00203B
:106D9400383403005D6C0200D03A0020643D0020CA
:106DA40070B5084D014608482E78FFF76DFC04467F
:106DB40036B100232B70FFF727FF08B1FFF736FC2D
:106DC400204670BD643D0020543D002010B50146AE
:106DD4000E48FFF747FC0446A8B90D480D4A03784E
:106DE400D35C63B1043001F063FD60B90A4907481C
:106DF400FFF74AFC38B9BDE81040FFF719BF0C3063
:106E040001F03AFBF1E7204610BD00BF683D0020C9
:106E1400D03A0020AC3F0020793D002070B5EFF35C
:106E2400108672B60C4A946801239CB993600B4B8C
:106E34000B4DD3F8801029401160C3F88050D3F86B
:106E4400841051604FF0FF32C3F88420047006B9F7
:106E540062B670BD0370FAE77C3D002000E100E0FB
:106E6400FC06FFBD084B9A6810B55AB150B9EFF350
:106E7400108172B6054A1C6814605C68546098609E
:106E840001B962B610BD00BF7C3D002000E100E006
:106E940010B561B1B2FBF3F403FB1424A4B244B9FA
:106EA400C0E9001484608281C381204610BD0E2095
:106EB400FCE70920FAE782B050E8022FC188B2EB60
:106EC400324F4FF0000317BF92B241EA014142EA48
:106ED400014104E04268B2EB324F08BF012340E8AD
:106EE4000212002AE8D18DF807309DF80730002BF4
:106EF4000CBF1120002002B0704737B550E8013FA5
:106F04009DB2C48925448489A54228BF2D1B0489C8
:106F1400A54202BFBFF32F8F002207E0C5EA030595
:106F240040E80154002CE9D14FF001028DF8032010
:106F34000193019B9DF803200B6002F0FF0322B133
:106F44000B880068184403B030BD1846FBE70A8874
:106F54004B889A4209D150E8012FC2EA024240E824
:106F64000123002BF7D1012070470020704737B56B
:106F740050E8023F1FFAA3F5C488A54202BFBFF33D
:106F84002F8F00220DE0C48925448489A54228BF9F
:106F94002D1BC3EA054540E80254002CE8D14FF00C
:106FA40001028DF803200193019B9DF803200B60DF
:106FB40002F0FF0322B14B880068184403B030BDCF
:106FC4001846FBE70A884B889A4209D150E8022FF9
:106FD400C2EA224240E80223002BF7D10120704785
:106FE4000020704701F01F024B090121914000EB82
:106FF400830000F02AB801F01F0301229A404B09D4
:1070040000EB8300D14300F02CB84B0901F01F01C1
:1070140050F82300C84000F00100704710B5034643
:1070240053E8002F084643E8000494F0000FF7D11A
:1070340010BD10B5034653E8000F40EA010243E8CF
:10704400002494F0000FF6D110BD10B5034653E8A8
:10705400002F42EA010043E8000494F0000FF6D147
:1070640010BD10B5034653E8002F02EA010043E8BF
:10707400000494F0000FF6D110BD10B5034653E898
:10708400002F02EB010043E8000494F0000FF6D156
:1070940010BD0121FFF7CDBF0021FFF7E2BF10B5FE
:1070A40090B1D0E9012301689B1ADBB20A60013B6D
:1070B400DBB2FF2B026802D10020107110BD1168F1
:1070C4004C1C14600B70F2E70E20F7E737B5054649
:1070D40000240DF107008DF80740FFF79FFE2A6892
:1070E4006B68116899420ED9481E106011F8014C62
:1070F400EB68298A01FB0434AB6811791B1ADBB2F3
:10710400994238BF13719DF80700FFF7ABFE204684
:1071140003B030BD37B5054600230DF107000C461A
:107124008DF80730FFF77AFE2A681368591C11603E
:10713400E968641A298AB4FBF1F41C709DF807000D
:10714400FFF790FE03B030BD41DF7047064B10B52A
:1071540000241C70054B1C60BFF35F8F0449054875
:1071640000F030F8204610BD903D0020943D0020F2
:1071740058340300883D002007B500230DF10700B3
:107184008DF80730FFF74AFEF1EE103A23F09F0323
:10719400E1EE103ABFF35F8F094B4022C3F884211C
:1071A4009DF80700FFF75EFE03F080FE20B1FFF7B5
:1071B400CBFF03B05DF804FB20BF40BF20BFF8E75E
:1071C40000E100E00B684A684360934208BF002373
:1071D400016008BF43607047436843B10268916827
:1071E40052680B449342436004BF002343607047DA
:1071F4000B4610B4114628B123B103605DF8044B6B
:107204001B6818470E205DF8044B7047F0B4A8B112
:10721400A2B1D0F800C0BCF1000F12D09BB18D0711
:1072240013D1C568A94210D34D1EEC180569AC42B0
:107234000BD8DCF80840A446F0BC60470E20F0BC34
:1072440070470820FBE70920F9E71020F7E72DE94C
:10725400F04108B302B3D0F800E0BEF1000F1ED035
:10726400FBB14568D5F80480B3FBF8F508FB153588
:10727400BDB942EA010C1CF0030F14D1C568A94240
:1072840011D34D1EEC180569AC420CD8DEF80C4045
:10729400A446BDE8F04160470E20BDE8F081082017
:1072A400FBE70920F9E71020F7E7F0B5D8B1D0F8EB
:1072B40000C0BCF1000F18D0CAB14768D7F800E08D
:1072C4000EF1FF370F4214D1C768B94211D30469D4
:1072D4004D1E0EFB0255A5420BD8DCF81040A44607
:1072E400BDE8F04060470E20F0BD0820FCE709200F
:1072F400FAE71020F8E7000070B550B90E4D0F4CB6
:107304000026641B1423B4FBF3F4B44208D1002018
:1073140010E00368002BF1D0BDE87040DB6918472A
:107324002B6813B901361435EFE7DB692846984713
:107334000028F7D070BD00BFA83A0020D03A002042
:1073440029DF704728DF704770B503689E6886B0F0
:1073540004460D466EB11422002168460BF06FFC02
:10736400A3680593237901952BB1012B0DD06846B1
:10737400B04706B070BD01238DF800302369029335
:10738400E368039363690493F1E702238DF8003003
:10739400E3681B030293F5E7084670470020704733
:1073A400024B187A003818BF01207047843F002030
:1073B400034B187A0122B0FA80F05A7440097047DE
:1073C400843F002008B510461A460BF00FFC00203D
:1073D40008BD000008B51422002104480BF02FFC5E
:1073E4000348FFF768FD002008BD00BF843F00206C
:1073F400743F002010B5094C094B43602046FFF749
:1074040048FE48B903F052FD064920741C2306487F
:107414004FF4EE72FFF73CFD002010BD843F0020C6
:1074240064340300983D0020743F002070B5234C61
:10743400234E237A25463BB922492348FFF797FD7B
:10744400306008B9606070BD022334682B72237900
:1074540073B1012B22D020460321FFF775FF0023CF
:107464002B726B6017491848BDE87040FFF7AABD3E
:10747400D4E90523D21A142AD4E9031028BF14220C
:107484009208012A38BF012219441844FFF758FF13
:1074940050B11128DFD101232B72D4E7D4E90303BF
:1074A4001844FFF74FFFF3E72B7C002BCBD10146A9
:1074B400BDE87040022000F009B800BF843F0020FE
:1074C4009C3F0020983F0020743F002038B5831E65
:1074D400012B43D8224C237A002B3FD0022B09D115
:1074E40003282ED01F4B00221B68E2601A793AB1A0
:1074F400012A20D0637C6BBBBDE83840FFF796BF00
:10750400D3E905128D1A142D94BF521914329A61BD
:107514009142EFD102284FF0000308BF19462372AD
:10752400104B18BF0D211868FFF70EFF0E490F48C6
:10753400FFF748FDDEE71A6901321A615B699A4276
:10754400E7E7E3680133082B01D8E360D2E70023BF
:10755400E360DFE7BDE8384003F098BC38BD00BF06
:10756400843F00209C3F0020983F0020743F00206F
:1075740000F0FD03012B08D1044B00225A74421E73
:10758400504250411874FFF751BF7047843F0020A8
:1075940010B5064C201DFFF77CFD28B9637C1BB990
:1075A400BDE81040FFF742BF10BD00BF843F00207C
:1075B4002DE9F34180460D460F4801A916461F46A2
:1075C400FFF79BFC0446A8B11C2200210BF037FBFB
:1075D4002D0B0123237101A90748C4F80080A7607B
:1075E400E5606661FFF7B3FCFFF7D2FF002002B04D
:1075F400BDE8F0810420FAE7743F00202DE9F74349
:1076040081468846104801A917461E46FFF775FCB7
:107614000446B0B11C2200210BF011FB00250A9B8B
:10762400A36001A9C4E9037807482571C4F8009050
:107634006661FFF78CFCFFF7ABFF284603B0BDE89B
:10764400F0830420FAE700BF743F002030B53AB15C
:107654001368DB430A4D0144814204D1D84330BD51
:107664004FF0FF33F6E710F8012B5340082213F0D4
:10767400010418BF2C46013A84EA5303F7D1EBE71F
:107684002083B8ED014B4360002070479034030021
:107694000846704700207047024B1868003818BF2E
:1076A40001207047A03F002008B50248FFF7F4FC12
:1076B400002008BDA03F002008B510461A460BF074
:1076C40095FA002008BD00002DE9F043814687B0FB
:1076D40014480E4615469846FFF7DBFC0446F0B9FD
:1076E4000746BD4215D10F48FFF7D6FCD9F808303C
:1076F4005BB102228DF800200022CDE90126CDE9FC
:107704000325CDF8148068469847204607B0BDE8A5
:10771400F08306EB073001F04BF90137E1E7112460
:10772400F3E700BFA03F00202DE9F041804686B07A
:1077340011480F4616461D46FFF7ABFC0446C8B970
:10774400AA083146384601F04BF90B48FFF7A4FC70
:10775400D8F8083053B101228DF800200C9A059214
:10776400CDE90147CDE9036568469847204606B050
:10777400BDE8F0811124F9E7A03F00200C4B1B78F1
:10778400062B10D10B4B1B681A070CD10A4B186837
:1077940000F0F003302B08D000F0E000A0F140032B
:1077A400584258417047002070470120704700BF7D
:1077B400E00F00F0E40F00F0E80F00F0094B1B7835
:1077C400062B0CD1084B1B681A0708D1074B186805
:1077D40000F0F000A0F130035842584170470020F7
:1077E400704700BFE00F00F0E40F00F0E80F00F076
:1077F40008B5FFF7C3FF28B17D4B7E4A1B68C3F36E
:1078040004231360FFF7DAFF10B17B4B7B4A1A6045
:10781400FFF7B4FF28B17A4B7A4A1B68C3F34233AB
:107824001360FFF7CBFF20B1774AD36823F080734E
:10783400D360FFF7A3FF40B14FF080430022C3F8A9
:107844000C21C3F81021C3F83825FFF7B7FF10B196
:107854006E4B03221A60FFF7B1FF40B16C4B052257
:107864001A6001229A6700229A603F225A60694B8B
:107874001B78062B50D1684B1B6819074CD1674BFA
:107884001B6803F0F003502B46D14FF08052644B39
:10789400D2F80414C3F82015D2F80814C3F8241538
:1078A400D2F80C14C3F82815D2F81014C3F82C1508
:1078B400D2F81414C3F83015D2F81814C3F83415D8
:1078C400D2F81C14C3F84015D2F82014C3F8441598
:1078D400D2F82414C3F84815D2F82814C3F84C1568
:1078E400D2F82C14C3F85015D2F83014C3F8541538
:1078F400D2F83414C3F86015D2F83814C3F86415F8
:10790400D2F83C14C3F86815D2F84014C3F86C15C7
:10791400D2F84424C3F87025FFF730FF28B1414B57
:10792400414A1B6803F04F031360FFF727FF48B178
:107934004FF08043D3F80024D20744BF6FF0010214
:10794400C3F80024394B1B68062B08D1384B1B683D
:10795400062B01BF374A136843F480631360364A29
:10796400D2F8883043F47003C2F88830BFF34F8FE5
:10797400BFF36F8F4FF01023D3F80022002A03DBEC
:10798400D3F80432002B2FDA2C4B0122C3F8042540
:10799400D3F80024002AFBD04FF010221521C2F89E
:1079A4000012D3F80024002AFBD04FF01023152234
:1079B400C3F80422214B1A46D3F800140029FBD043
:1079C4000021C3F80415D2F80034002BFBD0BFF318
:1079D4004F8F19491A4BCA6802F4E0621343CB6013
:1079E400BFF34F8F00BFFDE7164B174A1A6008BD5F
:1079F400240300104035014074C007400DF0ADBAB7
:107A0400440200103C050040F0ED00E0A0050040F9
:107A140010560040E00F00F0E40F00F0E80F00F013
:107A240000C0004058020010E40E00403001001075
:107A3400340100103C17004000ED00E000E001407C
:107A44000400FA05E43A00200090D003054A4FF000
:107A5400A043105CD3F8043523FA00F0C04300F0CF
:107A640001007047C0340300044B1A5C01239340A7
:107A74004FF0A042C2F80C35704700BFC034030079
:107A8400044B1A5C012393404FF0A042C2F808351E
:107A9400704700BFC034030008B50020FFF7F0FFB3
:107AA4000120FFF7EDFF0220FFF7EAFFBDE80840E1
:107AB4000320FFF7E5BF08B50020FFF7D5FF01203D
:107AC400FFF7D2FF0220FFF7CFFFBDE808400320F5
:107AD400FFF7CABF074A4FF0A041105CD1F8043544
:107AE4000122824022EA03001340C1F80805C1F8CC
:107AF4000C357047C0340300054A4FF0A043105CB6
:107B0400D3F8103523FA00F0C04300F001007047A9
:107B1400BC3403000D2809D00E2809D00F2809D041
:107B240010280CBF03204FF0FF307047002070472F
:107B34000120704702207047014B185C704700BF5A
:107B4400BC340300C20708B501460CD54FF0A0436E
:107B54000322C3F84427C3F84827C3F84C27C3F8C3
:107B64005027FFF799FF8B070AD54FF0A0430C224B
:107B7400C3F83427C3F83827C3F83C27C3F8402791
:107B840008BD00001FB503788DF8003043680193E9
:107B9400037A8DF80830C368054A0393054B684699
:107BA40053F8213052F82110984705B05DF804FBD2
:107BB400A43F0020A83F00201FB503788DF80030B3
:107BC4004368019383688DF80830C368054A0393BA
:107BD400054B684653F8213052F82110984705B0F8
:107BE4005DF804FBA43F0020A83F0020F0B5194B2A
:107BF40090F800C091F81DE043F82C20164B16466F
:107C04000A6943F82C20154B03F80CE00C46074690
:107C14000FCC89B06D460FC594E80F0085E80F00BE
:107C2400CDF810C0BEF1000F09D0002E0C4A6946F1
:107C340008BF3246381D00F031FD09B0F0BD002EFA
:107C4400084A694608BF324607F10C0000F00EFBF3
:107C5400F3E700BFA83F0020A43F0020AC3F002072
:107C6400897B0200BD7B020000F1804000F5C0402A
:107C7400002382B0036003680193019B02B0704744
:107C8400800000F1A040D0F8002722F44032C0F870
:107C94000027D0F8003743EA0141C0F800177047C5
:107CA400054B4FF0FF32072843F8202084BFC0184B
:107CB40080F84820704700BFB03F002010B5184C32
:107CC40094F8583053BB04F130032021FF220139CA
:107CD40011F0FF0103F8012BF9D1C8B2FFF7E0FF5F
:107CE40001310C29F9D1042200210E480AF0A7FF22
:107CF4000D4BC02283F806234022C3F880214FF4A1
:107D0400BE701A60FFF7B0FF084B4FF00042C3F893
:107D14000423012384F85830002010BD0820FCE718
:107D2400B03F00200440002000E100E0006000407B
:107D3400034B93F85800003818BF0120704700BF68
:107D4400B03F0020F0B5364D2C1894F93040002C8B
:107D540064DA8C78C4F34004002C0BBF082300239E
:107D64000C260826B34201D10420F0BD55F8237037
:107D740001373FD12E1845F8232086F8303014B946
:107D8400EA1882F848008A78540713D4D60733D502
:107D9400820002F1A042D2F8004724F00204C2F8A3
:107DA4000047204EC20800F007070124BC40B75C1E
:107DB4003C43B4548A780C7812F0020225D09B001C
:107DC40003F1804303F5C0430202D3F8101521F4F4
:107DD400473121F44071C3F810152404D3F8101569
:107DE40002F4F85204F4403422430A43C3F8102541
:107DF4000020BAE70133B5E74C7800F5E0724FF0A4
:107E0400A046A40046F82240CBE7083B2B4493F855
:107E1400501041EA841483F85040E9E70820A4E7AD
:107E2400B03F00200440002038B51F4C251895F9B8
:107E34003020072A16DD224492F848309B09032B90
:107E44000BD14FF0A043D3F81015C14001F001014C
:107E54000231BDE83840FFF713BF012B0CBF0221EC
:107E64000321F6E7D3B2072B1CD8930003F1804318
:107E740003F5C043D3F8100540F00100C3F8100522
:107E840002F14000800080B2FFF7EEFE51B195F997
:107E9400303054F823302BB1012303FA02F2034BA0
:107EA400C3F8042338BD00BFB03F00200060004089
:107EB4004FF0A043D3F8103523FA00F000F001008E
:107EC400704700002DE9F04F87B000245A4D039409
:107ED4004FF48072012102F1804303F5C04390B254
:107EE4001B68012B06D1D5F804330B4202D0FFF7EF
:107EF400BBFE0C430432B2F5907F4FEA4101EAD154
:107F04004E4B1B68012B0AD14FF4BE70FFF7ACFE39
:107F14004FF0A04344F00044D3F81035039314F019
:107F2400FF0F1AD0464F01260025344210D0AB0073
:107F340003F1804303F5C043D3F81005D3F81015BB
:107F440057F8253023B1C1F30141C0F30420984709
:107F54000135082D4FEA4606E7D1002C65DA0021E9
:107F64004FF0FF33CDE90413354D364E4FF0000981
:107F7400CA4601274FF0A04816F9013B5A1C45D0C8
:107F8400C3F3C20106AA5018DCB210F8042C03F0A3
:107F94003F0B03F0070307FA03F31A4236D005EB4D
:107FA4000B02A40992F9302055F8222052B9032C6F
:107FB4002CD10DF1100E1EF801C04CEA030C0EF882
:107FC40001C001E0032CF4D00BF5E07110F80C0CA7
:107FD40058F821101842C1F3014105D0022915D1E6
:107FE400032C0FD1214604E003290FD1032C09D11E
:107FF40002215846019209F10109FFF741FE019A55
:108004005FFA89F912B12146584690470AF1010AEC
:10801400BAF1040FB0D1B9F1000F06D04FF0A0436C
:10802400039AD3F81035934202D107B0BDE8F08F1C
:108034000393049B059398E7006000407C61004033
:10804400B03F002000400020014B1B68184700BFD0
:108054000C4000200E4B984237B50C4602D000204D
:1080640003B030BD00230DF107008DF80730FEF793
:10807400D5FE084B1D7915B901221C601A719DF8B3
:108084000700FEF7EFFE002DE9D01120E8E700BF5E
:10809400002000400C4000200023435082B043588D
:1080A4000193019B02B070470A4610B54FF48E71DC
:1080B400FFF7F2FF136A9168C95C136A0133136214
:1080C400C0F81C1510BD024608B500684FF4927143
:1080D400FFF7E2FF4FF484711068FFF7DDFF1368C8
:1080E40001221A6008BD8B690A4610B54FF48471E9
:1080F40023B9FFF7D1FFD0F8183510BDFFF7CCFF37
:10810400536AD168D0F81805C854536A01335362CE
:10811400F3E700001FB501238DF80030044BCDE9CF
:108124000110D3E900126846904705B05DF804FBDE
:108134001440002030B54B48D0F8043313F4007FCA
:1081440085B005464DD0D0F82431002B49D04FF4EA
:108154009271FFF7A1FF4FF40173C0F80833424B4B
:1081640093F829200AB9012242603E4902228DF87F
:108174000020D1F88024C1F8802403929A690292E5
:10818400DA6801920022C3E906226846D3E90012A4
:1081940090473448D0F81C315BB133490A6A4B69C3
:1081A4009A420A464AD291F82830002B46D1FFF76A
:1081B4007BFF2C48D0F844318BB14FF4A271FFF708
:1081C4006BFF294B93F829200AB1012202609A69B6
:1081D4002AB10022586AD9689A61FFF79BFF05B05B
:1081E40030BDD5F804335B07D3D5D5F80831002B5F
:1081F400CFD01D4C1B482146FFF775FF636AA26967
:108204009A422346C5D1E269E1684AB12369E36031
:108214000023606AA261E3616362FFF77BFFB8E752
:1082240094F829200AB901226A600E4A4FF40170B9
:10823400C2F808030022586A9A61EEE74FF48E717F
:108244000848FFF729FF51690029B2D000230291A1
:1082540091688DF80030019153616846D2E90013AA
:108264009847A6E700200040144000202DE9F84379
:108274005A4B057991462C2202FB0532064692F8A8
:108284002A200C469846002A40F0A48054490068ED
:10829400FFF7E0FE0746002840F09E80216833681F
:1082A400481C0BD04FF0A04001228A40C0F808259A
:1082B40001F5E0724FF0030C40F822C06068421CE4
:1082C4001FBF00F5E0724FF0A04C4FF0000E4CF8C9
:1082D40022E0A269C3F8242594F814C0627DBCF19D
:1082E400010F4CEA0202C3F86C25C3F81405C3F865
:1082F4000C151DD1A1684A1C1FBF01F5E0724FF097
:10830400A0404FF0000C40F822C0E268501C0BD093
:108314004FF0A04C01209040CCF8080502F5E07025
:108324004FF0030E4CF820E0C3F80825C3F81015ED
:108334002C236B4308EB0302C2F80490226948F82B
:108344000320B9F1000F32D03068227F4FF48E71D0
:10835400FFF7A2FE30684FF4A271FFF79DFE336869
:108364002049C3F80413190B43F30733002BA8BFA8
:1083740003F160404FEA5313BCBF01F00F041A48E5
:108384004FEA4212A8BF00F561404FEA8303D2B21C
:1083940003F16043B4BF025580F8002303F5614341
:1083A40001F01F0101228A40C3F880211A6033685A
:1083B4000422C3F800252C2303FB05830022C3E910
:1083C400062283F829205A61012283F82A2038469C
:1083D400BDE8F8830827FAE71127F8E714400020DE
:1083E400398102008000020014ED00E02DE9F84319
:1083F400204B07794FF02C0909FB073405466669C1
:108404009846002E33D100686261A16026624FF461
:108414008E7184F82860FFF73FFE2868012383608B
:108424002146FFF741FE6368A14683B92868226AA2
:1084340063699A4211D32B68D3F81C21002AFBD01C
:108444000122DA602C2303FB078300225A613046A1
:10845400BDE8F88394F828303BB9D0F81C31002BE0
:10846400F8D04946FFF720FEE1E70F26EAE7112698
:10847400EDE700BF144000200379044A2C2101FBDE
:1084840003235869003818BF0120704714400020A6
:108494002DE9F843394F05792C2303FB0573064670
:1084A4005C6824B103684FF40170C3F808032C23FB
:1084B40003FB0573986950B1D86900283ED024B1F4
:1084C40033684FF40172C3F80423112433E09A6132
:1084D400D9605862D8612C2303FB057393F82930C3
:1084E4001BB910B93046FFF7EEFD4FF02C0909FB1C
:1084F40005783068D8F80430002B34D14FF4A271D9
:10850400C146FFF7C9FD3068D0F82431D0F80821FE
:10851400D0F84441B2B90CB9002BF4D02C2202FBA0
:1085240005750022AA6123BB2CBB95F8291033687A
:108534000122B1B11A602046BDE8F8831961DA61FD
:108544000120C8E7002BE9D1002CE7D14946FFF709
:10855400CAFDD8F82430D8F818209A42D3D8234634
:10856400DCE75A60E7E74FF40173C0F804330024F2
:10857400E1E70324DFE70F24DDE700BF1440002018
:108584000023435082B043580193019B02B07047CB
:108594001FB501238DF80030054B8DF808000191BB
:1085A4006846D3E90012904705B05DF804FB00BFAC
:1085B400404000207FB5374AD2F82461002E47D0CE
:1085C40010464FF49271FFF7DBFF02238DF8003061
:1085D400D2F88034C2F880340393D2F83C358DF855
:1085E40008302D4BDA6801920022C3E9062268465E
:1085F400D3E9001290472748D0F844316BB14FF4C7
:10860400A271FFF7BDFF244B9A6932B100229A612F
:10861400D0F83C05D968FFF7BBFF1E48D0F82031DD
:10862400A3B14FF49071FFF7ABFF1B4B5A696AB1CA
:10863400D0F84C158DF80810002299688DF80020A8
:1086440001915A616846D3E90012904704B070BDA5
:10865400D2F81031002BCED04FF488711046FFF7BA
:108664008FFF0D4BD2F83C0599698842C3D1DC6970
:10867400D96864B1D2F8005225F02005C2F800523E
:108684001A699C61DA60DE61FFF782FFB3E79C61DF
:10869400FAE700BF00200040404000202DE9F843E5
:1086A4005E4B06799146242202FB0632044692F878
:1086B40020200D469846002A40F0AC8058490068B6
:1086C400FFF7C8FC0746002840F0A6802968236805
:1086D400481C0BD04FF0A04001228A40C0F8082566
:1086E40001F5E0724FF0030C40F822C06868421CA8
:1086F4001FBF00F5E0724FF0A04C4FF0000E4CF895
:1087040022E0AA69C3F8242595F814C06A7DBCF157
:10871400010F4CEA0202C3F86C25C3F80C15C3F828
:1087240014051DD1A9684A1C1FBF01F5E0724FF062
:10873400A0404FF0000C40F822C0EA68501C0BD057
:108744004FF0A04C01209040CCF8080502F5E070F1
:108754004FF0030E4CF820E0C3F80825C3F81015B9
:108764002423734308EB0302C2F804902A6948F8EF
:108774000320B9F1000F3CD020682A7F4FF48871A0
:10878400FFF7FEFE20684FF49071FFF7F9FE2068B2
:108794004FF49271FFF7F4FE20684FF4A271FFF7D3
:1087A400EFFE23681F49C3F80413190B43F307337F
:1087B400002BA8BF03F160404FEA5313BCBF01F084
:1087C4000F0519484FEA4212A8BF00F561404FEA6D
:1087D4008303D2B203F16043B4BF425580F800234F
:1087E40003F5614301F01F0101228A40C3F880218F
:1087F4001A6023680822C3F80025242303FB068398
:108804000022C3E906225A61012283F82020384657
:10881400BDE8F8830827FAE71127F8E7404000206D
:10882400B98502001003020014ED00E001F060437A
:10883400B3F1005F2DE9F041064632D11B4B0779B5
:10884400242505FB073598466C6964BB6A6100689A
:10885400A9604FF49071FFF793FE4FF4AC71306848
:10886400FFF78EFE33686A69A968C3F84415C3F834
:10887400482501229A606A6862B9D3F82021D3F8A6
:10888400584152B9002CF8D00F24242303FB078746
:1088940000237B612046BDE8F081002C18BF0F2423
:1088A400F3E71024F6E71124F4E700BF404000206A
:1088B4000379044A242101FB03235869003818BFB3
:1088C4000120704740400020F8B501F06043B3F147
:1088D400005F04460F465ED10379304D242101FB2D
:1088E4000351496821B100684FF40476C0F8086365
:1088F400242000FB03539E6956B1D869002839D05F
:1089040021B123684FF40472C3F80423112030E02A
:108914009A61DF60DE6120684FF48871FFF730FEF2
:1089240020684FF4A271FFF72BFE2368C3F8347557
:10893400C3F8382516BB01221A602179242202FBD0
:10894400015252680ABBD3F81041D3F84421D3F83A
:108954002401144302D10028F5D02246242303FB2A
:1089640001550023984218BF03209A42AB6118BFF7
:108974000F20F8BD1F61DA610126CCE7D3F800228D
:1089840042F02002C3F80022D7E74FF40472C3F880
:1089940004230020EDE71020EBE700BF4040002057
:1089A400024AD2F80034002BFBD0704700E00140AB
:1089B4000A4908B50223C1F80435BFF36F8FBFF32A
:1089C4004F8FC1F80805FFF7EBFF0023C1F804350A
:1089D400BFF36F8FBFF34F8F08BD00BF00E00140AE
:1089E4000E4B10B50124C3F80445BFF36F8FBFF3DA
:1089F4004F8F01EB8204401AA14208D1074B002299
:108A0400C3F80425BFF36F8FBFF34F8F10BD431816
:108A140051F8042B1A60FFF7C3FFEDE700E00140B3
:108A24000220FFF757B800002DE9F04780460D46B5
:108A3400FFF770F80328044610D8012D10D0022D3A
:108A440030D05DB91A48FEF7CFF81A4B04EB440254
:108A540013449E78184B1B5DB34219D0BDE8F087D0
:108A6400144D00EB4002A918AE5C4A78470052B19D
:108A7400DFF84C900E484A464FF40041FEF76CF87C
:108A840008B989F800803B192B449A780A4B1A5587
:108A9400002EE3D0094B1B68002BDFD03046BDE825
:108AA400F047184700EB4004024804446678EFE7B7
:108AB40088400020C8400020E1400020DC40002025
:108AC4006440002000780221FFF7AEBF08B5094BCF
:108AD4001B7853B10020FEF7D3FF0120FEF7D0FF2F
:108AE400BDE808400320FEF7CBBFBDE80840FEF711
:108AF400D3BF00BF65400020F8B57B4C2378054602
:108B04001BB100232370FFF7E1FF172D00F28880CB
:108B1400DFE805F00C17174354657680888D888D3F
:108B2400959A9A9A9A9AC4C9D1D9E4E4FFF7CEFFE8
:108B34006E48FEF759F86E4B002204461A70204620
:108B4400F8BD0020FEF782FFF8B10020FEF798FF81
:108B5400022D0CBF4FF4E1614FF47A61644B1D7038
:108B64004FF400404FF4FA740025E0FB01454FF444
:108B74007A7200232046294609F03CFD0022014672
:108B8400BDE8F8405948FDF7E7BFFEF76DFF022D39
:108B94000CBFC8214FF4C871E0E70020FEF756FF70
:108BA40040B10020FEF76CFF4FF44871504B032294
:108BB4001A70D5E7FEF758FFC821F7E70020FEF743
:108BC40045FF38B10020FEF75BFF4FF47A61484B54
:108BD4000422EDE7FEF748FF4FF4C871F7E70020E1
:108BE400FEF734FF48B10020FEF74AFF404B052250
:108BF4001A7041F69A110022C2E7FEF735FFF5E735
:108C04000020FEF767FF3A4B06221A70002240F656
:108C1400CD41B5E70020FEF727FF354B07221A7038
:108C240000248CE701202070FEF754FFEEE70120BA
:108C34002070FEF74FFF00224FF48041A0E7FEF7BB
:108C44003AFF2B4B0C22EAE72A482B4EFDF7CCFFC8
:108C5400D5F1110504461CD0D8B9012D13D0C82371
:108C64005D434FF400474FF4FA7000214FF47A72D9
:108C74000023C7FB050109F0BDFC224601461D483F
:108C8400FDF76AFF04460220FEF7EEFE012333706F
:108C940055E70220FEF7F4FE0023F8E7FFF716FF7E
:108CA400134B1222BBE7FFF711FF0020FEF7DCFE97
:108CB4000F4B1322B3E7FFF709FF0120FEF7D4FEA1
:108CC4000B4B1422ABE7FFF701FF0020FEF7CCFEAD
:108CD4000120FEF7C9FE064B1522A0E7FEF7EBFEC6
:108CE400034B1D709CE700BFD8400020A840002023
:108CF400E04000206840002065400020044B1B68D1
:108D0400DB0703D5034B1878FFF7F6BE704700BFA7
:108D1400D4400020E0400020032801D8FEF7ECBE38
:108D240000207047044B1B6813F0010301D0FFF7C8
:108D3400E3BE1846704700BFD440002038B51C4B32
:108D440018601C4B10F00204054619601AD01A4B27
:108D54001A480E221A700F22DA7010229A71112208
:108D64005A72042140F26662FDF7F6FB044648B9E4
:108D7400FDF746FC044628B90146114A1148FDF79F
:108D8400D9FE0446EB0711D50120FEF7DBFE6CB9D2
:108D940021460D4A0D48FDF7CDFE044630B9BDE825
:108DA40038400B4A0B480121FDF7C4BE204638BDAC
:108DB400D4400020DC400020C8400020C43403001C
:108DC400C98A0200E8340300018D0200EC34030078
:108DD400258A0200E4340300032811D8012A0AD1A9
:108DE40001290FD100F10E02D2B20D4B00EB40006D
:108DF4001A54002070470129F7D0022904D049B140
:108E0400072070470022F8E7054B00EB40001844A8
:108E14004270EEE7024B00EB400018448270E8E732
:108E2400C8400020032808B512D8FEF785FE80004C
:108E340000F1A040D0F8003723F44033C0F80037E5
:108E4400D0F8003743F44033C0F80037002008BDA1
:108E54000620FCE708B5012202210020FFF7BCFF31
:108E640008B1072810D1072202210120FFF7B4FF1F
:108E740008B1072808D100210A220846FFF7ACFFF1
:108E840010B1072808BF002008BD00000388102B7C
:108E940010B502D0112B1ED010BD1A4C2168B1B9E7
:108EA40001220846FFF798FF08B1072824D10722BA
:108EB40002210120FFF790FF08B107281CD10422EA
:108EC40002210020FFF788FF08B1072814D1236886
:108ED40001332360E0E70B4A1368013B1360002B66
:108EE400DAD1FFF7B7FF0028D6D0074B1B68002B59
:108EF400D2D0BDE810401847034B1B68002BE6D0C6
:108F04009847E4E7EC400020E840002008B5002042
:108F1400FFF788FF08B1062806D10120FFF782FF7A
:108F240010B1062808BF002008BD00000D4B10B585
:108F340018600C4629B10120FFF7EEFE40B1022370
:108F44002370094B1B6853B9BDE81040FFF782BF7B
:108F5400FFF7E2FE08B10B23F2E72070F1E70020EF
:108F640010BD00BFE8400020EC4000200D4A0E492F
:108F74000023C2F84031C2F84431C2F84831C2F883
:108F84004C31C2F80031C2F804310A78072A83BF91
:108F9400064A0B701368013286BF013313600A70EE
:108FA400704700BF00400240F0400020F440002021
:108FB4007FB5426843699AB14FF0FF325A608368C3
:108FC400039303690293184B019357230093174AA1
:108FD400174B1849042003F0DFF907B05DF804FBD0
:108FE4000278012A0DD0022AF7D101225A601B68A7
:108FF400049383680393036902930F4B01936823DB
:1090040009E05A601B68049383680393036902931D
:109014000A4B019360230093044A054B054904203D
:1090240003F0BAF9D9E700BF8D350300F03403002B
:10903400C33703008635030052360300F6350300B8
:1090440008B506480121FEF718F8092805D9BDE836
:10905400084002480021FDF7E1BF08BD4C41002053
:1090640008B507480121FEF708F8431E033305D964
:10907400BDE8084002480121FDF7D0BF08BD00BF8C
:109084004841002008B500210B48FDF7C7FF002127
:109094000A48FDF7C3FF50220021094809F0CFFD1B
:1090A400084909480022FEF7A3F818B1BDE80840B2
:1090B400FDF7BCBA08BD00BF484100204C41002068
:1090C400F840002070340300A83A00202DE9F34151
:1090D40007460E46FFF7B4FFDFF8B08008EBC00583
:1090E400044608220021284609F0A9FDFFF7B8FF2D
:1090F4002B4648F8340001221C483946FEF7D5F8BF
:10910400044600B9F6B9204602B0BDE8F0814FF438
:109114007A40B0474FF47A40B047013F0BD1144B2B
:109124000193BC230093134A134B1449042003F006
:1091340033F90D24E7E76B68013308D1104B019331
:10914400C223EFE70F4E40F2F51746F001066B68B5
:10915400012BDCD10C4B0193CD230093054A064B24
:109164000649042003F018F9CDE700BFA83A00200F
:10917400B0360300F0340300D8370300863503000B
:10918400D736030020380300FC360300F8400020E3
:1091940013460A4601460148FEF738B8A83A0020AB
:1091A4002DE9FF471E46884691460746FFF748FFCC
:1091B400DFF8D8A00AEBC00504460822002128469F
:1091C40009F03DFDFFF74CFF00954AF834004B468B
:1091D400254842463946FEF73AF8044628B9002E97
:1091E4002DD1204604B0BDE8F087204B019340F216
:1091F4000F13029000931E4A1E4B1F49042003F0D4
:10920400CBF8EEE74FF47A40B0474FF47A40B047DA
:10921400013F0CD1194B019340F219130093144AE6
:10922400144B1549042003F0B7F80D24D9E76B68F3
:10923400013309D1124B019340F21F13EEE7114E93
:1092440040F2F51746F001066B68012BDAD10E4B9C
:1092540001934FF495730093054A064B0649042085
:1092640003F09AF8BDE700BFA83A002023370300B3
:10927400F0340300F737030086350300503703004A
:1092840077370300203803009C370300F8400020A0
:1092940072DF704776DF70477ADF70477CDF704794
:1092A4007FDF70478FDF7047B1DF704733DF704770
:1092B400FDF7BCB9082801D0FDF7B8B9704708B567
:1092C4000020FFF72FFD08B1FDF7B0F9FFF71EFEF0
:1092D40008B1FDF7ABF9FFF7E9FF18B1BDE80840A5
:1092E400FDF7A4B908BD07B500238DF8073003784E
:1092F40043B90DF10700FDF753FD01210DF10700FE
:1093040004F090FA03B05DF804FB00000388212BFD
:1093140013B504462FD007D8112B23D0132B32D0EA
:10932400102B0CD002B010BD522B34D0562B01D0D0
:109334003B2BF7D1A0881321FFF7ACFF0DE004F01D
:1093440075FC0720FFF7EEFC08B1FDF76FF9164B2B
:10935400A1881648198001F039FB0028E2D0FDF7F6
:1093640065F9DFE704F084FC03F04AFC0E4B4FF68A
:10937400FF721A80D6E7002301A98088ADF8043073
:10938400FFF790FFE9E7084800231A468521008883
:10939400FFF786FFE1E7044800231A4619460088D0
:1093A400FFF782FFD9E700BFEC3A0020C04300205A
:1093B40010B5CAB00AAC16220021204609F03FFCC1
:1093C400AC2200211FA809F03AFC4FF4C0634AF212
:1093D4000121ADF87E30ADF810101A4B229301A98B
:1093E40004AB06910921ADF8141029930021A023A0
:1093F4000122CDE94131144BADF884208DF8A82029
:109404008DF8F82048933C22022310A88DF8B83038
:1094140009F015FC4FF4FA6207ABADF81C200B48B9
:10942400099416221FA9ADF82020379300F031FDCE
:1094340008B1FDF7FBF80548012100F027FD4AB00B
:1094440010BD00BFE83A0020C5940200504100203E
:109454007047000008B503784BB9054B3B211888C9
:10946400FFF718FF18B1BDE80840FDF7DFB808BDE5
:10947400EC3A0020072808B513D00A280DD0042898
:1094840019D10D4B13211888FFF704FF30F008039E
:1094940011D0BDE80840FDF7C9B8BDE80840FFF7A2
:1094A4000EBF054B1A884FF6FF739A4203D1034847
:1094B40000F0B1FEEAE708BDEC3A0020504100207C
:1094C40008B548B103280BD10220FFF72BFC38B1B3
:1094D400BDE80840FDF7AAB8BDE80840FFF7EFBEB5
:1094E40008BD03781BB9818A006904F06DB970471F
:1094F40008B50849084801F093F908B1FDF796F852
:109504000548172101F09FF918B1BDE80840FDF79F
:109514008DB808BD55940200A843002008B5084B37
:1095240018884FF6FF73984209D01321FFF7B2FE53
:1095340030F0080303D0BDE80840FDF777B808BD54
:10954400EC3A002073B50B4D0B4EADF806100446F3
:109554002B880DF106022146304601F097FB0828BE
:1095640006D01328F4D0052802D008B1FDF75EF820
:1095740002B070BDEC3A0020F03A002030B50E4D38
:109584000FCD8BB004AC0FC495E803000B4B0C4A11
:1095940000934FF4807384E80300CDE90223019320
:1095A400084A0623694604A8FDF7A2FB08B1FDF7A3
:1095B4003DF80BB030BD00BF2C380300CC43002075
:1095C400CC440020EB9202007FB50E4D00220C46E5
:1095D4000646114605F15400FFF75AFE05F50D71D4
:1095E4001022684609F002FB22463146009809F031
:1095F400FDFA012269462846ADF8044000F029FE30
:1096040004B070BD504100207FB50E4D00220C46C1
:109614000646114605F15400FFF73AFE05F50D71B3
:109624001022684609F0E2FA22463146029809F00F
:10963400DDFA012269462846ADF80C4000F009FE27
:1096440004B070BD5041002000B589B0FFF796FF0B
:1096540003F0BEF8C721002003F042F8C72101201F
:1096640003F03EF8C721022003F03AF80721032053
:1096740003F036F803F010F8FDF72CFA08B1FCF704
:10968400D5FF46490320FFF759FB08B1FCF7CEFF8D
:1096940001A90020FFF74AFC08B1FCF7C7FFFDF75A
:1096A40055FD08B1FCF7C2FF01F082FB08B1FCF7DD
:1096B400BDFF002301A90120019301F041FC08B181
:1096C400FCF7B4FF01A801F093FC08B1FCF7AEFF6E
:1096D400112333488DF8003009F006FB304982B27B
:1096E4006846FFF7DBFD08B1FCF7A0FF0822002164
:1096F40001A809F0A4FA2B4A4FF0C87301A8CDE9D8
:109704000123FFF7C9FD08B1FCF790FFFFF7F0FE56
:10971400254B2648019301A901F046F908B1FCF74D
:1097240085FF00210422684609F089FA204B21486C
:109734000093694601F044FA08B1FCF777FFFFF79C
:1097440037FE1C22002101A809F079FA00234FF406
:109754002032CDE90132ADF812304FF470228DF889
:109764001430154B039206930322144B8DF81020EA
:1097740001A8079300F082FE08B1FCF757FF03F03D
:109784006DFF0F48032100F003FC08B1FCF74EFF06
:1097940006F0FEFAFDF7F0FCFAE700BF7994020048
:1097A4002638030010002000B5920200C0430020B8
:1097B400E7940200F03A002059940200B9920200A2
:1097C400504100200369C1688B429DBF8268D21852
:1097D40002F1FF3203F1FF3394BF501A581A704755
:1097E4002DE9F843D0E902940546A9EB0408406842
:1097F400904520440F46144404D909F0F7F9EC606D
:10980400BDE8F8834246A4EB090409F0EFF968685F
:10981400224607EB0801F0E72DE9F843C568064640
:10982400894617464FF000083469B3687068A5424A
:1098340028BFE418013C621B5C1BBC4228BF3C46A9
:10984400944228BF144649462844224609F0CEF9DA
:10985400B3682544AB4208BF00253F1BA044A14484
:10986400F560E1D14046BDE8F883000010B5114C25
:10987400114AA2610223C4E90433104BE361A264D8
:109884004FF480630E4A0F492362E26400231022DE
:10989400E01DA3626362E362A3656365E365226519
:1098A40009F000FA0849204609F0FCF92023A371C5
:1098B40010BD00BFCC4500204438030054460020AE
:1098C400444600204D38030051380300F8B5184CC5
:1098D400182300FB033503FB00402544C46A012C14
:1098E4000F4616460FD0022C1AD0F4B92846FFF7BB
:1098F40069FF864205D8324639462846FFF770FF8D
:1099040034462046F8BD2846FFF75CFF86423446BD
:1099140028BF0446224639462846FFF761FFF0E790
:109924002846BDE8F840FFF777BF0024E9E700BF09
:10993400CC45002073B50E4B1B7804460D461646E5
:109944000BB9FFF793FF00230DF107008DF80730E3
:10995400FDF764FA324629462046FFF7B7FF04466E
:109964009DF80700FDF77EFA204602B070BD00BFE7
:10997400CC4500206DDF704779DF70477DDF70478D
:1099840064DF70472DE9F04F85B000250E9CBDF8CB
:109994003CB0B4F800A00191074690461E46A94683
:1099A4003A884A450DDC45B12388013BA3EB0A0301
:1099B4009BB2FF2B3AD806F80A30002005B0BDE868
:1099C400F08F7A6852F82900039000220DF10B0100
:1099D40003A8FFF7D5FF0028F0D19DF80B204245DE
:1099E40021D12288002D14BF0020022002EB08019F
:1099F400014459451ADC3DB9013292B2019B2280DF
:109A0400B35422880132228022880DF10B013244A2
:109A140003A8FFF7B5FF0028D0D121889DF80B20BB
:109A24000A442280012509F10109B9E70C20C5E7A0
:109A34002DE9F341089FBDF824801546CDE900784F
:109A4400022204461E46FFF79DFF50B933461022FA
:109A540029462046CDE9087802B0BDE8F041FFF779
:109A640091BF02B0BDE8F0812DE9F04F00231788C3
:109A7400138090F82D3085B006460D46144653B336
:109A8400082F01D80C2027E102A8FFF773FF002854
:109A940040F0228123880822EA54238801339BB2B0
:109AA4001B222380EA542088013080B220800622C1
:109AB4000DF10901284409F099F823889DF808203C
:109AC40006339BB212F0FE0218BF01222380EA542F
:109AD400238801332380B378FBB123880433BB424A
:109AE400D0D802A8FFF748FF002840F0F58023886B
:109AF4000322EA54238801339BB219222380EA54B7
:109B04002388BDF8082001339BB2E9182380EA5466
:109B1400120A4A70238802332380F2789AB1238888
:109B2400D91CB942AED80221E954238801339BB22F
:109B340001212380E95423880B449BB22380EA54F7
:109B440023880B4423807268AAB12388D91CB942A4
:109B540098D8022192F90020E954238801339BB25A
:109B64000A212380E954238801339BB22380EA54D9
:109B74002388013323803389002B40F0A180338A6A
:109B84005BB1CDE900472B460722032106F1100003
:109B9400FFF74EFF002840F09F80338B5BB1CDE987
:109BA40000472B461522142106F11800FFF740FF49
:109BB400002840F09180326A002A40F09080D6F864
:109BC4002480B8F1000F30D0B8F804302188981CF4
:109BD4008A1C0244BA423FF655AFFE283FF652AF04
:109BE40003336B54238801339BB2FF222380EA544E
:109BF400238801339BB22380B8F80020EA54E91883
:109C0400120A4A702088023080B22080B8F80420FA
:109C14005AB1D8F8081000296BD0284408F0E6FFA0
:109C24002388B8F804201344238096F82C30002BA2
:109C340040F09A80307800284ED03388012B58D0D9
:109C4400228802F1020CBC453FF61CAF012805D165
:109C54007378023313449F42FFF414AF023FBF1AD8
:109C6400BFB202A905EB0C00ADF80870FFF786FE41
:109C740090BB3178BDF80830022900F0BA807278C0
:109C84009A4202D3BB4240F2B280012940F0B38031
:109C9400974293B2C0F0AF80ADF808300821BDF808
:109CA4000830FE2B3FF6EEAE22880133AB542288F7
:109CB400013292B22280A9542288134423800BE0FB
:109CC400CDE900472B460622022106F10800FFF7E2
:109CD400AFFE00283FF453AF05B0BDE8F08FB4F8F1
:109CE40000C00CF10603BB423FF6CCAE1188052937
:109CF40001D80720F0E76FF4486E01EB0E039BB226
:109D04004FF27D3E7345F4D95388052BF1D96FF496
:109D14004860181880B27045EBD94FF6FF70814245
:109D240003D0834201D09942E3D8052305F80C30CF
:109D3400238801339BB212212380E9542388013301
:109D44009BB223801188E954E818090A41702388DA
:109D540002339BB223805288EA54E918120A4A70EB
:109D64002388023323802AE7B36A002BC1D04FF043
:109D740000094FF00C0A4FF0160B96F82C305FFADE
:109D840089F293427FF656AFB16A0AFB02F201EB05
:109D94000208B8F80430981CFE283FF673AE2088F9
:109DA40003332B54238801339BB2238005F803B07B
:109DB400238801339BB223808A5AEA54E918120A91
:109DC4004A702088023080B22080B8F804205AB14A
:109DD400D8F8081000298CD0284408F007FF2388FD
:109DE400B8F804201344238009F10109C5E70921C7
:109DF40055E7BB42FBD9ADF808704FE770B5C0B169
:109E04004AB116880024B44203D305196D789D42E3
:109E140008D0A14201D800200BE0055D01352C4497
:109E2400A4B2F0E7A142F6D9A31C1380005D013867
:109E340080B270BD13B513460022ADF806200DF1B3
:109E440006020446FFF7DAFF10B1BDF80630E01849
:109E540002B010BD72DF704773DF704774DF704764
:109E640038B5012204460D46B0F83812D0F8340251
:109E7400FFF7E0FF00B1057004F13C0204F50D7139
:109E840004F15400BDE83840FFF7E4BF80F8301017
:109E94007047F8B504460F46002975D0002873D0E2
:109EA40091F87A301BB191F89830002B6ED1D7F825
:109EB400A030042B6AD0D7F89C30042B66D04FF026
:109EC400000C84F802C007F178060FCE251D0FC5DB
:109ED4000FCE0FC596E8070085E8070084F830C068
:109EE400D7F8A4306363D7F8A830A3634FF6FF759F
:109EF40004F50D73C4F84432A4F8485207226146AD
:109F040004F24A2008F09BFE23780BB984F85450DD
:109F140094F82430002B14BFEE231F2304F15501C1
:109F2400C4F83412A4F8383204F50E723846FFF738
:109F34009BFD40BB94F82430002B14BFEE231F2359
:109F440004F24311C4F83C12A4F8403204F5107230
:109F540007F13C00FFF788FDA8B9A369A4F84830CD
:109F64004FF480730125A4F85030636920640146DE
:109F740084F83C50636404F13C0204F15400FFF79C
:109F840069FF00B92570F8BD0E20FCE70720FAE749
:109F9400F8B5077804460D46002F00F0048100F25E
:109FA4004A26817007220021304608F048FEE388E3
:109FB40013B1A378012B04D0E3794BB1A378022B1E
:109FC40006D1636BA3B1012284F85122082098477B
:109FD400334604F5147113F8012F12B99942FAD1DA
:109FE40017466B1E032B52D8DFE803F0050B0F1244
:109FF40084F85132ECE7A3791BB194F8243003B907
:10A004005FB9E3790BB1002F43D1237A002B42D1FE
:10A01400637A002B0CBF00250425636BA570002B0D
:10A024003BD0033D012D38D86279002A35D094F80D
:10A03400522292BB84F85422012284F8532207202E
:10A04400984704F13C0518220021284608F0F7FD42
:10A05400E36A94F82420581E0121022828BF0B46E5
:10A0640084F83C1084F8513032B1884296BFA36A18
:10A0740084F8521084F85230A178002384F85030C8
:10A0840004291BD8DFE801F0770D2235590000259B
:10A09400C3E70225C1E70325BFE7002384F8533251
:10A0A400CFE7C4E91063C4F844320223012284F8E0
:10A0B4003C30802384F83120A4F84830A378002B66
:10A0C4005CD1636B002B6AD1002067E00223002A75
:10A0D40084F8313014BF0723032384F83C30236908
:10A0E400A4F848300023C4F84432E3682664636467
:10A0F400E4E763696364A369A4F8483012B10623F2
:10A1040084F83C306379B3B194F852329BB994F833
:10A11400543283B1022384F8503004212046FFF7DF
:10A124009FFE0028CAD1052384F8313004F50D734D
:10A13400C4F84432C2E70323F6E7E3696364236A9D
:10A14400A4F8483012B1062384F83C30637983B113
:10A1540094F852326BB994F8543253B1022384F810
:10A16400503004212046FFF77BFE0028A6D10623A9
:10A17400DAE70423D8E784F831309FE7D4F84412AF
:10A184002A4604F15400FFF765FE38B994F83010FC
:10A1940094F85400FFF760FE002892D0F8BD94F8BC
:10A1A4003100984790E70820F8E70388112B10B591
:10A1B4000C460AD0262B1FD0102B05D1C37B012BB4
:10A1C40002D18388A1F8483210BD0022838881F827
:10A1D4005222B1F848229A42F6D10B79002BF3D1DE
:10A1E40001212046FFF7D4FE0028EDD0A36B002BFD
:10A1F400EAD0BDE810401847037A013B012BE3D8AD
:10A20400897805230131B1FBF3F303EB8303C91A06
:10A21400C9B2E6E7704738B5044690F85400FFF732
:10A224001DFE012384F85232002384F8543284F84A
:10A23400503006212046FFF713FE054638B9A178B1
:10A244002046FFF7A5FE10B1A36B03B1984728463B
:10A2540038BD38B5044682B100F50D751022284684
:10A2640008F0C4FCC4F84452D4F8441204F1540075
:10A274000022BDE83840FFF7EDBDC4F84412F3E70F
:10A2840075DF704776DF70477ADF70477BDF704792
:10A29400034B1A8882420CBF18460020704700BF47
:10A2A400704A0020024B9B6903B11847704700BFF6
:10A2B400544A002073B585B22846FFF7E9FF0446E7
:10A2C40070B1164E027A337B9A420BD200F10A0126
:10A2D4002846FFF7D5FFE8B1112801D0FFF7E2FFC8
:10A2E40002B070BD00230372337C43B13B21284686
:10A2F400FFF7C8FF30F0080301D0FFF7D3FF7369FD
:10A30400002BEDD000228DF80420ADF8065001A8F2
:10A314009847E5E7237A01332372E1E7544A0020A2
:10A3240037B50B46497A0F4A71B9D2E901141D7A3F
:10A334000246002D18BF21465868FCF70DFC08B1F1
:10A34400FFF7B0FF03B030BD002119725369002B31
:10A35400F8D00122ADF806008DF8042001A8984732
:10A36400F0E700BF544A00204B8802889A4213D871
:10A3740042889A4210D380888A8840F2F313984224
:10A3840094BF031AC31A934206D800F2F310904202
:10A3940034BF002001207047002070470388122B2F
:10A3A40070B5014659D004D8102B1ED0112B44D0BF
:10A3B40070BD502BFCD12F4BC288DB899A42F7D158
:10A3C400038A022BF4D186883046FFF761FF0546E5
:10A3D4000028EDD001F1120000F05DF938BB686887
:10A3E400FCF702FC0028E3D009E0C37B012BDFD19A
:10A3F4004FF6FF70FFF74CFF054620B90420BDE877
:10A404007040FFF74FBF1C4A8E88068000230372FA
:10A414001368C0F80A305368C0F80E3010310A309F
:10A42400FFF7A2FF134B6872DB89002BC0D12946CA
:10A434003046BDE87040FFF773BF8088FFF728FF00
:10A4440004460028B4D04068FCF7CEFB08B1FFF7FF
:10A4540029FF4FF6FF732380AAE786883046FFF76B
:10A4640017FF05460028A3D008310A30FFF77CFF08
:10A474006872DCE7544A0020844A0020F8B5064696
:10A4840048B305460FCD154F3C460FC495E8070069
:10A4940084E807003068124C3C60B0B1FFF7F4FE6A
:10A4A400C0B9326813682360536863600D480E4A6C
:10A4B4004FF6FF7303800D4B40F8043F0021FCF777
:10A4C40039FB002818BF032004E02046FFF7DEFE16
:10A4D4000028EBD0F8BD0E20FCE700BF544A002052
:10A4E400844A0020704A0020B9A202008C4A00204D
:10A4F40073B50191019C06466CB100252C46294692
:10A5040001A8FCF782FD18B106EB440301349D80D9
:10A514000135142DF3D13046346002B070BD000013
:10A524002DE9F04703888488112B8CB005463CD074
:10A534001A2B3FD0102B17D1284EB368DB4300935E
:10A5440071686846FCF78DFD009901A8FFF7D0FFFC
:10A554000DF108094FF00008019B984507D3132C0F
:10A5640013D90420FCF762F80CB0BDE8F08739F881
:10A5740002AB00270137514606EB8700FCF73BFD91
:10A584001D2FF7D108F10108E6E715482146FCF72D
:10A5940029FD14482146FCF725FDEB7B012BE3D074
:10A5A40011482146FCF71EFDDEE70D482146FCF765
:10A5B40022FDD9E7037A0D481F2B4FEA13152146D4
:10A5C40006D9FCF70FFD022D09482146EAD1EEE732
:10A5D400FCF711FD06482146E9E700BFAC4A00201C
:10A5E400B44A0020B04A0020B84A0020BC4A0020E7
:10A5F400C04A00201328014602D80248FCF705BDD2
:10A6040000207047B04A002010B50446FFF7F2FF5F
:10A61400002814BF2046142010BD70B50546164608
:10A6240008460AB90E2070BD00231360002DF9D02E
:10A634002B68002BF6D0EB8813F003040ED1FFF740
:10A64400E3FFC0B214280BD02B7983420AD9EB88DC
:10A654002A6800FB032030602046E4E70720E2E795
:10A664000520E0E70420DEE7AADF70470023013875
:10A674000B70042806D8DFE800F00306080A0C0073
:10A6840011230B7070472123FBE73123F9E71223D1
:10A69400F7E72223F5E7007800F001007047F0B5F2
:10A6A4008B7891B0012B0C4638BF01238DF80E3006
:10A6B40005460B88ADF80C30002116466846032287
:10A6C40008F0BDFA607C6946FFF7D0FFA07C0DF16D
:10A6D4000101FFF7CBFFE27B237B217D43EAC20329
:10A6E400227C43EA02139DF80220002922F0190279
:10A6F40003F0190314BF02210121134361F3420340
:10A704001C22002109A88DF8023008F098FA637B16
:10A7140013F0300F15D002AF03220021384608F0A1
:10A724008EFAE07C0DF10901FFF7A0FF11238DF8EB
:10A7340008309DF80A300E97012262F342038DF827
:10A744000A30637B8DF824301422A37B8DF82530E6
:10A75400002104A808F073FA03AB0493A388ADF8AE
:10A764001C30A368CDF814D01BB1E288ADF81820D2
:10A774000893A369002B31D001AF0322002138468E
:10A7840008F05DFAA3691A88ADF82C205A88ADF850
:10A794002E205A680D97187B0A923946FFF766FFF8
:10A7A400A3690DF10501587BFFF760FFA269917A57
:10A7B400137A43EAC103D17A927B43EA01139DF8E9
:10A7C4000610002A03F0190321F0190114BF022214
:10A7D40001220B4362F342038DF80630E36903B1AF
:10A7E4000C93334604AA09A92846FFF73DFF11B08C
:10A7F400F0BD90DF7047A5DF7047B5DF70471FB528
:10A804000023ADF80810ADF80A106A4602A90393B4
:10A814000093ADF80430FFF7ECFF05B05DF804FBDE
:10A8240078B14FF0171303601B2303711723C38000
:10A83400038141F61B320023016143818281184662
:10A8440070470E20704720B1172904D101800020E1
:10A8540070470E2070470720704713B50346808861
:10A864000C4698B91A88242A75D011D8112A52D0C6
:10A87400232A7DD0102A2BD0A37A3BB1E188002073
:10A88400FFF7B9FF10B94FF48073638102B010BDB4
:10A894003A2A48D0552AEFD1DB88C988A072172BF1
:10A8A40038BF17238B4228BF0B462381FFF7A5FF30
:10A8B400E37A002BE0D12369002BDDD040F6772228
:10A8C40000922289ADF80420694620469847D3E7D0
:10A8D400DB7B0A790A73012B13D0022B14D0E18895
:10A8E40023898B4205D20020FFF785FF70B901232D
:10A8F400E372217B637B8B42BED20020FFF77FFF94
:10A90400BAE70B88E380EAE74B88FBE7112804BF2A
:10A914000123A372EDE71723CB800B8141F61B3390
:10A9240048818B81A8E75B89CA88934228BF134674
:10A93400172B0A6938BF17230B814AB1C97A39B179
:10A9440040F677210091ADF80430694620469047DF
:10A954000023638190E71A7A0B694A73002B8BD02A
:10A964004DF67A218DF8050000918DF80420ABE7AF
:10A97400197A237B994228BF1946BFE7B0DF704795
:10A9840066DF704710B5002104464088FFF7F8FFE2
:10A99400034608B9237210BD112801D10123F9E738
:10A9A4006368BDE81040184760B159B10378DE2BE5
:10A9B4000AD00B684360DE2303704FF6FF734380B5
:10A9C400002070470E2070470820704728B1037894
:10A9D400DE2B04D14180002070470E2070470820F0
:10A9E4007047F0B5054685B00C46F1B1E8B10B7877
:10A9F400DE2B1AD182884B889A4204D10B7A13B188
:10AA04000846FFF7BFFF2B88112B32D0512B0ED0F5
:10AA1400012B0AD12B7A012B07D1A9886288914294
:10AA240003D123722046FFF7ADFF05B0F0BDAE8819
:10AA34006388B342F9D1AF79022FF6D1AD7B2B1FD6
:10AA4400022BF2D800211022684608F0F8F8052DF0
:10AA540014BF4FF4C0730023694630468DF800706C
:10AA6400ADF80430FFF78AFF0028DED0636898470A
:10AA7400DBE76388AA889A4204BF4FF6FF736380BA
:10AA8400D3E7A8DF7047ADDF7047AEDF704770B51E
:10AA940005468AB00C46002962D0002860D003889D
:10AAA400502B37D0572B72D0102B59D18188606925
:10AAB400002601AA0196FFF7B0FD082231460DEBEE
:10AAC400020008F0BCF80223218AA888CDF80CD033
:10AAD40002AA0293FFF7D7FF002841D1A369002BF4
:10AAE4003ED00398FFF7D7FD002839D0019B0BB166
:10AAF40001221A701822002104A808F0A0F80223E9
:10AB04008DF81030AB88ADF81830019B059407938D
:10AB1400A36923E08188606902AAFFF77EFD1822F9
:10AB2400002104A808F08BF8AB882189ADF818300F
:10AB3400EB88029A05949942079218D12E8A022E24
:10AB440015D16AB105F11200FFF7A5FD029B48B1CA
:10AB540001221A708DF81060A3690BB104A89847FC
:10AB64000AB070BD187003238DF81030F4E7A28981
:10AB74009A42F5D1A369002BF2D000228DF810205F
:10AB840005F1120208922A8AADF82420E6E78188AA
:10AB9400606902AAFFF741FD01460028E0D1029B4B
:10ABA4001B78002BDCD0182204A808F048F80123F5
:10ABB4008DF81030AB88ADF818300594029BA6E7E9
:10ABC40070B504468AB000285BD0002959D00B68C0
:10ABD4008361012541F61013821C01A928468DF8D2
:10ABE4000650ADF80430FFF74CFF002847D101466A
:10ABF400202202A808F023F8224642F61133ADF8C9
:10AC0400083012F80C3B8DF80A30BDF814301E4E93
:10AC14006088039623F44F6323F00F0343F44063E7
:10AC24002B4302A9ADF814308DF819508DF81A5041
:10AC3400FFF735FD18BB0146202202A807F0FFFFED
:10AC4400224642F61033ADF8083012F8043B8DF872
:10AC54000A30BDF814306088039623F4875323F038
:10AC64001F0343F480532B43ADF8143002A940F280
:10AC740001138DF81950ADF81A30FFF710FD0AB022
:10AC840070BD0E20FBE700BF14000100F0B50F46B5
:10AC940087B016461C46054618B3406901AA1946F2
:10ACA400FFF7BBFCD8B94FF6FF739C421BD0019B46
:10ACB400CBB11B78CBB13388142B18D801461022A2
:10ACC40002A807F0BCFFAB88ADF8083002A9012345
:10ACD4002046CDE904678DF80A30FFF7D6FE07B0A9
:10ACE400F0BD0E20FBE70520F9E70820F7E7072071
:10ACF400F5E710DF704711DF7047000013B5044615
:10AD040009496846FCF75EFA019808B902B010BD1B
:10AD1400D0E900212046904718B16846FCF75CFA58
:10AD2400F2E71120F2E700BF5C38030013B50446D4
:10AD340007496846FCF746FA019B0BB902B010BDFF
:10AD44002046D3E9002190476846FCF745FAF3E72B
:10AD540074380300064B9A6822B11A6822F4800200
:10AD64001A607047034B4FF48002C3F88020704789
:10AD74007C3D002000E100E00B4991F816335A09AC
:10AD8400EC231341DB0706D5084B9A683AB94FF414
:10AD940080030B60704742F20200FBF747BC1A685D
:10ADA40042F480021A60704700E100E07C3D00201C
:10ADB400F7B5194F3C7864BB184E01252046357011
:10ADC400FFF79CFF112821D02046FFF7AFFF144B5B
:10ADD4008DF80340186801900DF10300FCF71EF88C
:10ADE400104901A8FFF785FF0446B0FA80F0400936
:10ADF40038709DF80300FCF735F83CB90A4B347001
:10AE04001C70FFF7B9FF2846FFF790FF204603B0F8
:10AE1400F0BD0824FAE700BF254B0020244B002096
:10AE240058380300E9D60200264B0020F7B5154F29
:10AE34003B781BB3144E01203070FFF75FFF1128DD
:10AE44004FF000051CD00220FFF770FF0DF1070042
:10AE54008DF80750FBF7E2FFFFF74DFF04469DF81E
:10AE640007003D70FBF7FEFF2CB93470FFF772FF4B
:10AE74000320FFF75BFF204603B0F0BD0824FAE788
:10AE84002C46F8E7254B0020244B0020054B1B786B
:10AE940033B1054B1B780BB1FFF7C8BFFFF788BF71
:10AEA40008207047244B0020254B0020014B1878C4
:10AEB400704700BF254B002007B508496846FCF7DA
:10AEC40081F9019B13B903B05DF804FBD3E90020B9
:10AED40090476846FCF780F9F3E700BF6838030041
:10AEE400FFF7EABF60DF704769DF704761DF7047D3
:10AEF40030B5114B1B7891B0E3B1104D34240DF1F2
:10AF0400020103A8ADF80240FFF7F0FF70B929462B
:10AF140001A8FCF757F9029B002BF0D003A8D3E952
:10AF24000021904701A8FCF757F9F4E7052801D060
:10AF3400FBF77CFB11B030BD274B002080380300A9
:10AF44007FB505460C4600294ED0284B0B600C22D9
:10AF5400002101A807F073FE012606232268ADF83C
:10AF6400083001A920208DF804508DF80660FFF701
:10AF7400BBFF0C22002101A807F061FE0025226816
:10AF84008DF8056001A94020ADF80650FFF7ACFF2D
:10AF94000C22294601A807F052FE022322688DF8EC
:10AFA400043001A93046FFF79FFF0C22294601A86F
:10AFB40007F045FE4FF4B0632268019301A9A12074
:10AFC400FFF792FF0C22294601A807F038FE9DF8EE
:10AFD40004302268334301A9A0208DF80430FFF720
:10AFE40083FF284604B070BD0E20FBE7A83A00207A
:10AFF40008B5FFF777FF10B9014B01221A7008BD9D
:10B00400274B00204BDF70471FB50D4C01A8FFF7FD
:10B01400F9FF70B9214602A8FCF7D4F8039B002B72
:10B02400F4D00198D3E90021904702A8FCF7D4F8A2
:10B03400F4E7052801D0FBF7F9FA04B010BD00BF0E
:10B044008C3803002DE9F04115464FF4AE720646E4
:10B0540088461F4607F094FC28B915B90020BDE8BE
:10B06400F081A847FAE700220121304600F0CEF82B
:10B0740070B94FF4AE724146384607F0B7FD2B461F
:10B084004FF4AE723946304600F0B2F80028E5D0ED
:10B094000320E4E770B5084C054600225821201D22
:10B0A400FCF7D4FA2A4620602146044B0448BDE844
:10B0B4007040FFF7C7BF00BFE04D0020284B0020C1
:10B0C40000F00700F8B500F081F8044610B103243D
:10B0D4002046F8BD284E336801331BD00246582160
:10B0E400301DFCF7B3FA33681B1A5D425D41234EF1
:10B0F40037683B68013336D000225821381DFCF7ED
:10B10400A5FA3B6883422ED130682DB94FF4AE7254
:10B11400014614E00546EAE719495422043007F0D1
:10B124002FFC0546306817494FF480725C3007F0F5
:10B1340027FC50EA050318D031684FF4AE72124868
:10B1440007F054FD0020FFF7A5FF04460028BFD0F8
:10B15400BDE70D4C4FF4AE722946204607F06FFD53
:10B1640001236360EEE7002DF3D0034906484FF452
:10B17400AE7207F03BFDABE700F00700143B002084
:10B1840004F007005CF00700E04D0020024602488E
:10B19400024B0068FFF756BF143B0020844C00208C
:10B1A40038B505460020FFF775FF044618B9034972
:10B1B4002846FFF7EBFF204638BD00BFE04D0020D6
:10B1C40043690BB1C06818477047000010B40549C3
:10B1D400054C0022904218BF214604485DF8044BF8
:10B1E400FCF706B89C34030070340300BC3A00201A
:10B1F40007B5009313460A4601460348FCF727F8AF
:10B2040003B05DF804FB00BFBC3A002013460A46B5
:10B2140001460148FCF749B8BC3A00204FF48C724F
:10B22400002107F00CBD000028B1034B4FF48C72D1
:10B234001B68002118477047183B0020C02AF0B54E
:10B2440041D0B2F5807F40D0802A40F0C5800A23E7
:10B254000446036000F10803520944F8043F01EB7B
:10B2640082028A4233D103680C2B3ED00E2B6CD061
:10B274000A2B26D15A4D5B4900F1A006426955F8C4
:10B28400044B8768C2F307237C40CB5C6340140EF5
:10B2940010300C5D83EA0443D4B20C5D83EA04638A
:10B2A400C2F307440C5D83EA042350F8044C836022
:10B2B40063400468C3606340036153404361864252
:10B2C400DCD100208AE00C23C2E70E23C0E78B7890
:10B2D4004D781B0443EA05230D782B43CD7843EACC
:10B2E400056344F8043F0431BBE73D4C3D4900F19C
:10B2F400C005C26954F8046B8768C2F307237E4013
:10B30400CB5C7340160E18308E5D83EA0643D6B2CA
:10B314008E5D83EA0663C2F307468E5D83EA0623E5
:10B3240050F80C6C8360734050F8086CC360734031
:10B3340050F8046C03617340066843617340836191
:10B344005340C3618542D4D1BBE7254D254900F163
:10B35400E006446A55F8042B8768C4F307237A404F
:10B36400CB5C87695340220E20308A5C83EA024317
:10B37400E2B28A5C83EA0263C4F307428A5C83EA2A
:10B38400022350F8142C8360534050F8102CC360EF
:10B39400534050F80C2C03615340DAB243618A5C89
:10B3A4007A401F0ECF5D82EA0762C3F30727C3F317
:10B3B4000743CF5DCB5C82EA072282EA034350F85D
:10B3C400042C836153400268C361534003626340A9
:10B3D40043628642BDD174E76FF01F00F0BD00BF29
:10B3E40098490300983803002DE9F04FC9B004468A
:10B3F40002A8CDE90021FFF711FF04F10803DDE9FC
:10B404000021636002A8FFF719FF0746002838D11E
:10B41400029D25602B0101932901039B334803EB13
:10B4240005125B58A3605368E36093682361D36893
:10B43400636105F1FF3B103A04F1180A04F1280393
:10B444009046DC46BCF1000FA3F1100E20DC019BFA
:10B45400002DA3F110016FF00F0303FB0BFBDCBF06
:10B464004FF0000B002102EB0B0352F80B204AF8BB
:10B4740001200AEB01005A6842609A688260DB6826
:10B48400C36002A8FFF7D0FE384649B0BDE8F08F8C
:10B49400A8F104040094009E154956F8044F009640
:10B4A400E6B210F80690260E51F82990865D1149EF
:10B4B40051F82660104989EA0609C4F30726C4F343
:10B4C4000744865D045D51F826600C4951F8244018
:10B4D40089EA060666404EF8046B9E45DBD10CF102
:10B4E400FF3CA8F110081033ACE700BF9838030004
:10B4F400C04A0300C0560300C04E0300C0520300FC
:10B504002DE9F04F47680D683B684C688E68C96840
:10B51400DFF89882DFF898E2DFF898C25D407B6834
:10B524005C40BB685E40FB684B4001688FB04910CB
:10B534000139009107F1300151F8107C0197EFB205
:10B5440051F8200C58F8277087EA00091F0E954817
:10B554005EF8277089EA0709C4F307274FEA146BDA
:10B564005CF827705EF82BB089EA0709C6F3074731
:10B57400203150F8277089EA0709E7B25FFA89F0A9
:10B5840058F82770029051F83C0C87EA000A2F0EF5
:10B5940084485EF827708AEA070AC6F30727C4F3CB
:10B5A40007445CF827708AEA070AC3F3074750F890
:10B5B40027708AEA070AF7B2CAF3072058F82770F7
:10B5C400039051F8380C474087EA0B07C3F3072B65
:10B5D40074485CF82BB087EA0B07C5F3074BDBB262
:10B5E40050F82BB058F8233087EA0B07C7F307400D
:10B5F400360E049051F8340C5EF82660C5F3072526
:10B604004340684873405CF8256050F8244051F882
:10B614002C0C059073406340C3F30740069051F827
:10B62400280C0790F8B20890C3F3072009901D0E68
:10B63400C9F30740DBB20A900D93009B4FEA1A60EE
:10B644000B90002B51F8240C0C905FFA8AF4C7F38A
:10B65400072B4FEA1966CAF3074AC9F307294FEAC9
:10B6640017675DDC5049039B019811F803C0029BE6
:10B674000C5DCB5C43400498085C83EA0C2383EAAA
:10B684000043485D059D83EA006311F80B001370C5
:10B694006C4084EA00240698089D085C4D5D84EAA9
:10B6A4000044885D079E84EA00640998085C75403C
:10B6B40085EA00250A980C9E085C85EA00450B98EB
:10B6C400085C85EA00650D98085C704011F8096013
:10B6D40080EA062011F80A60C95D80EA064080EA23
:10B6E4000161180A5070180C1B0E9070D370230A55
:10B6F4005371230C93712B0A53722B0C93720B0A04
:10B7040014711572240E2D0E1173537300200B0C3B
:10B71400090ED471D5729373D1730FB0BDE8F08F55
:10B72400029B5EF8255058F823301E4858F82440F0
:10B734005EF827706B40019D6B40039D5CF82550BB
:10B744005D40049B50F823305D405EF826305C4039
:10B75400059B5C405CF82B305C40069B50F8233022
:10B764005C40089B58F823600B9B5EF823305E40D6
:10B77400079B5E40099B5CF823305E400A9B50F8AF
:10B7840023305E400D9B58F823307B400C9F7B4058
:10B794005CF829707B4050F82A707B40009F013F81
:10B7A4000097C9E6984103009838030098390300CC
:10B7B40098450300983D03002DE9F04F47680C6855
:10B7C4003B684E688D68C968DFF8A082DFF8A0E2A4
:10B7D400DFF8A0C25C407B685E40BB685D40FB68EC
:10B7E4004B4001688FB049100139009107F13001D5
:10B7F400E7B251F8100C58F82770019051F8200C5A
:10B8040087EA0009370E97485EF8277089EA070926
:10B81400C3F307274FEA136B5CF827705EF82BB06D
:10B8240089EA0709C5F30747203150F8277089EAE8
:10B834000709DFB25FFA89F058F82770029051F8CF
:10B84400340C87EA000A270E86485EF827708AEAD5
:10B85400070AC5F30727C3F307435CF827708AEA8E
:10B86400070AC6F3074750F827708AEA070AEFB2B7
:10B87400CAF3072058F82770039051F8380C474052
:10B8840087EA0B07C6F3072B76485CF82BB087EAE8
:10B894000B07C4F3074BF6B250F82BB058F82660E8
:10B8A40087EA0B07C7F307402D0E049051F83C0CB0
:10B8B4005EF82550C4F3072446406A486E405CF89D
:10B8C400245050F8233051F8280C07906E405E4005
:10B8D400F8B251F82C3C0890C6F307200593099060
:10B8E400CAF30743C9F3074006930A904FEA1A6064
:10B8F4000B9051F8240C0C90C6F307400D9000985F
:10B904000028C9F3072B4FEA17634FEA1664F5B210
:10B914005FFA8AFAC7F307274FEA19695DDC5249CF
:10B924000398019E11F800C00298085C7040049EC0
:10B934008E5D80EA0C2080EA06400E5D11F80B4013
:10B9440080EA06604E5D059D10706E4086EA04260E
:10B95400069C0C5D86EA0446CC5C099B86EA04647A
:10B96400CE5C089BCD5C079B5D400A9BCB5C85EA63
:10B97400062585EA03450B9B0C9ECB5C85EA036593
:10B9840011F80A307340CE5D83EA06230D9E8E5D66
:10B9940011F8091083EA064383EA0163010A51702E
:10B9A400010C9170000E210AD0705171210C91711B
:10B9B400290A5172290C9172190A14711572240EF4
:10B9C4002D0E137351730020190C1B0ED471D572F4
:10B9D4009173D3730FB0BDE8F08F029E5EF82440DC
:10B9E40058F826601F485EF823305EF829905CF80A
:10B9F40027707440019E7440039E5CF82660744076
:10BA0400049E50F82660744058F825605E40059BFB
:10BA14005E405CF82B305E40069B50F823305E405D
:10BA2400089B58F823500B9B5EF823305D40079B1E
:10BA34005D40099B5CF823305D400A9B50F823303D
:10BA44000C985D4058F82A3083EA090343407B4050
:10BA54000D98044F57F82070009801387B400090EF
:10BA6400C6E600BFC0520300C0490300C04A030039
:10BA7400C0560300C04E030010B40C46012C1146FE
:10BA84001A4603D15DF8044BFFF73ABD5DF8044B49
:10BA9400FFF792BE2DE9F04F87B01E461307119DA4
:10BAA4000746894614464FD1109B03EB0208002930
:10BAB40048D10F35A8EB0401A5F10F091CB90020EA
:10BAC40007B0BDE8F08F102202A8019107F08EF8AC
